{
	"contracts/ntf_market.sol": {
		"NFTMarket": {
			"abi": [
				{
					"inputs": [
						{
							"internalType": "contract IERC20",
							"name": "_erc20",
							"type": "address"
						},
						{
							"internalType": "contract IERC721",
							"name": "_erc721",
							"type": "address"
						}
					],
					"stateMutability": "nonpayable",
					"type": "constructor"
				},
				{
					"anonymous": false,
					"inputs": [
						{
							"indexed": true,
							"internalType": "address",
							"name": "seller",
							"type": "address"
						},
						{
							"indexed": false,
							"internalType": "uint256",
							"name": "tokenId",
							"type": "uint256"
						}
					],
					"name": "CancelOrder",
					"type": "event"
				},
				{
					"anonymous": false,
					"inputs": [
						{
							"indexed": true,
							"internalType": "address",
							"name": "seller",
							"type": "address"
						},
						{
							"indexed": false,
							"internalType": "uint256",
							"name": "tokenId",
							"type": "uint256"
						},
						{
							"indexed": false,
							"internalType": "uint256",
							"name": "previousPrice",
							"type": "uint256"
						},
						{
							"indexed": false,
							"internalType": "uint256",
							"name": "price",
							"type": "uint256"
						}
					],
					"name": "ChangePrice",
					"type": "event"
				},
				{
					"anonymous": false,
					"inputs": [
						{
							"indexed": true,
							"internalType": "address",
							"name": "seller",
							"type": "address"
						},
						{
							"indexed": true,
							"internalType": "address",
							"name": "buyer",
							"type": "address"
						},
						{
							"indexed": false,
							"internalType": "uint256",
							"name": "tokenId",
							"type": "uint256"
						},
						{
							"indexed": false,
							"internalType": "uint256",
							"name": "price",
							"type": "uint256"
						}
					],
					"name": "Deal",
					"type": "event"
				},
				{
					"anonymous": false,
					"inputs": [
						{
							"indexed": true,
							"internalType": "address",
							"name": "seller",
							"type": "address"
						},
						{
							"indexed": false,
							"internalType": "uint256",
							"name": "tokenId",
							"type": "uint256"
						},
						{
							"indexed": false,
							"internalType": "uint256",
							"name": "price",
							"type": "uint256"
						}
					],
					"name": "NewOrder",
					"type": "event"
				},
				{
					"inputs": [
						{
							"internalType": "uint256",
							"name": "",
							"type": "uint256"
						}
					],
					"name": "OrderOfId",
					"outputs": [
						{
							"internalType": "address",
							"name": "seller",
							"type": "address"
						},
						{
							"internalType": "uint256",
							"name": "tokenId",
							"type": "uint256"
						},
						{
							"internalType": "uint256",
							"name": "price",
							"type": "uint256"
						}
					],
					"stateMutability": "view",
					"type": "function"
				},
				{
					"inputs": [
						{
							"internalType": "uint256",
							"name": "_tokenId",
							"type": "uint256"
						},
						{
							"internalType": "uint256",
							"name": "_price",
							"type": "uint256"
						}
					],
					"name": "buy",
					"outputs": [],
					"stateMutability": "nonpayable",
					"type": "function"
				},
				{
					"inputs": [
						{
							"internalType": "uint256",
							"name": "_tokenId",
							"type": "uint256"
						}
					],
					"name": "cancelOrder",
					"outputs": [],
					"stateMutability": "nonpayable",
					"type": "function"
				},
				{
					"inputs": [
						{
							"internalType": "uint256",
							"name": "_tokenId",
							"type": "uint256"
						},
						{
							"internalType": "uint256",
							"name": "_price",
							"type": "uint256"
						}
					],
					"name": "changePrice",
					"outputs": [],
					"stateMutability": "nonpayable",
					"type": "function"
				},
				{
					"inputs": [],
					"name": "erc20",
					"outputs": [
						{
							"internalType": "contract IERC20",
							"name": "",
							"type": "address"
						}
					],
					"stateMutability": "view",
					"type": "function"
				},
				{
					"inputs": [],
					"name": "erc721",
					"outputs": [
						{
							"internalType": "contract IERC721",
							"name": "",
							"type": "address"
						}
					],
					"stateMutability": "view",
					"type": "function"
				},
				{
					"inputs": [],
					"name": "getAllNFTs",
					"outputs": [
						{
							"components": [
								{
									"internalType": "address",
									"name": "seller",
									"type": "address"
								},
								{
									"internalType": "uint256",
									"name": "tokenId",
									"type": "uint256"
								},
								{
									"internalType": "uint256",
									"name": "price",
									"type": "uint256"
								}
							],
							"internalType": "struct NFTMarket.Order[]",
							"name": "",
							"type": "tuple[]"
						}
					],
					"stateMutability": "view",
					"type": "function"
				},
				{
					"inputs": [],
					"name": "getMyNFTs",
					"outputs": [
						{
							"components": [
								{
									"internalType": "address",
									"name": "seller",
									"type": "address"
								},
								{
									"internalType": "uint256",
									"name": "tokenId",
									"type": "uint256"
								},
								{
									"internalType": "uint256",
									"name": "price",
									"type": "uint256"
								}
							],
							"internalType": "struct NFTMarket.Order[]",
							"name": "",
							"type": "tuple[]"
						}
					],
					"stateMutability": "view",
					"type": "function"
				},
				{
					"inputs": [],
					"name": "getOrderLength",
					"outputs": [
						{
							"internalType": "uint256",
							"name": "",
							"type": "uint256"
						}
					],
					"stateMutability": "view",
					"type": "function"
				},
				{
					"inputs": [
						{
							"internalType": "uint256",
							"name": "",
							"type": "uint256"
						}
					],
					"name": "idToOrderIndex",
					"outputs": [
						{
							"internalType": "uint256",
							"name": "",
							"type": "uint256"
						}
					],
					"stateMutability": "view",
					"type": "function"
				},
				{
					"inputs": [
						{
							"internalType": "uint256",
							"name": "_tokenId",
							"type": "uint256"
						}
					],
					"name": "isListed",
					"outputs": [
						{
							"internalType": "bool",
							"name": "",
							"type": "bool"
						}
					],
					"stateMutability": "view",
					"type": "function"
				},
				{
					"inputs": [
						{
							"internalType": "address",
							"name": "_operator",
							"type": "address"
						},
						{
							"internalType": "address",
							"name": "_seller",
							"type": "address"
						},
						{
							"internalType": "uint256",
							"name": "_tokenId",
							"type": "uint256"
						},
						{
							"internalType": "bytes",
							"name": "_data",
							"type": "bytes"
						}
					],
					"name": "onERC721Received",
					"outputs": [
						{
							"internalType": "bytes4",
							"name": "",
							"type": "bytes4"
						}
					],
					"stateMutability": "nonpayable",
					"type": "function"
				},
				{
					"inputs": [
						{
							"internalType": "uint256",
							"name": "",
							"type": "uint256"
						}
					],
					"name": "orders",
					"outputs": [
						{
							"internalType": "address",
							"name": "seller",
							"type": "address"
						},
						{
							"internalType": "uint256",
							"name": "tokenId",
							"type": "uint256"
						},
						{
							"internalType": "uint256",
							"name": "price",
							"type": "uint256"
						}
					],
					"stateMutability": "view",
					"type": "function"
				}
			],
			"devdoc": {
				"kind": "dev",
				"methods": {},
				"version": 1
			},
			"evm": {
				"assembly": "    /* \"contracts/ntf_market.sol\":229:5314  contract NFTMarket is IERC721Receiver {... */\n  mstore(0x40, 0x80)\n    /* \"contracts/ntf_market.sol\":976:1242  constructor(IERC20 _erc20, IERC721 _erc721) {... */\n  callvalue\n  dup1\n  iszero\n  tag_1\n  jumpi\n  0x00\n  dup1\n  revert\ntag_1:\n  pop\n  mload(0x40)\n  sub(codesize, bytecodeSize)\n  dup1\n  bytecodeSize\n  dup4\n  codecopy\n  dup2\n  dup2\n  add\n  0x40\n  mstore\n  dup2\n  add\n  swap1\n  tag_2\n  swap2\n  swap1\n  tag_3\n  jump\t// in\ntag_2:\n    /* \"contracts/ntf_market.sol\":1066:1067  0 */\n  0x00\n    /* \"contracts/ntf_market.sol\":1039:1068  address(_erc20) != address(0) */\n  0xffffffffffffffffffffffffffffffffffffffff\n  and\n    /* \"contracts/ntf_market.sol\":1047:1053  _erc20 */\n  dup3\n    /* \"contracts/ntf_market.sol\":1039:1068  address(_erc20) != address(0) */\n  0xffffffffffffffffffffffffffffffffffffffff\n  and\n  sub\n    /* \"contracts/ntf_market.sol\":1031:1100  require(address(_erc20) != address(0), \"Market: Invalid ERC20 Token\") */\n  tag_6\n  jumpi\n  mload(0x40)\n  0x08c379a000000000000000000000000000000000000000000000000000000000\n  dup2\n  mstore\n  0x04\n  add\n  tag_7\n  swap1\n  tag_8\n  jump\t// in\ntag_7:\n  mload(0x40)\n  dup1\n  swap2\n  sub\n  swap1\n  revert\ntag_6:\n    /* \"contracts/ntf_market.sol\":1147:1148  0 */\n  0x00\n    /* \"contracts/ntf_market.sol\":1119:1149  address(_erc721) != address(0) */\n  0xffffffffffffffffffffffffffffffffffffffff\n  and\n    /* \"contracts/ntf_market.sol\":1127:1134  _erc721 */\n  dup2\n    /* \"contracts/ntf_market.sol\":1119:1149  address(_erc721) != address(0) */\n  0xffffffffffffffffffffffffffffffffffffffff\n  and\n  sub\n    /* \"contracts/ntf_market.sol\":1111:1182  require(address(_erc721) != address(0), \"Market: Invalid ERC721 Token\") */\n  tag_9\n  jumpi\n  mload(0x40)\n  0x08c379a000000000000000000000000000000000000000000000000000000000\n  dup2\n  mstore\n  0x04\n  add\n  tag_10\n  swap1\n  tag_11\n  jump\t// in\ntag_10:\n  mload(0x40)\n  dup1\n  swap2\n  sub\n  swap1\n  revert\ntag_9:\n    /* \"contracts/ntf_market.sol\":1201:1207  _erc20 */\n  dup2\n    /* \"contracts/ntf_market.sol\":1193:1198  erc20 */\n  0x00\n  dup1\n    /* \"contracts/ntf_market.sol\":1193:1207  erc20 = _erc20 */\n  0x0100\n  exp\n  dup2\n  sload\n  dup2\n  0xffffffffffffffffffffffffffffffffffffffff\n  mul\n  not\n  and\n  swap1\n  dup4\n  0xffffffffffffffffffffffffffffffffffffffff\n  and\n  mul\n  or\n  swap1\n  sstore\n  pop\n    /* \"contracts/ntf_market.sol\":1227:1234  _erc721 */\n  dup1\n    /* \"contracts/ntf_market.sol\":1218:1224  erc721 */\n  0x01\n  0x00\n    /* \"contracts/ntf_market.sol\":1218:1234  erc721 = _erc721 */\n  0x0100\n  exp\n  dup2\n  sload\n  dup2\n  0xffffffffffffffffffffffffffffffffffffffff\n  mul\n  not\n  and\n  swap1\n  dup4\n  0xffffffffffffffffffffffffffffffffffffffff\n  and\n  mul\n  or\n  swap1\n  sstore\n  pop\n    /* \"contracts/ntf_market.sol\":976:1242  constructor(IERC20 _erc20, IERC721 _erc721) {... */\n  pop\n  pop\n    /* \"contracts/ntf_market.sol\":229:5314  contract NFTMarket is IERC721Receiver {... */\n  jump(tag_12)\n    /* \"#utility.yul\":88:205   */\ntag_14:\n    /* \"#utility.yul\":197:198   */\n  0x00\n    /* \"#utility.yul\":194:195   */\n  dup1\n    /* \"#utility.yul\":187:199   */\n  revert\n    /* \"#utility.yul\":334:460   */\ntag_16:\n    /* \"#utility.yul\":371:378   */\n  0x00\n    /* \"#utility.yul\":411:453   */\n  0xffffffffffffffffffffffffffffffffffffffff\n    /* \"#utility.yul\":404:409   */\n  dup3\n    /* \"#utility.yul\":400:454   */\n  and\n    /* \"#utility.yul\":389:454   */\n  swap1\n  pop\n    /* \"#utility.yul\":334:460   */\n  swap2\n  swap1\n  pop\n  jump\t// out\n    /* \"#utility.yul\":466:562   */\ntag_17:\n    /* \"#utility.yul\":503:510   */\n  0x00\n    /* \"#utility.yul\":532:556   */\n  tag_35\n    /* \"#utility.yul\":550:555   */\n  dup3\n    /* \"#utility.yul\":532:556   */\n  tag_16\n  jump\t// in\ntag_35:\n    /* \"#utility.yul\":521:556   */\n  swap1\n  pop\n    /* \"#utility.yul\":466:562   */\n  swap2\n  swap1\n  pop\n  jump\t// out\n    /* \"#utility.yul\":568:677   */\ntag_18:\n    /* \"#utility.yul\":618:625   */\n  0x00\n    /* \"#utility.yul\":647:671   */\n  tag_37\n    /* \"#utility.yul\":665:670   */\n  dup3\n    /* \"#utility.yul\":647:671   */\n  tag_17\n  jump\t// in\ntag_37:\n    /* \"#utility.yul\":636:671   */\n  swap1\n  pop\n    /* \"#utility.yul\":568:677   */\n  swap2\n  swap1\n  pop\n  jump\t// out\n    /* \"#utility.yul\":683:831   */\ntag_19:\n    /* \"#utility.yul\":769:806   */\n  tag_39\n    /* \"#utility.yul\":800:805   */\n  dup2\n    /* \"#utility.yul\":769:806   */\n  tag_18\n  jump\t// in\ntag_39:\n    /* \"#utility.yul\":762:767   */\n  dup2\n    /* \"#utility.yul\":759:807   */\n  eq\n    /* \"#utility.yul\":749:825   */\n  tag_40\n  jumpi\n    /* \"#utility.yul\":821:822   */\n  0x00\n    /* \"#utility.yul\":818:819   */\n  dup1\n    /* \"#utility.yul\":811:823   */\n  revert\n    /* \"#utility.yul\":749:825   */\ntag_40:\n    /* \"#utility.yul\":683:831   */\n  pop\n  jump\t// out\n    /* \"#utility.yul\":837:1006   */\ntag_20:\n    /* \"#utility.yul\":907:912   */\n  0x00\n    /* \"#utility.yul\":938:944   */\n  dup2\n    /* \"#utility.yul\":932:945   */\n  mload\n    /* \"#utility.yul\":923:945   */\n  swap1\n  pop\n    /* \"#utility.yul\":954:1000   */\n  tag_42\n    /* \"#utility.yul\":994:999   */\n  dup2\n    /* \"#utility.yul\":954:1000   */\n  tag_19\n  jump\t// in\ntag_42:\n    /* \"#utility.yul\":837:1006   */\n  swap3\n  swap2\n  pop\n  pop\n  jump\t// out\n    /* \"#utility.yul\":1012:1123   */\ntag_21:\n    /* \"#utility.yul\":1064:1071   */\n  0x00\n    /* \"#utility.yul\":1093:1117   */\n  tag_44\n    /* \"#utility.yul\":1111:1116   */\n  dup3\n    /* \"#utility.yul\":1093:1117   */\n  tag_17\n  jump\t// in\ntag_44:\n    /* \"#utility.yul\":1082:1117   */\n  swap1\n  pop\n    /* \"#utility.yul\":1012:1123   */\n  swap2\n  swap1\n  pop\n  jump\t// out\n    /* \"#utility.yul\":1129:1281   */\ntag_22:\n    /* \"#utility.yul\":1217:1256   */\n  tag_46\n    /* \"#utility.yul\":1250:1255   */\n  dup2\n    /* \"#utility.yul\":1217:1256   */\n  tag_21\n  jump\t// in\ntag_46:\n    /* \"#utility.yul\":1210:1215   */\n  dup2\n    /* \"#utility.yul\":1207:1257   */\n  eq\n    /* \"#utility.yul\":1197:1275   */\n  tag_47\n  jumpi\n    /* \"#utility.yul\":1271:1272   */\n  0x00\n    /* \"#utility.yul\":1268:1269   */\n  dup1\n    /* \"#utility.yul\":1261:1273   */\n  revert\n    /* \"#utility.yul\":1197:1275   */\ntag_47:\n    /* \"#utility.yul\":1129:1281   */\n  pop\n  jump\t// out\n    /* \"#utility.yul\":1287:1460   */\ntag_23:\n    /* \"#utility.yul\":1359:1364   */\n  0x00\n    /* \"#utility.yul\":1390:1396   */\n  dup2\n    /* \"#utility.yul\":1384:1397   */\n  mload\n    /* \"#utility.yul\":1375:1397   */\n  swap1\n  pop\n    /* \"#utility.yul\":1406:1454   */\n  tag_49\n    /* \"#utility.yul\":1448:1453   */\n  dup2\n    /* \"#utility.yul\":1406:1454   */\n  tag_22\n  jump\t// in\ntag_49:\n    /* \"#utility.yul\":1287:1460   */\n  swap3\n  swap2\n  pop\n  pop\n  jump\t// out\n    /* \"#utility.yul\":1466:2029   */\ntag_3:\n    /* \"#utility.yul\":1573:1579   */\n  0x00\n    /* \"#utility.yul\":1581:1587   */\n  dup1\n    /* \"#utility.yul\":1630:1632   */\n  0x40\n    /* \"#utility.yul\":1618:1627   */\n  dup4\n    /* \"#utility.yul\":1609:1616   */\n  dup6\n    /* \"#utility.yul\":1605:1628   */\n  sub\n    /* \"#utility.yul\":1601:1633   */\n  slt\n    /* \"#utility.yul\":1598:1717   */\n  iszero\n  tag_51\n  jumpi\n    /* \"#utility.yul\":1636:1715   */\n  tag_52\n  tag_14\n  jump\t// in\ntag_52:\n    /* \"#utility.yul\":1598:1717   */\ntag_51:\n    /* \"#utility.yul\":1756:1757   */\n  0x00\n    /* \"#utility.yul\":1781:1858   */\n  tag_53\n    /* \"#utility.yul\":1850:1857   */\n  dup6\n    /* \"#utility.yul\":1841:1847   */\n  dup3\n    /* \"#utility.yul\":1830:1839   */\n  dup7\n    /* \"#utility.yul\":1826:1848   */\n  add\n    /* \"#utility.yul\":1781:1858   */\n  tag_20\n  jump\t// in\ntag_53:\n    /* \"#utility.yul\":1771:1858   */\n  swap3\n  pop\n    /* \"#utility.yul\":1727:1868   */\n  pop\n    /* \"#utility.yul\":1907:1909   */\n  0x20\n    /* \"#utility.yul\":1933:2012   */\n  tag_54\n    /* \"#utility.yul\":2004:2011   */\n  dup6\n    /* \"#utility.yul\":1995:2001   */\n  dup3\n    /* \"#utility.yul\":1984:1993   */\n  dup7\n    /* \"#utility.yul\":1980:2002   */\n  add\n    /* \"#utility.yul\":1933:2012   */\n  tag_23\n  jump\t// in\ntag_54:\n    /* \"#utility.yul\":1923:2012   */\n  swap2\n  pop\n    /* \"#utility.yul\":1878:2022   */\n  pop\n    /* \"#utility.yul\":1466:2029   */\n  swap3\n  pop\n  swap3\n  swap1\n  pop\n  jump\t// out\n    /* \"#utility.yul\":2035:2204   */\ntag_24:\n    /* \"#utility.yul\":2119:2130   */\n  0x00\n    /* \"#utility.yul\":2153:2159   */\n  dup3\n    /* \"#utility.yul\":2148:2151   */\n  dup3\n    /* \"#utility.yul\":2141:2160   */\n  mstore\n    /* \"#utility.yul\":2193:2197   */\n  0x20\n    /* \"#utility.yul\":2188:2191   */\n  dup3\n    /* \"#utility.yul\":2184:2198   */\n  add\n    /* \"#utility.yul\":2169:2198   */\n  swap1\n  pop\n    /* \"#utility.yul\":2035:2204   */\n  swap3\n  swap2\n  pop\n  pop\n  jump\t// out\n    /* \"#utility.yul\":2210:2387   */\ntag_25:\n    /* \"#utility.yul\":2350:2379   */\n  0x4d61726b65743a20496e76616c696420455243323020546f6b656e0000000000\n    /* \"#utility.yul\":2346:2347   */\n  0x00\n    /* \"#utility.yul\":2338:2344   */\n  dup3\n    /* \"#utility.yul\":2334:2348   */\n  add\n    /* \"#utility.yul\":2327:2380   */\n  mstore\n    /* \"#utility.yul\":2210:2387   */\n  pop\n  jump\t// out\n    /* \"#utility.yul\":2393:2759   */\ntag_26:\n    /* \"#utility.yul\":2535:2538   */\n  0x00\n    /* \"#utility.yul\":2556:2623   */\n  tag_58\n    /* \"#utility.yul\":2620:2622   */\n  0x1b\n    /* \"#utility.yul\":2615:2618   */\n  dup4\n    /* \"#utility.yul\":2556:2623   */\n  tag_24\n  jump\t// in\ntag_58:\n    /* \"#utility.yul\":2549:2623   */\n  swap2\n  pop\n    /* \"#utility.yul\":2632:2725   */\n  tag_59\n    /* \"#utility.yul\":2721:2724   */\n  dup3\n    /* \"#utility.yul\":2632:2725   */\n  tag_25\n  jump\t// in\ntag_59:\n    /* \"#utility.yul\":2750:2752   */\n  0x20\n    /* \"#utility.yul\":2745:2748   */\n  dup3\n    /* \"#utility.yul\":2741:2753   */\n  add\n    /* \"#utility.yul\":2734:2753   */\n  swap1\n  pop\n    /* \"#utility.yul\":2393:2759   */\n  swap2\n  swap1\n  pop\n  jump\t// out\n    /* \"#utility.yul\":2765:3184   */\ntag_8:\n    /* \"#utility.yul\":2931:2935   */\n  0x00\n    /* \"#utility.yul\":2969:2971   */\n  0x20\n    /* \"#utility.yul\":2958:2967   */\n  dup3\n    /* \"#utility.yul\":2954:2972   */\n  add\n    /* \"#utility.yul\":2946:2972   */\n  swap1\n  pop\n    /* \"#utility.yul\":3018:3027   */\n  dup2\n    /* \"#utility.yul\":3012:3016   */\n  dup2\n    /* \"#utility.yul\":3008:3028   */\n  sub\n    /* \"#utility.yul\":3004:3005   */\n  0x00\n    /* \"#utility.yul\":2993:3002   */\n  dup4\n    /* \"#utility.yul\":2989:3006   */\n  add\n    /* \"#utility.yul\":2982:3029   */\n  mstore\n    /* \"#utility.yul\":3046:3177   */\n  tag_61\n    /* \"#utility.yul\":3172:3176   */\n  dup2\n    /* \"#utility.yul\":3046:3177   */\n  tag_26\n  jump\t// in\ntag_61:\n    /* \"#utility.yul\":3038:3177   */\n  swap1\n  pop\n    /* \"#utility.yul\":2765:3184   */\n  swap2\n  swap1\n  pop\n  jump\t// out\n    /* \"#utility.yul\":3190:3368   */\ntag_27:\n    /* \"#utility.yul\":3330:3360   */\n  0x4d61726b65743a20496e76616c69642045524337323120546f6b656e00000000\n    /* \"#utility.yul\":3326:3327   */\n  0x00\n    /* \"#utility.yul\":3318:3324   */\n  dup3\n    /* \"#utility.yul\":3314:3328   */\n  add\n    /* \"#utility.yul\":3307:3361   */\n  mstore\n    /* \"#utility.yul\":3190:3368   */\n  pop\n  jump\t// out\n    /* \"#utility.yul\":3374:3740   */\ntag_28:\n    /* \"#utility.yul\":3516:3519   */\n  0x00\n    /* \"#utility.yul\":3537:3604   */\n  tag_64\n    /* \"#utility.yul\":3601:3603   */\n  0x1c\n    /* \"#utility.yul\":3596:3599   */\n  dup4\n    /* \"#utility.yul\":3537:3604   */\n  tag_24\n  jump\t// in\ntag_64:\n    /* \"#utility.yul\":3530:3604   */\n  swap2\n  pop\n    /* \"#utility.yul\":3613:3706   */\n  tag_65\n    /* \"#utility.yul\":3702:3705   */\n  dup3\n    /* \"#utility.yul\":3613:3706   */\n  tag_27\n  jump\t// in\ntag_65:\n    /* \"#utility.yul\":3731:3733   */\n  0x20\n    /* \"#utility.yul\":3726:3729   */\n  dup3\n    /* \"#utility.yul\":3722:3734   */\n  add\n    /* \"#utility.yul\":3715:3734   */\n  swap1\n  pop\n    /* \"#utility.yul\":3374:3740   */\n  swap2\n  swap1\n  pop\n  jump\t// out\n    /* \"#utility.yul\":3746:4165   */\ntag_11:\n    /* \"#utility.yul\":3912:3916   */\n  0x00\n    /* \"#utility.yul\":3950:3952   */\n  0x20\n    /* \"#utility.yul\":3939:3948   */\n  dup3\n    /* \"#utility.yul\":3935:3953   */\n  add\n    /* \"#utility.yul\":3927:3953   */\n  swap1\n  pop\n    /* \"#utility.yul\":3999:4008   */\n  dup2\n    /* \"#utility.yul\":3993:3997   */\n  dup2\n    /* \"#utility.yul\":3989:4009   */\n  sub\n    /* \"#utility.yul\":3985:3986   */\n  0x00\n    /* \"#utility.yul\":3974:3983   */\n  dup4\n    /* \"#utility.yul\":3970:3987   */\n  add\n    /* \"#utility.yul\":3963:4010   */\n  mstore\n    /* \"#utility.yul\":4027:4158   */\n  tag_67\n    /* \"#utility.yul\":4153:4157   */\n  dup2\n    /* \"#utility.yul\":4027:4158   */\n  tag_28\n  jump\t// in\ntag_67:\n    /* \"#utility.yul\":4019:4158   */\n  swap1\n  pop\n    /* \"#utility.yul\":3746:4165   */\n  swap2\n  swap1\n  pop\n  jump\t// out\n    /* \"contracts/ntf_market.sol\":229:5314  contract NFTMarket is IERC721Receiver {... */\ntag_12:\n  dataSize(sub_0)\n  dup1\n  dataOffset(sub_0)\n  0x00\n  codecopy\n  0x00\n  return\nstop\n\nsub_0: assembly {\n        /* \"contracts/ntf_market.sol\":229:5314  contract NFTMarket is IERC721Receiver {... */\n      mstore(0x40, 0x80)\n      callvalue\n      dup1\n      iszero\n      tag_1\n      jumpi\n      0x00\n      dup1\n      revert\n    tag_1:\n      pop\n      jumpi(tag_2, lt(calldatasize, 0x04))\n      shr(0xe0, calldataload(0x00))\n      dup1\n      0xa85c38ef\n      gt\n      tag_16\n      jumpi\n      dup1\n      0xd6febde8\n      gt\n      tag_17\n      jumpi\n      dup1\n      0xd6febde8\n      eq\n      tag_12\n      jumpi\n      dup1\n      0xda694df0\n      eq\n      tag_13\n      jumpi\n      dup1\n      0xe0391b09\n      eq\n      tag_14\n      jumpi\n      dup1\n      0xfcce4883\n      eq\n      tag_15\n      jumpi\n      jump(tag_2)\n    tag_17:\n      dup1\n      0xa85c38ef\n      eq\n      tag_9\n      jumpi\n      dup1\n      0xb3de019c\n      eq\n      tag_10\n      jumpi\n      dup1\n      0xbca6ce64\n      eq\n      tag_11\n      jumpi\n      jump(tag_2)\n    tag_16:\n      dup1\n      0x150b7a02\n      eq\n      tag_3\n      jumpi\n      dup1\n      0x43b7bd8d\n      eq\n      tag_4\n      jumpi\n      dup1\n      0x514fcac7\n      eq\n      tag_5\n      jumpi\n      dup1\n      0x629cb2e4\n      eq\n      tag_6\n      jumpi\n      dup1\n      0x785e9e86\n      eq\n      tag_7\n      jumpi\n      dup1\n      0x9d4971b7\n      eq\n      tag_8\n      jumpi\n    tag_2:\n      0x00\n      dup1\n      revert\n        /* \"contracts/ntf_market.sol\":2883:3594  function onERC721Received(... */\n    tag_3:\n      tag_18\n      0x04\n      dup1\n      calldatasize\n      sub\n      dup2\n      add\n      swap1\n      tag_19\n      swap2\n      swap1\n      tag_20\n      jump\t// in\n    tag_19:\n      tag_21\n      jump\t// in\n    tag_18:\n      mload(0x40)\n      tag_22\n      swap2\n      swap1\n      tag_23\n      jump\t// in\n    tag_22:\n      mload(0x40)\n      dup1\n      swap2\n      sub\n      swap1\n      return\n        /* \"contracts/ntf_market.sol\":526:568  mapping(uint256 => Order) public OrderOfId */\n    tag_4:\n      tag_24\n      0x04\n      dup1\n      calldatasize\n      sub\n      dup2\n      add\n      swap1\n      tag_25\n      swap2\n      swap1\n      tag_26\n      jump\t// in\n    tag_25:\n      tag_27\n      jump\t// in\n    tag_24:\n      mload(0x40)\n      tag_28\n      swap4\n      swap3\n      swap2\n      swap1\n      tag_29\n      jump\t// in\n    tag_28:\n      mload(0x40)\n      dup1\n      swap2\n      sub\n      swap1\n      return\n        /* \"contracts/ntf_market.sol\":1886:2309  function cancelOrder(uint256 _tokenId) external {... */\n    tag_5:\n      tag_30\n      0x04\n      dup1\n      calldatasize\n      sub\n      dup2\n      add\n      swap1\n      tag_31\n      swap2\n      swap1\n      tag_26\n      jump\t// in\n    tag_31:\n      tag_32\n      jump\t// in\n    tag_30:\n      stop\n        /* \"contracts/ntf_market.sol\":4490:4900  function getMyNFTs() external view returns (Order[] memory) {... */\n    tag_6:\n      tag_33\n      tag_34\n      jump\t// in\n    tag_33:\n      mload(0x40)\n      tag_35\n      swap2\n      swap1\n      tag_36\n      jump\t// in\n    tag_35:\n      mload(0x40)\n      dup1\n      swap2\n      sub\n      swap1\n      return\n        /* \"contracts/ntf_market.sol\":274:293  IERC20 public erc20 */\n    tag_7:\n      tag_37\n      tag_38\n      jump\t// in\n    tag_37:\n      mload(0x40)\n      tag_39\n      swap2\n      swap1\n      tag_40\n      jump\t// in\n    tag_39:\n      mload(0x40)\n      dup1\n      swap2\n      sub\n      swap1\n      return\n        /* \"contracts/ntf_market.sol\":4286:4381  function getOrderLength() public view returns (uint256) {... */\n    tag_8:\n      tag_41\n      tag_42\n      jump\t// in\n    tag_41:\n      mload(0x40)\n      tag_43\n      swap2\n      swap1\n      tag_44\n      jump\t// in\n    tag_43:\n      mload(0x40)\n      dup1\n      swap2\n      sub\n      swap1\n      return\n        /* \"contracts/ntf_market.sol\":496:517  Order[] public orders */\n    tag_9:\n      tag_45\n      0x04\n      dup1\n      calldatasize\n      sub\n      dup2\n      add\n      swap1\n      tag_46\n      swap2\n      swap1\n      tag_26\n      jump\t// in\n    tag_46:\n      tag_47\n      jump\t// in\n    tag_45:\n      mload(0x40)\n      tag_48\n      swap4\n      swap3\n      swap2\n      swap1\n      tag_29\n      jump\t// in\n    tag_48:\n      mload(0x40)\n      dup1\n      swap2\n      sub\n      swap1\n      return\n        /* \"contracts/ntf_market.sol\":2317:2875  function changePrice(uint256 _tokenId, uint256 _price) external {... */\n    tag_10:\n      tag_49\n      0x04\n      dup1\n      calldatasize\n      sub\n      dup2\n      add\n      swap1\n      tag_50\n      swap2\n      swap1\n      tag_51\n      jump\t// in\n    tag_50:\n      tag_52\n      jump\t// in\n    tag_49:\n      stop\n        /* \"contracts/ntf_market.sol\":300:321  IERC721 public erc721 */\n    tag_11:\n      tag_53\n      tag_54\n      jump\t// in\n    tag_53:\n      mload(0x40)\n      tag_55\n      swap2\n      swap1\n      tag_56\n      jump\t// in\n    tag_55:\n      mload(0x40)\n      dup1\n      swap2\n      sub\n      swap1\n      return\n        /* \"contracts/ntf_market.sol\":1250:1878  function buy(uint256 _tokenId, uint256 _price) external {... */\n    tag_12:\n      tag_57\n      0x04\n      dup1\n      calldatasize\n      sub\n      dup2\n      add\n      swap1\n      tag_58\n      swap2\n      swap1\n      tag_51\n      jump\t// in\n    tag_58:\n      tag_59\n      jump\t// in\n    tag_57:\n      stop\n        /* \"contracts/ntf_market.sol\":575:624  mapping(uint256 => uint256) public idToOrderIndex */\n    tag_13:\n      tag_60\n      0x04\n      dup1\n      calldatasize\n      sub\n      dup2\n      add\n      swap1\n      tag_61\n      swap2\n      swap1\n      tag_26\n      jump\t// in\n    tag_61:\n      tag_62\n      jump\t// in\n    tag_60:\n      mload(0x40)\n      tag_63\n      swap2\n      swap1\n      tag_44\n      jump\t// in\n    tag_63:\n      mload(0x40)\n      dup1\n      swap2\n      sub\n      swap1\n      return\n        /* \"contracts/ntf_market.sol\":4389:4482  function getAllNFTs() external view returns (Order[] memory) {... */\n    tag_14:\n      tag_64\n      tag_65\n      jump\t// in\n    tag_64:\n      mload(0x40)\n      tag_66\n      swap2\n      swap1\n      tag_36\n      jump\t// in\n    tag_66:\n      mload(0x40)\n      dup1\n      swap2\n      sub\n      swap1\n      return\n        /* \"contracts/ntf_market.sol\":3607:3736  function isListed(uint256 _tokenId) public view returns (bool) {... */\n    tag_15:\n      tag_67\n      0x04\n      dup1\n      calldatasize\n      sub\n      dup2\n      add\n      swap1\n      tag_68\n      swap2\n      swap1\n      tag_26\n      jump\t// in\n    tag_68:\n      tag_69\n      jump\t// in\n    tag_67:\n      mload(0x40)\n      tag_70\n      swap2\n      swap1\n      tag_71\n      jump\t// in\n    tag_70:\n      mload(0x40)\n      dup1\n      swap2\n      sub\n      swap1\n      return\n        /* \"contracts/ntf_market.sol\":2883:3594  function onERC721Received(... */\n    tag_21:\n        /* \"contracts/ntf_market.sol\":3055:3061  bytes4 */\n      0x00\n        /* \"contracts/ntf_market.sol\":3074:3088  uint256 _price */\n      dup1\n        /* \"contracts/ntf_market.sol\":3091:3110  toUint256(_data, 0) */\n      tag_73\n        /* \"contracts/ntf_market.sol\":3101:3106  _data */\n      dup5\n      dup5\n        /* \"contracts/ntf_market.sol\":3091:3110  toUint256(_data, 0) */\n      dup1\n      dup1\n      0x1f\n      add\n      0x20\n      dup1\n      swap2\n      div\n      mul\n      0x20\n      add\n      mload(0x40)\n      swap1\n      dup2\n      add\n      0x40\n      mstore\n      dup1\n      swap4\n      swap3\n      swap2\n      swap1\n      dup2\n      dup2\n      mstore\n      0x20\n      add\n      dup4\n      dup4\n      dup1\n      dup3\n      dup5\n      calldatacopy\n      0x00\n      dup2\n      dup5\n      add\n      mstore\n      not(0x1f)\n      0x1f\n      dup3\n      add\n      and\n      swap1\n      pop\n      dup1\n      dup4\n      add\n      swap3\n      pop\n      pop\n      pop\n      pop\n      pop\n      pop\n      pop\n        /* \"contracts/ntf_market.sol\":3108:3109  0 */\n      0x00\n        /* \"contracts/ntf_market.sol\":3091:3100  toUint256 */\n      tag_74\n        /* \"contracts/ntf_market.sol\":3091:3110  toUint256(_data, 0) */\n      jump\t// in\n    tag_73:\n        /* \"contracts/ntf_market.sol\":3074:3110  uint256 _price = toUint256(_data, 0) */\n      swap1\n      pop\n        /* \"contracts/ntf_market.sol\":3138:3139  0 */\n      0x00\n        /* \"contracts/ntf_market.sol\":3129:3135  _price */\n      dup2\n        /* \"contracts/ntf_market.sol\":3129:3139  _price > 0 */\n      gt\n        /* \"contracts/ntf_market.sol\":3121:3165  require(_price > 0, \"Market: Invalid price\") */\n      tag_75\n      jumpi\n      mload(0x40)\n      0x08c379a000000000000000000000000000000000000000000000000000000000\n      dup2\n      mstore\n      0x04\n      add\n      tag_76\n      swap1\n      tag_77\n      jump\t// in\n    tag_76:\n      mload(0x40)\n      dup1\n      swap2\n      sub\n      swap1\n      revert\n    tag_75:\n        /* \"contracts/ntf_market.sol\":3205:3206  0 */\n      0x00\n        /* \"contracts/ntf_market.sol\":3186:3207  _seller != address(0) */\n      0xffffffffffffffffffffffffffffffffffffffff\n      and\n        /* \"contracts/ntf_market.sol\":3186:3193  _seller */\n      dup7\n        /* \"contracts/ntf_market.sol\":3186:3207  _seller != address(0) */\n      0xffffffffffffffffffffffffffffffffffffffff\n      and\n      sub\n        /* \"contracts/ntf_market.sol\":3178:3234  require(_seller != address(0), \"Market: Invalid seller\") */\n      tag_78\n      jumpi\n      mload(0x40)\n      0x08c379a000000000000000000000000000000000000000000000000000000000\n      dup2\n      mstore\n      0x04\n      add\n      tag_79\n      swap1\n      tag_80\n      jump\t// in\n    tag_79:\n      mload(0x40)\n      dup1\n      swap2\n      sub\n      swap1\n      revert\n    tag_78:\n        /* \"contracts/ntf_market.sol\":3254:3272  isListed(_tokenId) */\n      tag_81\n        /* \"contracts/ntf_market.sol\":3263:3271  _tokenId */\n      dup6\n        /* \"contracts/ntf_market.sol\":3254:3262  isListed */\n      tag_69\n        /* \"contracts/ntf_market.sol\":3254:3272  isListed(_tokenId) */\n      jump\t// in\n    tag_81:\n        /* \"contracts/ntf_market.sol\":3253:3272  !isListed(_tokenId) */\n      iszero\n        /* \"contracts/ntf_market.sol\":3245:3311  require(!isListed(_tokenId), \"Market: Token ID is already listed\") */\n      tag_82\n      jumpi\n      mload(0x40)\n      0x08c379a000000000000000000000000000000000000000000000000000000000\n      dup2\n      mstore\n      0x04\n      add\n      tag_83\n      swap1\n      tag_84\n      jump\t// in\n    tag_83:\n      mload(0x40)\n      dup1\n      swap2\n      sub\n      swap1\n      revert\n    tag_82:\n        /* \"contracts/ntf_market.sol\":3324:3330  orders */\n      0x02\n        /* \"contracts/ntf_market.sol\":3336:3368  Order(_seller, _tokenId, _price) */\n      mload(0x40)\n      dup1\n      0x60\n      add\n      0x40\n      mstore\n      dup1\n        /* \"contracts/ntf_market.sol\":3342:3349  _seller */\n      dup9\n        /* \"contracts/ntf_market.sol\":3336:3368  Order(_seller, _tokenId, _price) */\n      0xffffffffffffffffffffffffffffffffffffffff\n      and\n      dup2\n      mstore\n      0x20\n      add\n        /* \"contracts/ntf_market.sol\":3351:3359  _tokenId */\n      dup8\n        /* \"contracts/ntf_market.sol\":3336:3368  Order(_seller, _tokenId, _price) */\n      dup2\n      mstore\n      0x20\n      add\n        /* \"contracts/ntf_market.sol\":3361:3367  _price */\n      dup4\n        /* \"contracts/ntf_market.sol\":3336:3368  Order(_seller, _tokenId, _price) */\n      dup2\n      mstore\n      pop\n        /* \"contracts/ntf_market.sol\":3324:3369  orders.push(Order(_seller, _tokenId, _price)) */\n      swap1\n      dup1\n      0x01\n      dup2\n      sload\n      add\n      dup1\n      dup3\n      sstore\n      dup1\n      swap2\n      pop\n      pop\n      0x01\n      swap1\n      sub\n      swap1\n      0x00\n      mstore\n      keccak256(0x00, 0x20)\n      swap1\n      0x03\n      mul\n      add\n      0x00\n      swap1\n      swap2\n      swap1\n      swap2\n      swap1\n      swap2\n      pop\n      0x00\n      dup3\n      add\n      mload\n      dup2\n      0x00\n      add\n      exp(0x0100, 0x00)\n      dup2\n      sload\n      dup2\n      0xffffffffffffffffffffffffffffffffffffffff\n      mul\n      not\n      and\n      swap1\n      dup4\n      0xffffffffffffffffffffffffffffffffffffffff\n      and\n      mul\n      or\n      swap1\n      sstore\n      pop\n      0x20\n      dup3\n      add\n      mload\n      dup2\n      0x01\n      add\n      sstore\n      0x40\n      dup3\n      add\n      mload\n      dup2\n      0x02\n      add\n      sstore\n      pop\n      pop\n        /* \"contracts/ntf_market.sol\":3402:3434  Order(_seller, _tokenId, _price) */\n      mload(0x40)\n      dup1\n      0x60\n      add\n      0x40\n      mstore\n      dup1\n        /* \"contracts/ntf_market.sol\":3408:3415  _seller */\n      dup8\n        /* \"contracts/ntf_market.sol\":3402:3434  Order(_seller, _tokenId, _price) */\n      0xffffffffffffffffffffffffffffffffffffffff\n      and\n      dup2\n      mstore\n      0x20\n      add\n        /* \"contracts/ntf_market.sol\":3417:3425  _tokenId */\n      dup7\n        /* \"contracts/ntf_market.sol\":3402:3434  Order(_seller, _tokenId, _price) */\n      dup2\n      mstore\n      0x20\n      add\n        /* \"contracts/ntf_market.sol\":3427:3433  _price */\n      dup3\n        /* \"contracts/ntf_market.sol\":3402:3434  Order(_seller, _tokenId, _price) */\n      dup2\n      mstore\n      pop\n        /* \"contracts/ntf_market.sol\":3380:3389  OrderOfId */\n      0x03\n        /* \"contracts/ntf_market.sol\":3380:3399  OrderOfId[_tokenId] */\n      0x00\n        /* \"contracts/ntf_market.sol\":3390:3398  _tokenId */\n      dup8\n        /* \"contracts/ntf_market.sol\":3380:3399  OrderOfId[_tokenId] */\n      dup2\n      mstore\n      0x20\n      add\n      swap1\n      dup2\n      mstore\n      0x20\n      add\n      0x00\n      keccak256\n        /* \"contracts/ntf_market.sol\":3380:3434  OrderOfId[_tokenId] = Order(_seller, _tokenId, _price) */\n      0x00\n      dup3\n      add\n      mload\n      dup2\n      0x00\n      add\n      exp(0x0100, 0x00)\n      dup2\n      sload\n      dup2\n      0xffffffffffffffffffffffffffffffffffffffff\n      mul\n      not\n      and\n      swap1\n      dup4\n      0xffffffffffffffffffffffffffffffffffffffff\n      and\n      mul\n      or\n      swap1\n      sstore\n      pop\n      0x20\n      dup3\n      add\n      mload\n      dup2\n      0x01\n      add\n      sstore\n      0x40\n      dup3\n      add\n      mload\n      dup2\n      0x02\n      add\n      sstore\n      swap1\n      pop\n      pop\n        /* \"contracts/ntf_market.sol\":3488:3489  1 */\n      0x01\n        /* \"contracts/ntf_market.sol\":3472:3478  orders */\n      0x02\n        /* \"contracts/ntf_market.sol\":3472:3485  orders.length */\n      dup1\n      sload\n      swap1\n      pop\n        /* \"contracts/ntf_market.sol\":3472:3489  orders.length - 1 */\n      tag_86\n      swap2\n      swap1\n      tag_87\n      jump\t// in\n    tag_86:\n        /* \"contracts/ntf_market.sol\":3445:3459  idToOrderIndex */\n      0x04\n        /* \"contracts/ntf_market.sol\":3445:3469  idToOrderIndex[_tokenId] */\n      0x00\n        /* \"contracts/ntf_market.sol\":3460:3468  _tokenId */\n      dup8\n        /* \"contracts/ntf_market.sol\":3445:3469  idToOrderIndex[_tokenId] */\n      dup2\n      mstore\n      0x20\n      add\n      swap1\n      dup2\n      mstore\n      0x20\n      add\n      0x00\n      keccak256\n        /* \"contracts/ntf_market.sol\":3445:3489  idToOrderIndex[_tokenId] = orders.length - 1 */\n      dup2\n      swap1\n      sstore\n      pop\n        /* \"contracts/ntf_market.sol\":3516:3523  _seller */\n      dup6\n        /* \"contracts/ntf_market.sol\":3507:3542  NewOrder(_seller, _tokenId, _price) */\n      0xffffffffffffffffffffffffffffffffffffffff\n      and\n      0xd5b509e657d5ec37ae4bdcab658b7340c0453bb630516d26623359a34c1cecf3\n        /* \"contracts/ntf_market.sol\":3525:3533  _tokenId */\n      dup7\n        /* \"contracts/ntf_market.sol\":3535:3541  _price */\n      dup4\n        /* \"contracts/ntf_market.sol\":3507:3542  NewOrder(_seller, _tokenId, _price) */\n      mload(0x40)\n      tag_88\n      swap3\n      swap2\n      swap1\n      tag_89\n      jump\t// in\n    tag_88:\n      mload(0x40)\n      dup1\n      swap2\n      sub\n      swap1\n      log2\n        /* \"contracts/ntf_market.sol\":373:383  0x150b7a02 */\n      0x150b7a02\n        /* \"contracts/ntf_market.sol\":3562:3586  MAGIC_ON_ERC721_RECEIVED */\n      0xe0\n      shl\n        /* \"contracts/ntf_market.sol\":3555:3586  return MAGIC_ON_ERC721_RECEIVED */\n      swap2\n      pop\n      pop\n        /* \"contracts/ntf_market.sol\":2883:3594  function onERC721Received(... */\n      swap6\n      swap5\n      pop\n      pop\n      pop\n      pop\n      pop\n      jump\t// out\n        /* \"contracts/ntf_market.sol\":526:568  mapping(uint256 => Order) public OrderOfId */\n    tag_27:\n      mstore(0x20, 0x03)\n      dup1\n      0x00\n      mstore\n      keccak256(0x00, 0x40)\n      0x00\n      swap2\n      pop\n      swap1\n      pop\n      dup1\n      0x00\n      add\n      0x00\n      swap1\n      sload\n      swap1\n      0x0100\n      exp\n      swap1\n      div\n      0xffffffffffffffffffffffffffffffffffffffff\n      and\n      swap1\n      dup1\n      0x01\n      add\n      sload\n      swap1\n      dup1\n      0x02\n      add\n      sload\n      swap1\n      pop\n      dup4\n      jump\t// out\n        /* \"contracts/ntf_market.sol\":1886:2309  function cancelOrder(uint256 _tokenId) external {... */\n    tag_32:\n        /* \"contracts/ntf_market.sol\":1953:1971  isListed(_tokenId) */\n      tag_91\n        /* \"contracts/ntf_market.sol\":1962:1970  _tokenId */\n      dup2\n        /* \"contracts/ntf_market.sol\":1953:1961  isListed */\n      tag_69\n        /* \"contracts/ntf_market.sol\":1953:1971  isListed(_tokenId) */\n      jump\t// in\n    tag_91:\n        /* \"contracts/ntf_market.sol\":1945:2006  require(isListed(_tokenId), \"Market: Token ID is not listed\") */\n      tag_92\n      jumpi\n      mload(0x40)\n      0x08c379a000000000000000000000000000000000000000000000000000000000\n      dup2\n      mstore\n      0x04\n      add\n      tag_93\n      swap1\n      tag_94\n      jump\t// in\n    tag_93:\n      mload(0x40)\n      dup1\n      swap2\n      sub\n      swap1\n      revert\n    tag_92:\n        /* \"contracts/ntf_market.sol\":2053:2062  OrderOfId */\n      0x03\n        /* \"contracts/ntf_market.sol\":2053:2072  OrderOfId[_tokenId] */\n      0x00\n        /* \"contracts/ntf_market.sol\":2063:2071  _tokenId */\n      dup3\n        /* \"contracts/ntf_market.sol\":2053:2072  OrderOfId[_tokenId] */\n      dup2\n      mstore\n      0x20\n      add\n      swap1\n      dup2\n      mstore\n      0x20\n      add\n      0x00\n      keccak256\n        /* \"contracts/ntf_market.sol\":2053:2079  OrderOfId[_tokenId].seller */\n      0x00\n      add\n      0x00\n      swap1\n      sload\n      swap1\n      0x0100\n      exp\n      swap1\n      div\n      0xffffffffffffffffffffffffffffffffffffffff\n      and\n        /* \"contracts/ntf_market.sol\":2039:2079  msg.sender == OrderOfId[_tokenId].seller */\n      0xffffffffffffffffffffffffffffffffffffffff\n      and\n        /* \"contracts/ntf_market.sol\":2039:2049  msg.sender */\n      caller\n        /* \"contracts/ntf_market.sol\":2039:2079  msg.sender == OrderOfId[_tokenId].seller */\n      0xffffffffffffffffffffffffffffffffffffffff\n      and\n      eq\n        /* \"contracts/ntf_market.sol\":2017:2143  require(... */\n      tag_95\n      jumpi\n      mload(0x40)\n      0x08c379a000000000000000000000000000000000000000000000000000000000\n      dup2\n      mstore\n      0x04\n      add\n      tag_96\n      swap1\n      tag_97\n      jump\t// in\n    tag_96:\n      mload(0x40)\n      dup1\n      swap2\n      sub\n      swap1\n      revert\n    tag_95:\n        /* \"contracts/ntf_market.sol\":2156:2162  erc721 */\n      0x01\n      0x00\n      swap1\n      sload\n      swap1\n      0x0100\n      exp\n      swap1\n      div\n      0xffffffffffffffffffffffffffffffffffffffff\n      and\n        /* \"contracts/ntf_market.sol\":2156:2179  erc721.safeTransferFrom */\n      0xffffffffffffffffffffffffffffffffffffffff\n      and\n      0x42842e0e\n        /* \"contracts/ntf_market.sol\":2188:2192  this */\n      address\n        /* \"contracts/ntf_market.sol\":2195:2205  msg.sender */\n      caller\n        /* \"contracts/ntf_market.sol\":2207:2215  _tokenId */\n      dup5\n        /* \"contracts/ntf_market.sol\":2156:2216  erc721.safeTransferFrom(address(this), msg.sender, _tokenId) */\n      mload(0x40)\n      dup5\n      0xffffffff\n      and\n      0xe0\n      shl\n      dup2\n      mstore\n      0x04\n      add\n      tag_98\n      swap4\n      swap3\n      swap2\n      swap1\n      tag_99\n      jump\t// in\n    tag_98:\n      0x00\n      mload(0x40)\n      dup1\n      dup4\n      sub\n      dup2\n      0x00\n      dup8\n      dup1\n      extcodesize\n      iszero\n      dup1\n      iszero\n      tag_100\n      jumpi\n      0x00\n      dup1\n      revert\n    tag_100:\n      pop\n      gas\n      call\n      iszero\n      dup1\n      iszero\n      tag_102\n      jumpi\n      returndatasize\n      0x00\n      dup1\n      returndatacopy\n      revert(0x00, returndatasize)\n    tag_102:\n      pop\n      pop\n      pop\n      pop\n        /* \"contracts/ntf_market.sol\":2229:2252  removeListing(_tokenId) */\n      tag_103\n        /* \"contracts/ntf_market.sol\":2243:2251  _tokenId */\n      dup2\n        /* \"contracts/ntf_market.sol\":2229:2242  removeListing */\n      tag_104\n        /* \"contracts/ntf_market.sol\":2229:2252  removeListing(_tokenId) */\n      jump\t// in\n    tag_103:\n        /* \"contracts/ntf_market.sol\":2280:2290  msg.sender */\n      caller\n        /* \"contracts/ntf_market.sol\":2268:2301  CancelOrder(msg.sender, _tokenId) */\n      0xffffffffffffffffffffffffffffffffffffffff\n      and\n      0xc0e68d6b69f741c21e955cad2ae4d505b6f6735c7e7b278251b3f6283a5f07eb\n        /* \"contracts/ntf_market.sol\":2292:2300  _tokenId */\n      dup3\n        /* \"contracts/ntf_market.sol\":2268:2301  CancelOrder(msg.sender, _tokenId) */\n      mload(0x40)\n      tag_105\n      swap2\n      swap1\n      tag_44\n      jump\t// in\n    tag_105:\n      mload(0x40)\n      dup1\n      swap2\n      sub\n      swap1\n      log2\n        /* \"contracts/ntf_market.sol\":1886:2309  function cancelOrder(uint256 _tokenId) external {... */\n      pop\n      jump\t// out\n        /* \"contracts/ntf_market.sol\":4490:4900  function getMyNFTs() external view returns (Order[] memory) {... */\n    tag_34:\n        /* \"contracts/ntf_market.sol\":4534:4548  Order[] memory */\n      0x60\n        /* \"contracts/ntf_market.sol\":4561:4584  Order[] memory myOrders */\n      0x00\n        /* \"contracts/ntf_market.sol\":4599:4605  orders */\n      0x02\n        /* \"contracts/ntf_market.sol\":4599:4612  orders.length */\n      dup1\n      sload\n      swap1\n      pop\n        /* \"contracts/ntf_market.sol\":4587:4613  new Order[](orders.length) */\n      0xffffffffffffffff\n      dup2\n      gt\n      iszero\n      tag_107\n      jumpi\n      tag_108\n      tag_109\n      jump\t// in\n    tag_108:\n    tag_107:\n      mload(0x40)\n      swap1\n      dup1\n      dup3\n      mstore\n      dup1\n      0x20\n      mul\n      0x20\n      add\n      dup3\n      add\n      0x40\n      mstore\n      dup1\n      iszero\n      tag_110\n      jumpi\n      dup2\n      0x20\n      add\n    tag_111:\n      tag_112\n      tag_113\n      jump\t// in\n    tag_112:\n      dup2\n      mstore\n      0x20\n      add\n      swap1\n      0x01\n      swap1\n      sub\n      swap1\n      dup2\n      tag_111\n      jumpi\n      swap1\n      pop\n    tag_110:\n      pop\n        /* \"contracts/ntf_market.sol\":4561:4613  Order[] memory myOrders = new Order[](orders.length) */\n      swap1\n      pop\n        /* \"contracts/ntf_market.sol\":4624:4644  uint256 myOrderIndex */\n      0x00\n        /* \"contracts/ntf_market.sol\":4664:4673  uint256 i */\n      dup1\n        /* \"contracts/ntf_market.sol\":4659:4867  for (uint256 i = 0; i < orders.length; i++) {... */\n    tag_114:\n        /* \"contracts/ntf_market.sol\":4683:4689  orders */\n      0x02\n        /* \"contracts/ntf_market.sol\":4683:4696  orders.length */\n      dup1\n      sload\n      swap1\n      pop\n        /* \"contracts/ntf_market.sol\":4679:4680  i */\n      dup2\n        /* \"contracts/ntf_market.sol\":4679:4696  i < orders.length */\n      lt\n        /* \"contracts/ntf_market.sol\":4659:4867  for (uint256 i = 0; i < orders.length; i++) {... */\n      iszero\n      tag_115\n      jumpi\n        /* \"contracts/ntf_market.sol\":4742:4752  msg.sender */\n      caller\n        /* \"contracts/ntf_market.sol\":4722:4752  orders[i].seller == msg.sender */\n      0xffffffffffffffffffffffffffffffffffffffff\n      and\n        /* \"contracts/ntf_market.sol\":4722:4728  orders */\n      0x02\n        /* \"contracts/ntf_market.sol\":4729:4730  i */\n      dup3\n        /* \"contracts/ntf_market.sol\":4722:4731  orders[i] */\n      dup2\n      sload\n      dup2\n      lt\n      tag_117\n      jumpi\n      tag_118\n      tag_119\n      jump\t// in\n    tag_118:\n    tag_117:\n      swap1\n      0x00\n      mstore\n      keccak256(0x00, 0x20)\n      swap1\n      0x03\n      mul\n      add\n        /* \"contracts/ntf_market.sol\":4722:4738  orders[i].seller */\n      0x00\n      add\n      0x00\n      swap1\n      sload\n      swap1\n      0x0100\n      exp\n      swap1\n      div\n      0xffffffffffffffffffffffffffffffffffffffff\n      and\n        /* \"contracts/ntf_market.sol\":4722:4752  orders[i].seller == msg.sender */\n      0xffffffffffffffffffffffffffffffffffffffff\n      and\n      sub\n        /* \"contracts/ntf_market.sol\":4718:4856  if (orders[i].seller == msg.sender) {... */\n      tag_121\n      jumpi\n        /* \"contracts/ntf_market.sol\":4798:4804  orders */\n      0x02\n        /* \"contracts/ntf_market.sol\":4805:4806  i */\n      dup2\n        /* \"contracts/ntf_market.sol\":4798:4807  orders[i] */\n      dup2\n      sload\n      dup2\n      lt\n      tag_122\n      jumpi\n      tag_123\n      tag_119\n      jump\t// in\n    tag_123:\n    tag_122:\n      swap1\n      0x00\n      mstore\n      keccak256(0x00, 0x20)\n      swap1\n      0x03\n      mul\n      add\n        /* \"contracts/ntf_market.sol\":4773:4807  myOrders[myOrderIndex] = orders[i] */\n      mload(0x40)\n      dup1\n      0x60\n      add\n      0x40\n      mstore\n      swap1\n      dup2\n      0x00\n      dup3\n      add\n      0x00\n      swap1\n      sload\n      swap1\n      0x0100\n      exp\n      swap1\n      div\n      0xffffffffffffffffffffffffffffffffffffffff\n      and\n      0xffffffffffffffffffffffffffffffffffffffff\n      and\n      0xffffffffffffffffffffffffffffffffffffffff\n      and\n      dup2\n      mstore\n      0x20\n      add\n      0x01\n      dup3\n      add\n      sload\n      dup2\n      mstore\n      0x20\n      add\n      0x02\n      dup3\n      add\n      sload\n      dup2\n      mstore\n      pop\n      pop\n        /* \"contracts/ntf_market.sol\":4773:4781  myOrders */\n      dup4\n        /* \"contracts/ntf_market.sol\":4782:4794  myOrderIndex */\n      dup4\n        /* \"contracts/ntf_market.sol\":4773:4795  myOrders[myOrderIndex] */\n      dup2\n      mload\n      dup2\n      lt\n      tag_125\n      jumpi\n      tag_126\n      tag_119\n      jump\t// in\n    tag_126:\n    tag_125:\n      0x20\n      mul\n      0x20\n      add\n      add\n        /* \"contracts/ntf_market.sol\":4773:4807  myOrders[myOrderIndex] = orders[i] */\n      dup2\n      swap1\n      mstore\n      pop\n        /* \"contracts/ntf_market.sol\":4826:4840  myOrderIndex++ */\n      dup2\n      dup1\n      tag_127\n      swap1\n      tag_128\n      jump\t// in\n    tag_127:\n      swap3\n      pop\n      pop\n        /* \"contracts/ntf_market.sol\":4718:4856  if (orders[i].seller == msg.sender) {... */\n    tag_121:\n        /* \"contracts/ntf_market.sol\":4698:4701  i++ */\n      dup1\n      dup1\n      0x01\n      add\n      swap2\n      pop\n      pop\n        /* \"contracts/ntf_market.sol\":4659:4867  for (uint256 i = 0; i < orders.length; i++) {... */\n      jump(tag_114)\n    tag_115:\n      pop\n        /* \"contracts/ntf_market.sol\":4884:4892  myOrders */\n      dup2\n        /* \"contracts/ntf_market.sol\":4877:4892  return myOrders */\n      swap3\n      pop\n      pop\n      pop\n        /* \"contracts/ntf_market.sol\":4490:4900  function getMyNFTs() external view returns (Order[] memory) {... */\n      swap1\n      jump\t// out\n        /* \"contracts/ntf_market.sol\":274:293  IERC20 public erc20 */\n    tag_38:\n      0x00\n      dup1\n      sload\n      swap1\n      0x0100\n      exp\n      swap1\n      div\n      0xffffffffffffffffffffffffffffffffffffffff\n      and\n      dup2\n      jump\t// out\n        /* \"contracts/ntf_market.sol\":4286:4381  function getOrderLength() public view returns (uint256) {... */\n    tag_42:\n        /* \"contracts/ntf_market.sol\":4333:4340  uint256 */\n      0x00\n        /* \"contracts/ntf_market.sol\":4360:4366  orders */\n      0x02\n        /* \"contracts/ntf_market.sol\":4360:4373  orders.length */\n      dup1\n      sload\n      swap1\n      pop\n        /* \"contracts/ntf_market.sol\":4353:4373  return orders.length */\n      swap1\n      pop\n        /* \"contracts/ntf_market.sol\":4286:4381  function getOrderLength() public view returns (uint256) {... */\n      swap1\n      jump\t// out\n        /* \"contracts/ntf_market.sol\":496:517  Order[] public orders */\n    tag_47:\n      0x02\n      dup2\n      dup2\n      sload\n      dup2\n      lt\n      tag_130\n      jumpi\n      0x00\n      dup1\n      revert\n    tag_130:\n      swap1\n      0x00\n      mstore\n      keccak256(0x00, 0x20)\n      swap1\n      0x03\n      mul\n      add\n      0x00\n      swap2\n      pop\n      swap1\n      pop\n      dup1\n      0x00\n      add\n      0x00\n      swap1\n      sload\n      swap1\n      0x0100\n      exp\n      swap1\n      div\n      0xffffffffffffffffffffffffffffffffffffffff\n      and\n      swap1\n      dup1\n      0x01\n      add\n      sload\n      swap1\n      dup1\n      0x02\n      add\n      sload\n      swap1\n      pop\n      dup4\n      jump\t// out\n        /* \"contracts/ntf_market.sol\":2317:2875  function changePrice(uint256 _tokenId, uint256 _price) external {... */\n    tag_52:\n        /* \"contracts/ntf_market.sol\":2400:2418  isListed(_tokenId) */\n      tag_133\n        /* \"contracts/ntf_market.sol\":2409:2417  _tokenId */\n      dup3\n        /* \"contracts/ntf_market.sol\":2400:2408  isListed */\n      tag_69\n        /* \"contracts/ntf_market.sol\":2400:2418  isListed(_tokenId) */\n      jump\t// in\n    tag_133:\n        /* \"contracts/ntf_market.sol\":2392:2453  require(isListed(_tokenId), \"Market: Token ID is not listed\") */\n      tag_134\n      jumpi\n      mload(0x40)\n      0x08c379a000000000000000000000000000000000000000000000000000000000\n      dup2\n      mstore\n      0x04\n      add\n      tag_135\n      swap1\n      tag_94\n      jump\t// in\n    tag_135:\n      mload(0x40)\n      dup1\n      swap2\n      sub\n      swap1\n      revert\n    tag_134:\n        /* \"contracts/ntf_market.sol\":2500:2509  OrderOfId */\n      0x03\n        /* \"contracts/ntf_market.sol\":2500:2519  OrderOfId[_tokenId] */\n      0x00\n        /* \"contracts/ntf_market.sol\":2510:2518  _tokenId */\n      dup4\n        /* \"contracts/ntf_market.sol\":2500:2519  OrderOfId[_tokenId] */\n      dup2\n      mstore\n      0x20\n      add\n      swap1\n      dup2\n      mstore\n      0x20\n      add\n      0x00\n      keccak256\n        /* \"contracts/ntf_market.sol\":2500:2526  OrderOfId[_tokenId].seller */\n      0x00\n      add\n      0x00\n      swap1\n      sload\n      swap1\n      0x0100\n      exp\n      swap1\n      div\n      0xffffffffffffffffffffffffffffffffffffffff\n      and\n        /* \"contracts/ntf_market.sol\":2486:2526  msg.sender == OrderOfId[_tokenId].seller */\n      0xffffffffffffffffffffffffffffffffffffffff\n      and\n        /* \"contracts/ntf_market.sol\":2486:2496  msg.sender */\n      caller\n        /* \"contracts/ntf_market.sol\":2486:2526  msg.sender == OrderOfId[_tokenId].seller */\n      0xffffffffffffffffffffffffffffffffffffffff\n      and\n      eq\n        /* \"contracts/ntf_market.sol\":2464:2590  require(... */\n      tag_136\n      jumpi\n      mload(0x40)\n      0x08c379a000000000000000000000000000000000000000000000000000000000\n      dup2\n      mstore\n      0x04\n      add\n      tag_137\n      swap1\n      tag_138\n      jump\t// in\n    tag_137:\n      mload(0x40)\n      dup1\n      swap2\n      sub\n      swap1\n      revert\n    tag_136:\n        /* \"contracts/ntf_market.sol\":2603:2624  uint256 previousPrice */\n      0x00\n        /* \"contracts/ntf_market.sol\":2627:2636  OrderOfId */\n      0x03\n        /* \"contracts/ntf_market.sol\":2627:2646  OrderOfId[_tokenId] */\n      0x00\n        /* \"contracts/ntf_market.sol\":2637:2645  _tokenId */\n      dup5\n        /* \"contracts/ntf_market.sol\":2627:2646  OrderOfId[_tokenId] */\n      dup2\n      mstore\n      0x20\n      add\n      swap1\n      dup2\n      mstore\n      0x20\n      add\n      0x00\n      keccak256\n        /* \"contracts/ntf_market.sol\":2627:2652  OrderOfId[_tokenId].price */\n      0x02\n      add\n      sload\n        /* \"contracts/ntf_market.sol\":2603:2652  uint256 previousPrice = OrderOfId[_tokenId].price */\n      swap1\n      pop\n        /* \"contracts/ntf_market.sol\":2691:2697  _price */\n      dup2\n        /* \"contracts/ntf_market.sol\":2663:2672  OrderOfId */\n      0x03\n        /* \"contracts/ntf_market.sol\":2663:2682  OrderOfId[_tokenId] */\n      0x00\n        /* \"contracts/ntf_market.sol\":2673:2681  _tokenId */\n      dup6\n        /* \"contracts/ntf_market.sol\":2663:2682  OrderOfId[_tokenId] */\n      dup2\n      mstore\n      0x20\n      add\n      swap1\n      dup2\n      mstore\n      0x20\n      add\n      0x00\n      keccak256\n        /* \"contracts/ntf_market.sol\":2663:2688  OrderOfId[_tokenId].price */\n      0x02\n      add\n        /* \"contracts/ntf_market.sol\":2663:2697  OrderOfId[_tokenId].price = _price */\n      dup2\n      swap1\n      sstore\n      pop\n        /* \"contracts/ntf_market.sol\":2708:2727  Order storage order */\n      0x00\n        /* \"contracts/ntf_market.sol\":2730:2736  orders */\n      0x02\n        /* \"contracts/ntf_market.sol\":2737:2751  idToOrderIndex */\n      0x04\n        /* \"contracts/ntf_market.sol\":2737:2761  idToOrderIndex[_tokenId] */\n      0x00\n        /* \"contracts/ntf_market.sol\":2752:2760  _tokenId */\n      dup7\n        /* \"contracts/ntf_market.sol\":2737:2761  idToOrderIndex[_tokenId] */\n      dup2\n      mstore\n      0x20\n      add\n      swap1\n      dup2\n      mstore\n      0x20\n      add\n      0x00\n      keccak256\n      sload\n        /* \"contracts/ntf_market.sol\":2730:2762  orders[idToOrderIndex[_tokenId]] */\n      dup2\n      sload\n      dup2\n      lt\n      tag_139\n      jumpi\n      tag_140\n      tag_119\n      jump\t// in\n    tag_140:\n    tag_139:\n      swap1\n      0x00\n      mstore\n      keccak256(0x00, 0x20)\n      swap1\n      0x03\n      mul\n      add\n        /* \"contracts/ntf_market.sol\":2708:2762  Order storage order = orders[idToOrderIndex[_tokenId]] */\n      swap1\n      pop\n        /* \"contracts/ntf_market.sol\":2787:2793  _price */\n      dup3\n        /* \"contracts/ntf_market.sol\":2773:2778  order */\n      dup2\n        /* \"contracts/ntf_market.sol\":2773:2784  order.price */\n      0x02\n      add\n        /* \"contracts/ntf_market.sol\":2773:2793  order.price = _price */\n      dup2\n      swap1\n      sstore\n      pop\n        /* \"contracts/ntf_market.sol\":2823:2833  msg.sender */\n      caller\n        /* \"contracts/ntf_market.sol\":2811:2867  ChangePrice(msg.sender, _tokenId, previousPrice, _price) */\n      0xffffffffffffffffffffffffffffffffffffffff\n      and\n      0x342a7f6248980b0f191b96eb6b7a439c4da78b2c97b86ca66cc7ee90d4b04cce\n        /* \"contracts/ntf_market.sol\":2835:2843  _tokenId */\n      dup6\n        /* \"contracts/ntf_market.sol\":2845:2858  previousPrice */\n      dup5\n        /* \"contracts/ntf_market.sol\":2860:2866  _price */\n      dup7\n        /* \"contracts/ntf_market.sol\":2811:2867  ChangePrice(msg.sender, _tokenId, previousPrice, _price) */\n      mload(0x40)\n      tag_142\n      swap4\n      swap3\n      swap2\n      swap1\n      tag_143\n      jump\t// in\n    tag_142:\n      mload(0x40)\n      dup1\n      swap2\n      sub\n      swap1\n      log2\n        /* \"contracts/ntf_market.sol\":2381:2875  {... */\n      pop\n      pop\n        /* \"contracts/ntf_market.sol\":2317:2875  function changePrice(uint256 _tokenId, uint256 _price) external {... */\n      pop\n      pop\n      jump\t// out\n        /* \"contracts/ntf_market.sol\":300:321  IERC721 public erc721 */\n    tag_54:\n      0x01\n      0x00\n      swap1\n      sload\n      swap1\n      0x0100\n      exp\n      swap1\n      div\n      0xffffffffffffffffffffffffffffffffffffffff\n      and\n      dup2\n      jump\t// out\n        /* \"contracts/ntf_market.sol\":1250:1878  function buy(uint256 _tokenId, uint256 _price) external {... */\n    tag_59:\n        /* \"contracts/ntf_market.sol\":1325:1343  isListed(_tokenId) */\n      tag_145\n        /* \"contracts/ntf_market.sol\":1334:1342  _tokenId */\n      dup3\n        /* \"contracts/ntf_market.sol\":1325:1333  isListed */\n      tag_69\n        /* \"contracts/ntf_market.sol\":1325:1343  isListed(_tokenId) */\n      jump\t// in\n    tag_145:\n        /* \"contracts/ntf_market.sol\":1317:1378  require(isListed(_tokenId), \"Market: Token ID is not listed\") */\n      tag_146\n      jumpi\n      mload(0x40)\n      0x08c379a000000000000000000000000000000000000000000000000000000000\n      dup2\n      mstore\n      0x04\n      add\n      tag_147\n      swap1\n      tag_94\n      jump\t// in\n    tag_147:\n      mload(0x40)\n      dup1\n      swap2\n      sub\n      swap1\n      revert\n    tag_146:\n        /* \"contracts/ntf_market.sol\":1391:1405  address seller */\n      0x00\n        /* \"contracts/ntf_market.sol\":1408:1417  OrderOfId */\n      0x03\n        /* \"contracts/ntf_market.sol\":1408:1427  OrderOfId[_tokenId] */\n      0x00\n        /* \"contracts/ntf_market.sol\":1418:1426  _tokenId */\n      dup5\n        /* \"contracts/ntf_market.sol\":1408:1427  OrderOfId[_tokenId] */\n      dup2\n      mstore\n      0x20\n      add\n      swap1\n      dup2\n      mstore\n      0x20\n      add\n      0x00\n      keccak256\n        /* \"contracts/ntf_market.sol\":1408:1434  OrderOfId[_tokenId].seller */\n      0x00\n      add\n      0x00\n      swap1\n      sload\n      swap1\n      0x0100\n      exp\n      swap1\n      div\n      0xffffffffffffffffffffffffffffffffffffffff\n      and\n        /* \"contracts/ntf_market.sol\":1391:1434  address seller = OrderOfId[_tokenId].seller */\n      swap1\n      pop\n        /* \"contracts/ntf_market.sol\":1445:1458  address buyer */\n      0x00\n        /* \"contracts/ntf_market.sol\":1461:1471  msg.sender */\n      caller\n        /* \"contracts/ntf_market.sol\":1445:1471  address buyer = msg.sender */\n      swap1\n      pop\n        /* \"contracts/ntf_market.sol\":1482:1495  uint256 price */\n      0x00\n        /* \"contracts/ntf_market.sol\":1498:1507  OrderOfId */\n      0x03\n        /* \"contracts/ntf_market.sol\":1498:1517  OrderOfId[_tokenId] */\n      0x00\n        /* \"contracts/ntf_market.sol\":1508:1516  _tokenId */\n      dup7\n        /* \"contracts/ntf_market.sol\":1498:1517  OrderOfId[_tokenId] */\n      dup2\n      mstore\n      0x20\n      add\n      swap1\n      dup2\n      mstore\n      0x20\n      add\n      0x00\n      keccak256\n        /* \"contracts/ntf_market.sol\":1498:1523  OrderOfId[_tokenId].price */\n      0x02\n      add\n      sload\n        /* \"contracts/ntf_market.sol\":1482:1523  uint256 price = OrderOfId[_tokenId].price */\n      swap1\n      pop\n        /* \"contracts/ntf_market.sol\":1553:1559  _price */\n      dup4\n        /* \"contracts/ntf_market.sol\":1544:1549  price */\n      dup2\n        /* \"contracts/ntf_market.sol\":1544:1559  price == _price */\n      eq\n        /* \"contracts/ntf_market.sol\":1536:1591  require(price == _price, \"Market: Price is not ehough\") */\n      tag_148\n      jumpi\n      mload(0x40)\n      0x08c379a000000000000000000000000000000000000000000000000000000000\n      dup2\n      mstore\n      0x04\n      add\n      tag_149\n      swap1\n      tag_150\n      jump\t// in\n    tag_149:\n      mload(0x40)\n      dup1\n      swap2\n      sub\n      swap1\n      revert\n    tag_148:\n        /* \"contracts/ntf_market.sol\":1624:1629  erc20 */\n      0x00\n      dup1\n      sload\n      swap1\n      0x0100\n      exp\n      swap1\n      div\n      0xffffffffffffffffffffffffffffffffffffffff\n      and\n        /* \"contracts/ntf_market.sol\":1624:1642  erc20.transferFrom */\n      0xffffffffffffffffffffffffffffffffffffffff\n      and\n      0x23b872dd\n        /* \"contracts/ntf_market.sol\":1643:1648  buyer */\n      dup4\n        /* \"contracts/ntf_market.sol\":1650:1656  seller */\n      dup6\n        /* \"contracts/ntf_market.sol\":1658:1663  price */\n      dup5\n        /* \"contracts/ntf_market.sol\":1624:1664  erc20.transferFrom(buyer, seller, price) */\n      mload(0x40)\n      dup5\n      0xffffffff\n      and\n      0xe0\n      shl\n      dup2\n      mstore\n      0x04\n      add\n      tag_151\n      swap4\n      swap3\n      swap2\n      swap1\n      tag_99\n      jump\t// in\n    tag_151:\n      0x20\n      mload(0x40)\n      dup1\n      dup4\n      sub\n      dup2\n      0x00\n      dup8\n      gas\n      call\n      iszero\n      dup1\n      iszero\n      tag_153\n      jumpi\n      returndatasize\n      0x00\n      dup1\n      returndatacopy\n      revert(0x00, returndatasize)\n    tag_153:\n      pop\n      pop\n      pop\n      pop\n      mload(0x40)\n      returndatasize\n      not(0x1f)\n      0x1f\n      dup3\n      add\n      and\n      dup3\n      add\n      dup1\n      0x40\n      mstore\n      pop\n      dup2\n      add\n      swap1\n      tag_154\n      swap2\n      swap1\n      tag_155\n      jump\t// in\n    tag_154:\n        /* \"contracts/ntf_market.sol\":1602:1715  require(... */\n      tag_156\n      jumpi\n      mload(0x40)\n      0x08c379a000000000000000000000000000000000000000000000000000000000\n      dup2\n      mstore\n      0x04\n      add\n      tag_157\n      swap1\n      tag_158\n      jump\t// in\n    tag_157:\n      mload(0x40)\n      dup1\n      swap2\n      sub\n      swap1\n      revert\n    tag_156:\n        /* \"contracts/ntf_market.sol\":1726:1732  erc721 */\n      0x01\n      0x00\n      swap1\n      sload\n      swap1\n      0x0100\n      exp\n      swap1\n      div\n      0xffffffffffffffffffffffffffffffffffffffff\n      and\n        /* \"contracts/ntf_market.sol\":1726:1749  erc721.safeTransferFrom */\n      0xffffffffffffffffffffffffffffffffffffffff\n      and\n      0x42842e0e\n        /* \"contracts/ntf_market.sol\":1758:1762  this */\n      address\n        /* \"contracts/ntf_market.sol\":1765:1770  buyer */\n      dup5\n        /* \"contracts/ntf_market.sol\":1772:1780  _tokenId */\n      dup9\n        /* \"contracts/ntf_market.sol\":1726:1781  erc721.safeTransferFrom(address(this), buyer, _tokenId) */\n      mload(0x40)\n      dup5\n      0xffffffff\n      and\n      0xe0\n      shl\n      dup2\n      mstore\n      0x04\n      add\n      tag_159\n      swap4\n      swap3\n      swap2\n      swap1\n      tag_99\n      jump\t// in\n    tag_159:\n      0x00\n      mload(0x40)\n      dup1\n      dup4\n      sub\n      dup2\n      0x00\n      dup8\n      dup1\n      extcodesize\n      iszero\n      dup1\n      iszero\n      tag_160\n      jumpi\n      0x00\n      dup1\n      revert\n    tag_160:\n      pop\n      gas\n      call\n      iszero\n      dup1\n      iszero\n      tag_162\n      jumpi\n      returndatasize\n      0x00\n      dup1\n      returndatacopy\n      revert(0x00, returndatasize)\n    tag_162:\n      pop\n      pop\n      pop\n      pop\n        /* \"contracts/ntf_market.sol\":1794:1817  removeListing(_tokenId) */\n      tag_163\n        /* \"contracts/ntf_market.sol\":1808:1816  _tokenId */\n      dup6\n        /* \"contracts/ntf_market.sol\":1794:1807  removeListing */\n      tag_104\n        /* \"contracts/ntf_market.sol\":1794:1817  removeListing(_tokenId) */\n      jump\t// in\n    tag_163:\n        /* \"contracts/ntf_market.sol\":1845:1851  seller */\n      dup3\n        /* \"contracts/ntf_market.sol\":1833:1870  Deal(buyer, seller, _tokenId, _price) */\n      0xffffffffffffffffffffffffffffffffffffffff\n      and\n        /* \"contracts/ntf_market.sol\":1838:1843  buyer */\n      dup3\n        /* \"contracts/ntf_market.sol\":1833:1870  Deal(buyer, seller, _tokenId, _price) */\n      0xffffffffffffffffffffffffffffffffffffffff\n      and\n      0x424d5e5f0192c7dacdbe646ca31b00299146d883d76a95ef5cddbac7cd342eab\n        /* \"contracts/ntf_market.sol\":1853:1861  _tokenId */\n      dup8\n        /* \"contracts/ntf_market.sol\":1863:1869  _price */\n      dup8\n        /* \"contracts/ntf_market.sol\":1833:1870  Deal(buyer, seller, _tokenId, _price) */\n      mload(0x40)\n      tag_164\n      swap3\n      swap2\n      swap1\n      tag_89\n      jump\t// in\n    tag_164:\n      mload(0x40)\n      dup1\n      swap2\n      sub\n      swap1\n      log3\n        /* \"contracts/ntf_market.sol\":1306:1878  {... */\n      pop\n      pop\n      pop\n        /* \"contracts/ntf_market.sol\":1250:1878  function buy(uint256 _tokenId, uint256 _price) external {... */\n      pop\n      pop\n      jump\t// out\n        /* \"contracts/ntf_market.sol\":575:624  mapping(uint256 => uint256) public idToOrderIndex */\n    tag_62:\n      mstore(0x20, 0x04)\n      dup1\n      0x00\n      mstore\n      keccak256(0x00, 0x40)\n      0x00\n      swap2\n      pop\n      swap1\n      pop\n      sload\n      dup2\n      jump\t// out\n        /* \"contracts/ntf_market.sol\":4389:4482  function getAllNFTs() external view returns (Order[] memory) {... */\n    tag_65:\n        /* \"contracts/ntf_market.sol\":4434:4448  Order[] memory */\n      0x60\n        /* \"contracts/ntf_market.sol\":4468:4474  orders */\n      0x02\n        /* \"contracts/ntf_market.sol\":4461:4474  return orders */\n      dup1\n      sload\n      dup1\n      0x20\n      mul\n      0x20\n      add\n      mload(0x40)\n      swap1\n      dup2\n      add\n      0x40\n      mstore\n      dup1\n      swap3\n      swap2\n      swap1\n      dup2\n      dup2\n      mstore\n      0x20\n      add\n      0x00\n      swap1\n    tag_166:\n      dup3\n      dup3\n      lt\n      iszero\n      tag_167\n      jumpi\n      dup4\n      dup3\n      swap1\n      0x00\n      mstore\n      keccak256(0x00, 0x20)\n      swap1\n      0x03\n      mul\n      add\n      mload(0x40)\n      dup1\n      0x60\n      add\n      0x40\n      mstore\n      swap1\n      dup2\n      0x00\n      dup3\n      add\n      0x00\n      swap1\n      sload\n      swap1\n      0x0100\n      exp\n      swap1\n      div\n      0xffffffffffffffffffffffffffffffffffffffff\n      and\n      0xffffffffffffffffffffffffffffffffffffffff\n      and\n      0xffffffffffffffffffffffffffffffffffffffff\n      and\n      dup2\n      mstore\n      0x20\n      add\n      0x01\n      dup3\n      add\n      sload\n      dup2\n      mstore\n      0x20\n      add\n      0x02\n      dup3\n      add\n      sload\n      dup2\n      mstore\n      pop\n      pop\n      dup2\n      mstore\n      0x20\n      add\n      swap1\n      0x01\n      add\n      swap1\n      jump(tag_166)\n    tag_167:\n      pop\n      pop\n      pop\n      pop\n      swap1\n      pop\n        /* \"contracts/ntf_market.sol\":4389:4482  function getAllNFTs() external view returns (Order[] memory) {... */\n      swap1\n      jump\t// out\n        /* \"contracts/ntf_market.sol\":3607:3736  function isListed(uint256 _tokenId) public view returns (bool) {... */\n    tag_69:\n        /* \"contracts/ntf_market.sol\":3664:3668  bool */\n      0x00\n        /* \"contracts/ntf_market.sol\":3726:3727  0 */\n      dup1\n        /* \"contracts/ntf_market.sol\":3688:3728  OrderOfId[_tokenId].seller != address(0) */\n      0xffffffffffffffffffffffffffffffffffffffff\n      and\n        /* \"contracts/ntf_market.sol\":3688:3697  OrderOfId */\n      0x03\n        /* \"contracts/ntf_market.sol\":3688:3707  OrderOfId[_tokenId] */\n      0x00\n        /* \"contracts/ntf_market.sol\":3698:3706  _tokenId */\n      dup5\n        /* \"contracts/ntf_market.sol\":3688:3707  OrderOfId[_tokenId] */\n      dup2\n      mstore\n      0x20\n      add\n      swap1\n      dup2\n      mstore\n      0x20\n      add\n      0x00\n      keccak256\n        /* \"contracts/ntf_market.sol\":3688:3714  OrderOfId[_tokenId].seller */\n      0x00\n      add\n      0x00\n      swap1\n      sload\n      swap1\n      0x0100\n      exp\n      swap1\n      div\n      0xffffffffffffffffffffffffffffffffffffffff\n      and\n        /* \"contracts/ntf_market.sol\":3688:3728  OrderOfId[_tokenId].seller != address(0) */\n      0xffffffffffffffffffffffffffffffffffffffff\n      and\n      eq\n      iszero\n        /* \"contracts/ntf_market.sol\":3681:3728  return OrderOfId[_tokenId].seller != address(0) */\n      swap1\n      pop\n        /* \"contracts/ntf_market.sol\":3607:3736  function isListed(uint256 _tokenId) public view returns (bool) {... */\n      swap2\n      swap1\n      pop\n      jump\t// out\n        /* \"contracts/ntf_market.sol\":4908:5311  function toUint256(bytes memory _bytes, uint256 _start) internal pure returns (uint256) {... */\n    tag_74:\n        /* \"contracts/ntf_market.sol\":4987:4994  uint256 */\n      0x00\n        /* \"contracts/ntf_market.sol\":5030:5036  _start */\n      dup2\n        /* \"contracts/ntf_market.sol\":5024:5026  32 */\n      0x20\n        /* \"contracts/ntf_market.sol\":5015:5021  _start */\n      dup4\n        /* \"contracts/ntf_market.sol\":5015:5026  _start + 32 */\n      tag_171\n      swap2\n      swap1\n      tag_172\n      jump\t// in\n    tag_171:\n        /* \"contracts/ntf_market.sol\":5015:5036  _start + 32 >= _start */\n      lt\n      iszero\n        /* \"contracts/ntf_market.sol\":5007:5068  require(_start + 32 >= _start, \"Market: toUint out of range\") */\n      tag_173\n      jumpi\n      mload(0x40)\n      0x08c379a000000000000000000000000000000000000000000000000000000000\n      dup2\n      mstore\n      0x04\n      add\n      tag_174\n      swap1\n      tag_175\n      jump\t// in\n    tag_174:\n      mload(0x40)\n      dup1\n      swap2\n      sub\n      swap1\n      revert\n    tag_173:\n        /* \"contracts/ntf_market.sol\":5114:5116  32 */\n      0x20\n        /* \"contracts/ntf_market.sol\":5105:5111  _start */\n      dup3\n        /* \"contracts/ntf_market.sol\":5105:5116  _start + 32 */\n      tag_176\n      swap2\n      swap1\n      tag_172\n      jump\t// in\n    tag_176:\n        /* \"contracts/ntf_market.sol\":5087:5093  _bytes */\n      dup4\n        /* \"contracts/ntf_market.sol\":5087:5100  _bytes.length */\n      mload\n        /* \"contracts/ntf_market.sol\":5087:5117  _bytes.length >= (_start + 32) */\n      lt\n      iszero\n        /* \"contracts/ntf_market.sol\":5079:5152  require(_bytes.length >= (_start + 32), \"Market: toUint256 out of range\") */\n      tag_177\n      jumpi\n      mload(0x40)\n      0x08c379a000000000000000000000000000000000000000000000000000000000\n      dup2\n      mstore\n      0x04\n      add\n      tag_178\n      swap1\n      tag_179\n      jump\t// in\n    tag_178:\n      mload(0x40)\n      dup1\n      swap2\n      sub\n      swap1\n      revert\n    tag_177:\n        /* \"contracts/ntf_market.sol\":5163:5179  uint256 tempUint */\n      0x00\n        /* \"contracts/ntf_market.sol\":5257:5263  _start */\n      dup3\n        /* \"contracts/ntf_market.sol\":5250:5254  0x20 */\n      0x20\n        /* \"contracts/ntf_market.sol\":5242:5248  _bytes */\n      dup6\n        /* \"contracts/ntf_market.sol\":5238:5255  add(_bytes, 0x20) */\n      add\n        /* \"contracts/ntf_market.sol\":5234:5264  add(add(_bytes, 0x20), _start) */\n      add\n        /* \"contracts/ntf_market.sol\":5228:5265  mload(add(add(_bytes, 0x20), _start)) */\n      mload\n        /* \"contracts/ntf_market.sol\":5216:5265  tempUint := mload(add(add(_bytes, 0x20), _start)) */\n      swap1\n      pop\n        /* \"contracts/ntf_market.sol\":5295:5303  tempUint */\n      dup1\n        /* \"contracts/ntf_market.sol\":5288:5303  return tempUint */\n      swap2\n      pop\n      pop\n        /* \"contracts/ntf_market.sol\":4908:5311  function toUint256(bytes memory _bytes, uint256 _start) internal pure returns (uint256) {... */\n      swap3\n      swap2\n      pop\n      pop\n      jump\t// out\n        /* \"contracts/ntf_market.sol\":3744:4278  function removeListing(uint256 _tokenId) internal {... */\n    tag_104:\n        /* \"contracts/ntf_market.sol\":3805:3827  uint256 lastOrderIndex */\n      0x00\n        /* \"contracts/ntf_market.sol\":3846:3847  1 */\n      0x01\n        /* \"contracts/ntf_market.sol\":3830:3836  orders */\n      0x02\n        /* \"contracts/ntf_market.sol\":3830:3843  orders.length */\n      dup1\n      sload\n      swap1\n      pop\n        /* \"contracts/ntf_market.sol\":3830:3847  orders.length - 1 */\n      tag_181\n      swap2\n      swap1\n      tag_87\n      jump\t// in\n    tag_181:\n        /* \"contracts/ntf_market.sol\":3805:3847  uint256 lastOrderIndex = orders.length - 1 */\n      swap1\n      pop\n        /* \"contracts/ntf_market.sol\":3858:3883  uint256 removedOrderIndex */\n      0x00\n        /* \"contracts/ntf_market.sol\":3886:3900  idToOrderIndex */\n      0x04\n        /* \"contracts/ntf_market.sol\":3886:3910  idToOrderIndex[_tokenId] */\n      0x00\n        /* \"contracts/ntf_market.sol\":3901:3909  _tokenId */\n      dup5\n        /* \"contracts/ntf_market.sol\":3886:3910  idToOrderIndex[_tokenId] */\n      dup2\n      mstore\n      0x20\n      add\n      swap1\n      dup2\n      mstore\n      0x20\n      add\n      0x00\n      keccak256\n      sload\n        /* \"contracts/ntf_market.sol\":3858:3910  uint256 removedOrderIndex = idToOrderIndex[_tokenId] */\n      swap1\n      pop\n        /* \"contracts/ntf_market.sol\":3956:3970  lastOrderIndex */\n      dup2\n        /* \"contracts/ntf_market.sol\":3935:3952  removedOrderIndex */\n      dup2\n        /* \"contracts/ntf_market.sol\":3935:3970  removedOrderIndex != lastOrderIndex */\n      eq\n        /* \"contracts/ntf_market.sol\":3931:4167  if (removedOrderIndex != lastOrderIndex) {... */\n      tag_182\n      jumpi\n        /* \"contracts/ntf_market.sol\":3987:4010  Order storage lastOrder */\n      0x00\n        /* \"contracts/ntf_market.sol\":4013:4019  orders */\n      0x02\n        /* \"contracts/ntf_market.sol\":4020:4034  lastOrderIndex */\n      dup4\n        /* \"contracts/ntf_market.sol\":4013:4035  orders[lastOrderIndex] */\n      dup2\n      sload\n      dup2\n      lt\n      tag_183\n      jumpi\n      tag_184\n      tag_119\n      jump\t// in\n    tag_184:\n    tag_183:\n      swap1\n      0x00\n      mstore\n      keccak256(0x00, 0x20)\n      swap1\n      0x03\n      mul\n      add\n        /* \"contracts/ntf_market.sol\":3987:4035  Order storage lastOrder = orders[lastOrderIndex] */\n      swap1\n      pop\n        /* \"contracts/ntf_market.sol\":4078:4087  lastOrder */\n      dup1\n        /* \"contracts/ntf_market.sol\":4050:4056  orders */\n      0x02\n        /* \"contracts/ntf_market.sol\":4057:4074  removedOrderIndex */\n      dup4\n        /* \"contracts/ntf_market.sol\":4050:4075  orders[removedOrderIndex] */\n      dup2\n      sload\n      dup2\n      lt\n      tag_186\n      jumpi\n      tag_187\n      tag_119\n      jump\t// in\n    tag_187:\n    tag_186:\n      swap1\n      0x00\n      mstore\n      keccak256(0x00, 0x20)\n      swap1\n      0x03\n      mul\n      add\n        /* \"contracts/ntf_market.sol\":4050:4087  orders[removedOrderIndex] = lastOrder */\n      0x00\n      dup3\n      add\n      0x00\n      swap1\n      sload\n      swap1\n      0x0100\n      exp\n      swap1\n      div\n      0xffffffffffffffffffffffffffffffffffffffff\n      and\n      dup2\n      0x00\n      add\n      exp(0x0100, 0x00)\n      dup2\n      sload\n      dup2\n      0xffffffffffffffffffffffffffffffffffffffff\n      mul\n      not\n      and\n      swap1\n      dup4\n      0xffffffffffffffffffffffffffffffffffffffff\n      and\n      mul\n      or\n      swap1\n      sstore\n      pop\n      0x01\n      dup3\n      add\n      sload\n      dup2\n      0x01\n      add\n      sstore\n      0x02\n      dup3\n      add\n      sload\n      dup2\n      0x02\n      add\n      sstore\n      swap1\n      pop\n      pop\n        /* \"contracts/ntf_market.sol\":4138:4155  removedOrderIndex */\n      dup2\n        /* \"contracts/ntf_market.sol\":4102:4116  idToOrderIndex */\n      0x04\n        /* \"contracts/ntf_market.sol\":4102:4135  idToOrderIndex[lastOrder.tokenId] */\n      0x00\n        /* \"contracts/ntf_market.sol\":4117:4126  lastOrder */\n      dup4\n        /* \"contracts/ntf_market.sol\":4117:4134  lastOrder.tokenId */\n      0x01\n      add\n      sload\n        /* \"contracts/ntf_market.sol\":4102:4135  idToOrderIndex[lastOrder.tokenId] */\n      dup2\n      mstore\n      0x20\n      add\n      swap1\n      dup2\n      mstore\n      0x20\n      add\n      0x00\n      keccak256\n        /* \"contracts/ntf_market.sol\":4102:4155  idToOrderIndex[lastOrder.tokenId] = removedOrderIndex */\n      dup2\n      swap1\n      sstore\n      pop\n        /* \"contracts/ntf_market.sol\":3972:4167  {... */\n      pop\n        /* \"contracts/ntf_market.sol\":3931:4167  if (removedOrderIndex != lastOrderIndex) {... */\n    tag_182:\n        /* \"contracts/ntf_market.sol\":4177:4183  orders */\n      0x02\n        /* \"contracts/ntf_market.sol\":4177:4189  orders.pop() */\n      dup1\n      sload\n      dup1\n      tag_189\n      jumpi\n      tag_190\n      tag_191\n      jump\t// in\n    tag_190:\n    tag_189:\n      0x01\n      swap1\n      sub\n      dup2\n      dup2\n      swap1\n      0x00\n      mstore\n      keccak256(0x00, 0x20)\n      swap1\n      0x03\n      mul\n      add\n      0x00\n      dup1\n      dup3\n      add\n      exp(0x0100, 0x00)\n      dup2\n      sload\n      swap1\n      0xffffffffffffffffffffffffffffffffffffffff\n      mul\n      not\n      and\n      swap1\n      sstore\n      0x01\n      dup3\n      add\n      0x00\n      swap1\n      sstore\n      0x02\n      dup3\n      add\n      0x00\n      swap1\n      sstore\n      pop\n      pop\n      swap1\n      sstore\n        /* \"contracts/ntf_market.sol\":4209:4218  OrderOfId */\n      0x03\n        /* \"contracts/ntf_market.sol\":4209:4228  OrderOfId[_tokenId] */\n      0x00\n        /* \"contracts/ntf_market.sol\":4219:4227  _tokenId */\n      dup5\n        /* \"contracts/ntf_market.sol\":4209:4228  OrderOfId[_tokenId] */\n      dup2\n      mstore\n      0x20\n      add\n      swap1\n      dup2\n      mstore\n      0x20\n      add\n      0x00\n      keccak256\n      0x00\n        /* \"contracts/ntf_market.sol\":4202:4228  delete OrderOfId[_tokenId] */\n      dup1\n      dup3\n      add\n      exp(0x0100, 0x00)\n      dup2\n      sload\n      swap1\n      0xffffffffffffffffffffffffffffffffffffffff\n      mul\n      not\n      and\n      swap1\n      sstore\n      0x01\n      dup3\n      add\n      0x00\n      swap1\n      sstore\n      0x02\n      dup3\n      add\n      0x00\n      swap1\n      sstore\n      pop\n      pop\n        /* \"contracts/ntf_market.sol\":4246:4260  idToOrderIndex */\n      0x04\n        /* \"contracts/ntf_market.sol\":4246:4270  idToOrderIndex[_tokenId] */\n      0x00\n        /* \"contracts/ntf_market.sol\":4261:4269  _tokenId */\n      dup5\n        /* \"contracts/ntf_market.sol\":4246:4270  idToOrderIndex[_tokenId] */\n      dup2\n      mstore\n      0x20\n      add\n      swap1\n      dup2\n      mstore\n      0x20\n      add\n      0x00\n      keccak256\n        /* \"contracts/ntf_market.sol\":4239:4270  delete idToOrderIndex[_tokenId] */\n      0x00\n      swap1\n      sstore\n        /* \"contracts/ntf_market.sol\":3794:4278  {... */\n      pop\n      pop\n        /* \"contracts/ntf_market.sol\":3744:4278  function removeListing(uint256 _tokenId) internal {... */\n      pop\n      jump\t// out\n    tag_113:\n      mload(0x40)\n      dup1\n      0x60\n      add\n      0x40\n      mstore\n      dup1\n      and(0xffffffffffffffffffffffffffffffffffffffff, 0x00)\n      dup2\n      mstore\n      0x20\n      add\n      0x00\n      dup2\n      mstore\n      0x20\n      add\n      0x00\n      dup2\n      mstore\n      pop\n      swap1\n      jump\t// out\n        /* \"#utility.yul\":88:205   */\n    tag_194:\n        /* \"#utility.yul\":197:198   */\n      0x00\n        /* \"#utility.yul\":194:195   */\n      dup1\n        /* \"#utility.yul\":187:199   */\n      revert\n        /* \"#utility.yul\":211:328   */\n    tag_195:\n        /* \"#utility.yul\":320:321   */\n      0x00\n        /* \"#utility.yul\":317:318   */\n      dup1\n        /* \"#utility.yul\":310:322   */\n      revert\n        /* \"#utility.yul\":334:460   */\n    tag_196:\n        /* \"#utility.yul\":371:378   */\n      0x00\n        /* \"#utility.yul\":411:453   */\n      0xffffffffffffffffffffffffffffffffffffffff\n        /* \"#utility.yul\":404:409   */\n      dup3\n        /* \"#utility.yul\":400:454   */\n      and\n        /* \"#utility.yul\":389:454   */\n      swap1\n      pop\n        /* \"#utility.yul\":334:460   */\n      swap2\n      swap1\n      pop\n      jump\t// out\n        /* \"#utility.yul\":466:562   */\n    tag_197:\n        /* \"#utility.yul\":503:510   */\n      0x00\n        /* \"#utility.yul\":532:556   */\n      tag_259\n        /* \"#utility.yul\":550:555   */\n      dup3\n        /* \"#utility.yul\":532:556   */\n      tag_196\n      jump\t// in\n    tag_259:\n        /* \"#utility.yul\":521:556   */\n      swap1\n      pop\n        /* \"#utility.yul\":466:562   */\n      swap2\n      swap1\n      pop\n      jump\t// out\n        /* \"#utility.yul\":568:690   */\n    tag_198:\n        /* \"#utility.yul\":641:665   */\n      tag_261\n        /* \"#utility.yul\":659:664   */\n      dup2\n        /* \"#utility.yul\":641:665   */\n      tag_197\n      jump\t// in\n    tag_261:\n        /* \"#utility.yul\":634:639   */\n      dup2\n        /* \"#utility.yul\":631:666   */\n      eq\n        /* \"#utility.yul\":621:684   */\n      tag_262\n      jumpi\n        /* \"#utility.yul\":680:681   */\n      0x00\n        /* \"#utility.yul\":677:678   */\n      dup1\n        /* \"#utility.yul\":670:682   */\n      revert\n        /* \"#utility.yul\":621:684   */\n    tag_262:\n        /* \"#utility.yul\":568:690   */\n      pop\n      jump\t// out\n        /* \"#utility.yul\":696:835   */\n    tag_199:\n        /* \"#utility.yul\":742:747   */\n      0x00\n        /* \"#utility.yul\":780:786   */\n      dup2\n        /* \"#utility.yul\":767:787   */\n      calldataload\n        /* \"#utility.yul\":758:787   */\n      swap1\n      pop\n        /* \"#utility.yul\":796:829   */\n      tag_264\n        /* \"#utility.yul\":823:828   */\n      dup2\n        /* \"#utility.yul\":796:829   */\n      tag_198\n      jump\t// in\n    tag_264:\n        /* \"#utility.yul\":696:835   */\n      swap3\n      swap2\n      pop\n      pop\n      jump\t// out\n        /* \"#utility.yul\":841:918   */\n    tag_200:\n        /* \"#utility.yul\":878:885   */\n      0x00\n        /* \"#utility.yul\":907:912   */\n      dup2\n        /* \"#utility.yul\":896:912   */\n      swap1\n      pop\n        /* \"#utility.yul\":841:918   */\n      swap2\n      swap1\n      pop\n      jump\t// out\n        /* \"#utility.yul\":924:1046   */\n    tag_201:\n        /* \"#utility.yul\":997:1021   */\n      tag_267\n        /* \"#utility.yul\":1015:1020   */\n      dup2\n        /* \"#utility.yul\":997:1021   */\n      tag_200\n      jump\t// in\n    tag_267:\n        /* \"#utility.yul\":990:995   */\n      dup2\n        /* \"#utility.yul\":987:1022   */\n      eq\n        /* \"#utility.yul\":977:1040   */\n      tag_268\n      jumpi\n        /* \"#utility.yul\":1036:1037   */\n      0x00\n        /* \"#utility.yul\":1033:1034   */\n      dup1\n        /* \"#utility.yul\":1026:1038   */\n      revert\n        /* \"#utility.yul\":977:1040   */\n    tag_268:\n        /* \"#utility.yul\":924:1046   */\n      pop\n      jump\t// out\n        /* \"#utility.yul\":1052:1191   */\n    tag_202:\n        /* \"#utility.yul\":1098:1103   */\n      0x00\n        /* \"#utility.yul\":1136:1142   */\n      dup2\n        /* \"#utility.yul\":1123:1143   */\n      calldataload\n        /* \"#utility.yul\":1114:1143   */\n      swap1\n      pop\n        /* \"#utility.yul\":1152:1185   */\n      tag_270\n        /* \"#utility.yul\":1179:1184   */\n      dup2\n        /* \"#utility.yul\":1152:1185   */\n      tag_201\n      jump\t// in\n    tag_270:\n        /* \"#utility.yul\":1052:1191   */\n      swap3\n      swap2\n      pop\n      pop\n      jump\t// out\n        /* \"#utility.yul\":1197:1314   */\n    tag_203:\n        /* \"#utility.yul\":1306:1307   */\n      0x00\n        /* \"#utility.yul\":1303:1304   */\n      dup1\n        /* \"#utility.yul\":1296:1308   */\n      revert\n        /* \"#utility.yul\":1320:1437   */\n    tag_204:\n        /* \"#utility.yul\":1429:1430   */\n      0x00\n        /* \"#utility.yul\":1426:1427   */\n      dup1\n        /* \"#utility.yul\":1419:1431   */\n      revert\n        /* \"#utility.yul\":1443:1560   */\n    tag_205:\n        /* \"#utility.yul\":1552:1553   */\n      0x00\n        /* \"#utility.yul\":1549:1550   */\n      dup1\n        /* \"#utility.yul\":1542:1554   */\n      revert\n        /* \"#utility.yul\":1579:2131   */\n    tag_206:\n        /* \"#utility.yul\":1636:1644   */\n      0x00\n        /* \"#utility.yul\":1646:1652   */\n      dup1\n        /* \"#utility.yul\":1696:1699   */\n      dup4\n        /* \"#utility.yul\":1689:1693   */\n      0x1f\n        /* \"#utility.yul\":1681:1687   */\n      dup5\n        /* \"#utility.yul\":1677:1694   */\n      add\n        /* \"#utility.yul\":1673:1700   */\n      slt\n        /* \"#utility.yul\":1663:1785   */\n      tag_275\n      jumpi\n        /* \"#utility.yul\":1704:1783   */\n      tag_276\n      tag_203\n      jump\t// in\n    tag_276:\n        /* \"#utility.yul\":1663:1785   */\n    tag_275:\n        /* \"#utility.yul\":1817:1823   */\n      dup3\n        /* \"#utility.yul\":1804:1824   */\n      calldataload\n        /* \"#utility.yul\":1794:1824   */\n      swap1\n      pop\n        /* \"#utility.yul\":1847:1865   */\n      0xffffffffffffffff\n        /* \"#utility.yul\":1839:1845   */\n      dup2\n        /* \"#utility.yul\":1836:1866   */\n      gt\n        /* \"#utility.yul\":1833:1950   */\n      iszero\n      tag_277\n      jumpi\n        /* \"#utility.yul\":1869:1948   */\n      tag_278\n      tag_204\n      jump\t// in\n    tag_278:\n        /* \"#utility.yul\":1833:1950   */\n    tag_277:\n        /* \"#utility.yul\":1983:1987   */\n      0x20\n        /* \"#utility.yul\":1975:1981   */\n      dup4\n        /* \"#utility.yul\":1971:1988   */\n      add\n        /* \"#utility.yul\":1959:1988   */\n      swap2\n      pop\n        /* \"#utility.yul\":2037:2040   */\n      dup4\n        /* \"#utility.yul\":2029:2033   */\n      0x01\n        /* \"#utility.yul\":2021:2027   */\n      dup3\n        /* \"#utility.yul\":2017:2034   */\n      mul\n        /* \"#utility.yul\":2007:2015   */\n      dup4\n        /* \"#utility.yul\":2003:2035   */\n      add\n        /* \"#utility.yul\":2000:2041   */\n      gt\n        /* \"#utility.yul\":1997:2125   */\n      iszero\n      tag_279\n      jumpi\n        /* \"#utility.yul\":2044:2123   */\n      tag_280\n      tag_205\n      jump\t// in\n    tag_280:\n        /* \"#utility.yul\":1997:2125   */\n    tag_279:\n        /* \"#utility.yul\":1579:2131   */\n      swap3\n      pop\n      swap3\n      swap1\n      pop\n      jump\t// out\n        /* \"#utility.yul\":2137:3100   */\n    tag_20:\n        /* \"#utility.yul\":2234:2240   */\n      0x00\n        /* \"#utility.yul\":2242:2248   */\n      dup1\n        /* \"#utility.yul\":2250:2256   */\n      0x00\n        /* \"#utility.yul\":2258:2264   */\n      dup1\n        /* \"#utility.yul\":2266:2272   */\n      0x00\n        /* \"#utility.yul\":2315:2318   */\n      0x80\n        /* \"#utility.yul\":2303:2312   */\n      dup7\n        /* \"#utility.yul\":2294:2301   */\n      dup9\n        /* \"#utility.yul\":2290:2313   */\n      sub\n        /* \"#utility.yul\":2286:2319   */\n      slt\n        /* \"#utility.yul\":2283:2403   */\n      iszero\n      tag_282\n      jumpi\n        /* \"#utility.yul\":2322:2401   */\n      tag_283\n      tag_194\n      jump\t// in\n    tag_283:\n        /* \"#utility.yul\":2283:2403   */\n    tag_282:\n        /* \"#utility.yul\":2442:2443   */\n      0x00\n        /* \"#utility.yul\":2467:2520   */\n      tag_284\n        /* \"#utility.yul\":2512:2519   */\n      dup9\n        /* \"#utility.yul\":2503:2509   */\n      dup3\n        /* \"#utility.yul\":2492:2501   */\n      dup10\n        /* \"#utility.yul\":2488:2510   */\n      add\n        /* \"#utility.yul\":2467:2520   */\n      tag_199\n      jump\t// in\n    tag_284:\n        /* \"#utility.yul\":2457:2520   */\n      swap6\n      pop\n        /* \"#utility.yul\":2413:2530   */\n      pop\n        /* \"#utility.yul\":2569:2571   */\n      0x20\n        /* \"#utility.yul\":2595:2648   */\n      tag_285\n        /* \"#utility.yul\":2640:2647   */\n      dup9\n        /* \"#utility.yul\":2631:2637   */\n      dup3\n        /* \"#utility.yul\":2620:2629   */\n      dup10\n        /* \"#utility.yul\":2616:2638   */\n      add\n        /* \"#utility.yul\":2595:2648   */\n      tag_199\n      jump\t// in\n    tag_285:\n        /* \"#utility.yul\":2585:2648   */\n      swap5\n      pop\n        /* \"#utility.yul\":2540:2658   */\n      pop\n        /* \"#utility.yul\":2697:2699   */\n      0x40\n        /* \"#utility.yul\":2723:2776   */\n      tag_286\n        /* \"#utility.yul\":2768:2775   */\n      dup9\n        /* \"#utility.yul\":2759:2765   */\n      dup3\n        /* \"#utility.yul\":2748:2757   */\n      dup10\n        /* \"#utility.yul\":2744:2766   */\n      add\n        /* \"#utility.yul\":2723:2776   */\n      tag_202\n      jump\t// in\n    tag_286:\n        /* \"#utility.yul\":2713:2776   */\n      swap4\n      pop\n        /* \"#utility.yul\":2668:2786   */\n      pop\n        /* \"#utility.yul\":2853:2855   */\n      0x60\n        /* \"#utility.yul\":2842:2851   */\n      dup7\n        /* \"#utility.yul\":2838:2856   */\n      add\n        /* \"#utility.yul\":2825:2857   */\n      calldataload\n        /* \"#utility.yul\":2884:2902   */\n      0xffffffffffffffff\n        /* \"#utility.yul\":2876:2882   */\n      dup2\n        /* \"#utility.yul\":2873:2903   */\n      gt\n        /* \"#utility.yul\":2870:2987   */\n      iszero\n      tag_287\n      jumpi\n        /* \"#utility.yul\":2906:2985   */\n      tag_288\n      tag_195\n      jump\t// in\n    tag_288:\n        /* \"#utility.yul\":2870:2987   */\n    tag_287:\n        /* \"#utility.yul\":3019:3083   */\n      tag_289\n        /* \"#utility.yul\":3075:3082   */\n      dup9\n        /* \"#utility.yul\":3066:3072   */\n      dup3\n        /* \"#utility.yul\":3055:3064   */\n      dup10\n        /* \"#utility.yul\":3051:3073   */\n      add\n        /* \"#utility.yul\":3019:3083   */\n      tag_206\n      jump\t// in\n    tag_289:\n        /* \"#utility.yul\":3001:3083   */\n      swap3\n      pop\n      swap3\n      pop\n        /* \"#utility.yul\":2796:3093   */\n      pop\n        /* \"#utility.yul\":2137:3100   */\n      swap3\n      swap6\n      pop\n      swap3\n      swap6\n      swap1\n      swap4\n      pop\n      jump\t// out\n        /* \"#utility.yul\":3106:3255   */\n    tag_207:\n        /* \"#utility.yul\":3142:3149   */\n      0x00\n        /* \"#utility.yul\":3182:3248   */\n      0xffffffff00000000000000000000000000000000000000000000000000000000\n        /* \"#utility.yul\":3175:3180   */\n      dup3\n        /* \"#utility.yul\":3171:3249   */\n      and\n        /* \"#utility.yul\":3160:3249   */\n      swap1\n      pop\n        /* \"#utility.yul\":3106:3255   */\n      swap2\n      swap1\n      pop\n      jump\t// out\n        /* \"#utility.yul\":3261:3376   */\n    tag_208:\n        /* \"#utility.yul\":3346:3369   */\n      tag_292\n        /* \"#utility.yul\":3363:3368   */\n      dup2\n        /* \"#utility.yul\":3346:3369   */\n      tag_207\n      jump\t// in\n    tag_292:\n        /* \"#utility.yul\":3341:3344   */\n      dup3\n        /* \"#utility.yul\":3334:3370   */\n      mstore\n        /* \"#utility.yul\":3261:3376   */\n      pop\n      pop\n      jump\t// out\n        /* \"#utility.yul\":3382:3600   */\n    tag_23:\n        /* \"#utility.yul\":3473:3477   */\n      0x00\n        /* \"#utility.yul\":3511:3513   */\n      0x20\n        /* \"#utility.yul\":3500:3509   */\n      dup3\n        /* \"#utility.yul\":3496:3514   */\n      add\n        /* \"#utility.yul\":3488:3514   */\n      swap1\n      pop\n        /* \"#utility.yul\":3524:3593   */\n      tag_294\n        /* \"#utility.yul\":3590:3591   */\n      0x00\n        /* \"#utility.yul\":3579:3588   */\n      dup4\n        /* \"#utility.yul\":3575:3592   */\n      add\n        /* \"#utility.yul\":3566:3572   */\n      dup5\n        /* \"#utility.yul\":3524:3593   */\n      tag_208\n      jump\t// in\n    tag_294:\n        /* \"#utility.yul\":3382:3600   */\n      swap3\n      swap2\n      pop\n      pop\n      jump\t// out\n        /* \"#utility.yul\":3606:3935   */\n    tag_26:\n        /* \"#utility.yul\":3665:3671   */\n      0x00\n        /* \"#utility.yul\":3714:3716   */\n      0x20\n        /* \"#utility.yul\":3702:3711   */\n      dup3\n        /* \"#utility.yul\":3693:3700   */\n      dup5\n        /* \"#utility.yul\":3689:3712   */\n      sub\n        /* \"#utility.yul\":3685:3717   */\n      slt\n        /* \"#utility.yul\":3682:3801   */\n      iszero\n      tag_296\n      jumpi\n        /* \"#utility.yul\":3720:3799   */\n      tag_297\n      tag_194\n      jump\t// in\n    tag_297:\n        /* \"#utility.yul\":3682:3801   */\n    tag_296:\n        /* \"#utility.yul\":3840:3841   */\n      0x00\n        /* \"#utility.yul\":3865:3918   */\n      tag_298\n        /* \"#utility.yul\":3910:3917   */\n      dup5\n        /* \"#utility.yul\":3901:3907   */\n      dup3\n        /* \"#utility.yul\":3890:3899   */\n      dup6\n        /* \"#utility.yul\":3886:3908   */\n      add\n        /* \"#utility.yul\":3865:3918   */\n      tag_202\n      jump\t// in\n    tag_298:\n        /* \"#utility.yul\":3855:3918   */\n      swap2\n      pop\n        /* \"#utility.yul\":3811:3928   */\n      pop\n        /* \"#utility.yul\":3606:3935   */\n      swap3\n      swap2\n      pop\n      pop\n      jump\t// out\n        /* \"#utility.yul\":3941:4059   */\n    tag_209:\n        /* \"#utility.yul\":4028:4052   */\n      tag_300\n        /* \"#utility.yul\":4046:4051   */\n      dup2\n        /* \"#utility.yul\":4028:4052   */\n      tag_197\n      jump\t// in\n    tag_300:\n        /* \"#utility.yul\":4023:4026   */\n      dup3\n        /* \"#utility.yul\":4016:4053   */\n      mstore\n        /* \"#utility.yul\":3941:4059   */\n      pop\n      pop\n      jump\t// out\n        /* \"#utility.yul\":4065:4183   */\n    tag_210:\n        /* \"#utility.yul\":4152:4176   */\n      tag_302\n        /* \"#utility.yul\":4170:4175   */\n      dup2\n        /* \"#utility.yul\":4152:4176   */\n      tag_200\n      jump\t// in\n    tag_302:\n        /* \"#utility.yul\":4147:4150   */\n      dup3\n        /* \"#utility.yul\":4140:4177   */\n      mstore\n        /* \"#utility.yul\":4065:4183   */\n      pop\n      pop\n      jump\t// out\n        /* \"#utility.yul\":4189:4631   */\n    tag_29:\n        /* \"#utility.yul\":4338:4342   */\n      0x00\n        /* \"#utility.yul\":4376:4378   */\n      0x60\n        /* \"#utility.yul\":4365:4374   */\n      dup3\n        /* \"#utility.yul\":4361:4379   */\n      add\n        /* \"#utility.yul\":4353:4379   */\n      swap1\n      pop\n        /* \"#utility.yul\":4389:4460   */\n      tag_304\n        /* \"#utility.yul\":4457:4458   */\n      0x00\n        /* \"#utility.yul\":4446:4455   */\n      dup4\n        /* \"#utility.yul\":4442:4459   */\n      add\n        /* \"#utility.yul\":4433:4439   */\n      dup7\n        /* \"#utility.yul\":4389:4460   */\n      tag_209\n      jump\t// in\n    tag_304:\n        /* \"#utility.yul\":4470:4542   */\n      tag_305\n        /* \"#utility.yul\":4538:4540   */\n      0x20\n        /* \"#utility.yul\":4527:4536   */\n      dup4\n        /* \"#utility.yul\":4523:4541   */\n      add\n        /* \"#utility.yul\":4514:4520   */\n      dup6\n        /* \"#utility.yul\":4470:4542   */\n      tag_210\n      jump\t// in\n    tag_305:\n        /* \"#utility.yul\":4552:4624   */\n      tag_306\n        /* \"#utility.yul\":4620:4622   */\n      0x40\n        /* \"#utility.yul\":4609:4618   */\n      dup4\n        /* \"#utility.yul\":4605:4623   */\n      add\n        /* \"#utility.yul\":4596:4602   */\n      dup5\n        /* \"#utility.yul\":4552:4624   */\n      tag_210\n      jump\t// in\n    tag_306:\n        /* \"#utility.yul\":4189:4631   */\n      swap5\n      swap4\n      pop\n      pop\n      pop\n      pop\n      jump\t// out\n        /* \"#utility.yul\":4637:4773   */\n    tag_211:\n        /* \"#utility.yul\":4726:4732   */\n      0x00\n        /* \"#utility.yul\":4760:4765   */\n      dup2\n        /* \"#utility.yul\":4754:4766   */\n      mload\n        /* \"#utility.yul\":4744:4766   */\n      swap1\n      pop\n        /* \"#utility.yul\":4637:4773   */\n      swap2\n      swap1\n      pop\n      jump\t// out\n        /* \"#utility.yul\":4779:4985   */\n    tag_212:\n        /* \"#utility.yul\":4900:4911   */\n      0x00\n        /* \"#utility.yul\":4934:4940   */\n      dup3\n        /* \"#utility.yul\":4929:4932   */\n      dup3\n        /* \"#utility.yul\":4922:4941   */\n      mstore\n        /* \"#utility.yul\":4974:4978   */\n      0x20\n        /* \"#utility.yul\":4969:4972   */\n      dup3\n        /* \"#utility.yul\":4965:4979   */\n      add\n        /* \"#utility.yul\":4950:4979   */\n      swap1\n      pop\n        /* \"#utility.yul\":4779:4985   */\n      swap3\n      swap2\n      pop\n      pop\n      jump\t// out\n        /* \"#utility.yul\":4991:5145   */\n    tag_213:\n        /* \"#utility.yul\":5080:5084   */\n      0x00\n        /* \"#utility.yul\":5103:5106   */\n      dup2\n        /* \"#utility.yul\":5095:5106   */\n      swap1\n      pop\n        /* \"#utility.yul\":5133:5137   */\n      0x20\n        /* \"#utility.yul\":5128:5131   */\n      dup3\n        /* \"#utility.yul\":5124:5138   */\n      add\n        /* \"#utility.yul\":5116:5138   */\n      swap1\n      pop\n        /* \"#utility.yul\":4991:5145   */\n      swap2\n      swap1\n      pop\n      jump\t// out\n        /* \"#utility.yul\":5151:5259   */\n    tag_214:\n        /* \"#utility.yul\":5228:5252   */\n      tag_311\n        /* \"#utility.yul\":5246:5251   */\n      dup2\n        /* \"#utility.yul\":5228:5252   */\n      tag_197\n      jump\t// in\n    tag_311:\n        /* \"#utility.yul\":5223:5226   */\n      dup3\n        /* \"#utility.yul\":5216:5253   */\n      mstore\n        /* \"#utility.yul\":5151:5259   */\n      pop\n      pop\n      jump\t// out\n        /* \"#utility.yul\":5265:5373   */\n    tag_215:\n        /* \"#utility.yul\":5342:5366   */\n      tag_313\n        /* \"#utility.yul\":5360:5365   */\n      dup2\n        /* \"#utility.yul\":5342:5366   */\n      tag_200\n      jump\t// in\n    tag_313:\n        /* \"#utility.yul\":5337:5340   */\n      dup3\n        /* \"#utility.yul\":5330:5367   */\n      mstore\n        /* \"#utility.yul\":5265:5373   */\n      pop\n      pop\n      jump\t// out\n        /* \"#utility.yul\":5435:6106   */\n    tag_216:\n        /* \"#utility.yul\":5566:5570   */\n      0x60\n        /* \"#utility.yul\":5561:5564   */\n      dup3\n        /* \"#utility.yul\":5557:5571   */\n      add\n        /* \"#utility.yul\":5655:5659   */\n      0x00\n        /* \"#utility.yul\":5648:5653   */\n      dup3\n        /* \"#utility.yul\":5644:5660   */\n      add\n        /* \"#utility.yul\":5638:5661   */\n      mload\n        /* \"#utility.yul\":5674:5737   */\n      tag_315\n        /* \"#utility.yul\":5731:5735   */\n      0x00\n        /* \"#utility.yul\":5726:5729   */\n      dup6\n        /* \"#utility.yul\":5722:5736   */\n      add\n        /* \"#utility.yul\":5708:5720   */\n      dup3\n        /* \"#utility.yul\":5674:5737   */\n      tag_214\n      jump\t// in\n    tag_315:\n        /* \"#utility.yul\":5581:5747   */\n      pop\n        /* \"#utility.yul\":5832:5836   */\n      0x20\n        /* \"#utility.yul\":5825:5830   */\n      dup3\n        /* \"#utility.yul\":5821:5837   */\n      add\n        /* \"#utility.yul\":5815:5838   */\n      mload\n        /* \"#utility.yul\":5851:5914   */\n      tag_316\n        /* \"#utility.yul\":5908:5912   */\n      0x20\n        /* \"#utility.yul\":5903:5906   */\n      dup6\n        /* \"#utility.yul\":5899:5913   */\n      add\n        /* \"#utility.yul\":5885:5897   */\n      dup3\n        /* \"#utility.yul\":5851:5914   */\n      tag_215\n      jump\t// in\n    tag_316:\n        /* \"#utility.yul\":5757:5924   */\n      pop\n        /* \"#utility.yul\":6007:6011   */\n      0x40\n        /* \"#utility.yul\":6000:6005   */\n      dup3\n        /* \"#utility.yul\":5996:6012   */\n      add\n        /* \"#utility.yul\":5990:6013   */\n      mload\n        /* \"#utility.yul\":6026:6089   */\n      tag_317\n        /* \"#utility.yul\":6083:6087   */\n      0x40\n        /* \"#utility.yul\":6078:6081   */\n      dup6\n        /* \"#utility.yul\":6074:6088   */\n      add\n        /* \"#utility.yul\":6060:6072   */\n      dup3\n        /* \"#utility.yul\":6026:6089   */\n      tag_215\n      jump\t// in\n    tag_317:\n        /* \"#utility.yul\":5934:6099   */\n      pop\n        /* \"#utility.yul\":5535:6106   */\n      pop\n        /* \"#utility.yul\":5435:6106   */\n      pop\n      pop\n      jump\t// out\n        /* \"#utility.yul\":6112:6379   */\n    tag_217:\n        /* \"#utility.yul\":6225:6235   */\n      0x00\n        /* \"#utility.yul\":6246:6336   */\n      tag_319\n        /* \"#utility.yul\":6332:6335   */\n      dup4\n        /* \"#utility.yul\":6324:6330   */\n      dup4\n        /* \"#utility.yul\":6246:6336   */\n      tag_216\n      jump\t// in\n    tag_319:\n        /* \"#utility.yul\":6368:6372   */\n      0x60\n        /* \"#utility.yul\":6363:6366   */\n      dup4\n        /* \"#utility.yul\":6359:6373   */\n      add\n        /* \"#utility.yul\":6345:6373   */\n      swap1\n      pop\n        /* \"#utility.yul\":6112:6379   */\n      swap3\n      swap2\n      pop\n      pop\n      jump\t// out\n        /* \"#utility.yul\":6385:6520   */\n    tag_218:\n        /* \"#utility.yul\":6477:6481   */\n      0x00\n        /* \"#utility.yul\":6509:6513   */\n      0x20\n        /* \"#utility.yul\":6504:6507   */\n      dup3\n        /* \"#utility.yul\":6500:6514   */\n      add\n        /* \"#utility.yul\":6492:6514   */\n      swap1\n      pop\n        /* \"#utility.yul\":6385:6520   */\n      swap2\n      swap1\n      pop\n      jump\t// out\n        /* \"#utility.yul\":6586:7494   */\n    tag_219:\n        /* \"#utility.yul\":6749:6752   */\n      0x00\n        /* \"#utility.yul\":6778:6854   */\n      tag_322\n        /* \"#utility.yul\":6848:6853   */\n      dup3\n        /* \"#utility.yul\":6778:6854   */\n      tag_211\n      jump\t// in\n    tag_322:\n        /* \"#utility.yul\":6870:6978   */\n      tag_323\n        /* \"#utility.yul\":6971:6977   */\n      dup2\n        /* \"#utility.yul\":6966:6969   */\n      dup6\n        /* \"#utility.yul\":6870:6978   */\n      tag_212\n      jump\t// in\n    tag_323:\n        /* \"#utility.yul\":6863:6978   */\n      swap4\n      pop\n        /* \"#utility.yul\":7002:7080   */\n      tag_324\n        /* \"#utility.yul\":7074:7079   */\n      dup4\n        /* \"#utility.yul\":7002:7080   */\n      tag_213\n      jump\t// in\n    tag_324:\n        /* \"#utility.yul\":7103:7110   */\n      dup1\n        /* \"#utility.yul\":7134:7135   */\n      0x00\n        /* \"#utility.yul\":7119:7469   */\n    tag_325:\n        /* \"#utility.yul\":7144:7150   */\n      dup4\n        /* \"#utility.yul\":7141:7142   */\n      dup2\n        /* \"#utility.yul\":7138:7151   */\n      lt\n        /* \"#utility.yul\":7119:7469   */\n      iszero\n      tag_327\n      jumpi\n        /* \"#utility.yul\":7220:7226   */\n      dup2\n        /* \"#utility.yul\":7214:7227   */\n      mload\n        /* \"#utility.yul\":7247:7354   */\n      tag_328\n        /* \"#utility.yul\":7350:7353   */\n      dup9\n        /* \"#utility.yul\":7335:7348   */\n      dup3\n        /* \"#utility.yul\":7247:7354   */\n      tag_217\n      jump\t// in\n    tag_328:\n        /* \"#utility.yul\":7240:7354   */\n      swap8\n      pop\n        /* \"#utility.yul\":7377:7459   */\n      tag_329\n        /* \"#utility.yul\":7452:7458   */\n      dup4\n        /* \"#utility.yul\":7377:7459   */\n      tag_218\n      jump\t// in\n    tag_329:\n        /* \"#utility.yul\":7367:7459   */\n      swap3\n      pop\n        /* \"#utility.yul\":7179:7469   */\n      pop\n        /* \"#utility.yul\":7166:7167   */\n      0x01\n        /* \"#utility.yul\":7163:7164   */\n      dup2\n        /* \"#utility.yul\":7159:7168   */\n      add\n        /* \"#utility.yul\":7154:7168   */\n      swap1\n      pop\n        /* \"#utility.yul\":7119:7469   */\n      jump(tag_325)\n    tag_327:\n        /* \"#utility.yul\":7123:7137   */\n      pop\n        /* \"#utility.yul\":7485:7488   */\n      dup6\n        /* \"#utility.yul\":7478:7488   */\n      swap4\n      pop\n        /* \"#utility.yul\":6754:7494   */\n      pop\n      pop\n      pop\n        /* \"#utility.yul\":6586:7494   */\n      swap3\n      swap2\n      pop\n      pop\n      jump\t// out\n        /* \"#utility.yul\":7500:7961   */\n    tag_36:\n        /* \"#utility.yul\":7687:7691   */\n      0x00\n        /* \"#utility.yul\":7725:7727   */\n      0x20\n        /* \"#utility.yul\":7714:7723   */\n      dup3\n        /* \"#utility.yul\":7710:7728   */\n      add\n        /* \"#utility.yul\":7702:7728   */\n      swap1\n      pop\n        /* \"#utility.yul\":7774:7783   */\n      dup2\n        /* \"#utility.yul\":7768:7772   */\n      dup2\n        /* \"#utility.yul\":7764:7784   */\n      sub\n        /* \"#utility.yul\":7760:7761   */\n      0x00\n        /* \"#utility.yul\":7749:7758   */\n      dup4\n        /* \"#utility.yul\":7745:7762   */\n      add\n        /* \"#utility.yul\":7738:7785   */\n      mstore\n        /* \"#utility.yul\":7802:7954   */\n      tag_331\n        /* \"#utility.yul\":7949:7953   */\n      dup2\n        /* \"#utility.yul\":7940:7946   */\n      dup5\n        /* \"#utility.yul\":7802:7954   */\n      tag_219\n      jump\t// in\n    tag_331:\n        /* \"#utility.yul\":7794:7954   */\n      swap1\n      pop\n        /* \"#utility.yul\":7500:7961   */\n      swap3\n      swap2\n      pop\n      pop\n      jump\t// out\n        /* \"#utility.yul\":7967:8027   */\n    tag_220:\n        /* \"#utility.yul\":7995:7998   */\n      0x00\n        /* \"#utility.yul\":8016:8021   */\n      dup2\n        /* \"#utility.yul\":8009:8021   */\n      swap1\n      pop\n        /* \"#utility.yul\":7967:8027   */\n      swap2\n      swap1\n      pop\n      jump\t// out\n        /* \"#utility.yul\":8033:8175   */\n    tag_221:\n        /* \"#utility.yul\":8083:8092   */\n      0x00\n        /* \"#utility.yul\":8116:8169   */\n      tag_334\n        /* \"#utility.yul\":8134:8168   */\n      tag_335\n        /* \"#utility.yul\":8143:8167   */\n      tag_336\n        /* \"#utility.yul\":8161:8166   */\n      dup5\n        /* \"#utility.yul\":8143:8167   */\n      tag_196\n      jump\t// in\n    tag_336:\n        /* \"#utility.yul\":8134:8168   */\n      tag_220\n      jump\t// in\n    tag_335:\n        /* \"#utility.yul\":8116:8169   */\n      tag_196\n      jump\t// in\n    tag_334:\n        /* \"#utility.yul\":8103:8169   */\n      swap1\n      pop\n        /* \"#utility.yul\":8033:8175   */\n      swap2\n      swap1\n      pop\n      jump\t// out\n        /* \"#utility.yul\":8181:8307   */\n    tag_222:\n        /* \"#utility.yul\":8231:8240   */\n      0x00\n        /* \"#utility.yul\":8264:8301   */\n      tag_338\n        /* \"#utility.yul\":8295:8300   */\n      dup3\n        /* \"#utility.yul\":8264:8301   */\n      tag_221\n      jump\t// in\n    tag_338:\n        /* \"#utility.yul\":8251:8301   */\n      swap1\n      pop\n        /* \"#utility.yul\":8181:8307   */\n      swap2\n      swap1\n      pop\n      jump\t// out\n        /* \"#utility.yul\":8313:8452   */\n    tag_223:\n        /* \"#utility.yul\":8376:8385   */\n      0x00\n        /* \"#utility.yul\":8409:8446   */\n      tag_340\n        /* \"#utility.yul\":8440:8445   */\n      dup3\n        /* \"#utility.yul\":8409:8446   */\n      tag_222\n      jump\t// in\n    tag_340:\n        /* \"#utility.yul\":8396:8446   */\n      swap1\n      pop\n        /* \"#utility.yul\":8313:8452   */\n      swap2\n      swap1\n      pop\n      jump\t// out\n        /* \"#utility.yul\":8458:8615   */\n    tag_224:\n        /* \"#utility.yul\":8558:8608   */\n      tag_342\n        /* \"#utility.yul\":8602:8607   */\n      dup2\n        /* \"#utility.yul\":8558:8608   */\n      tag_223\n      jump\t// in\n    tag_342:\n        /* \"#utility.yul\":8553:8556   */\n      dup3\n        /* \"#utility.yul\":8546:8609   */\n      mstore\n        /* \"#utility.yul\":8458:8615   */\n      pop\n      pop\n      jump\t// out\n        /* \"#utility.yul\":8621:8869   */\n    tag_40:\n        /* \"#utility.yul\":8727:8731   */\n      0x00\n        /* \"#utility.yul\":8765:8767   */\n      0x20\n        /* \"#utility.yul\":8754:8763   */\n      dup3\n        /* \"#utility.yul\":8750:8768   */\n      add\n        /* \"#utility.yul\":8742:8768   */\n      swap1\n      pop\n        /* \"#utility.yul\":8778:8862   */\n      tag_344\n        /* \"#utility.yul\":8859:8860   */\n      0x00\n        /* \"#utility.yul\":8848:8857   */\n      dup4\n        /* \"#utility.yul\":8844:8861   */\n      add\n        /* \"#utility.yul\":8835:8841   */\n      dup5\n        /* \"#utility.yul\":8778:8862   */\n      tag_224\n      jump\t// in\n    tag_344:\n        /* \"#utility.yul\":8621:8869   */\n      swap3\n      swap2\n      pop\n      pop\n      jump\t// out\n        /* \"#utility.yul\":8875:9097   */\n    tag_44:\n        /* \"#utility.yul\":8968:8972   */\n      0x00\n        /* \"#utility.yul\":9006:9008   */\n      0x20\n        /* \"#utility.yul\":8995:9004   */\n      dup3\n        /* \"#utility.yul\":8991:9009   */\n      add\n        /* \"#utility.yul\":8983:9009   */\n      swap1\n      pop\n        /* \"#utility.yul\":9019:9090   */\n      tag_346\n        /* \"#utility.yul\":9087:9088   */\n      0x00\n        /* \"#utility.yul\":9076:9085   */\n      dup4\n        /* \"#utility.yul\":9072:9089   */\n      add\n        /* \"#utility.yul\":9063:9069   */\n      dup5\n        /* \"#utility.yul\":9019:9090   */\n      tag_210\n      jump\t// in\n    tag_346:\n        /* \"#utility.yul\":8875:9097   */\n      swap3\n      swap2\n      pop\n      pop\n      jump\t// out\n        /* \"#utility.yul\":9103:9577   */\n    tag_51:\n        /* \"#utility.yul\":9171:9177   */\n      0x00\n        /* \"#utility.yul\":9179:9185   */\n      dup1\n        /* \"#utility.yul\":9228:9230   */\n      0x40\n        /* \"#utility.yul\":9216:9225   */\n      dup4\n        /* \"#utility.yul\":9207:9214   */\n      dup6\n        /* \"#utility.yul\":9203:9226   */\n      sub\n        /* \"#utility.yul\":9199:9231   */\n      slt\n        /* \"#utility.yul\":9196:9315   */\n      iszero\n      tag_348\n      jumpi\n        /* \"#utility.yul\":9234:9313   */\n      tag_349\n      tag_194\n      jump\t// in\n    tag_349:\n        /* \"#utility.yul\":9196:9315   */\n    tag_348:\n        /* \"#utility.yul\":9354:9355   */\n      0x00\n        /* \"#utility.yul\":9379:9432   */\n      tag_350\n        /* \"#utility.yul\":9424:9431   */\n      dup6\n        /* \"#utility.yul\":9415:9421   */\n      dup3\n        /* \"#utility.yul\":9404:9413   */\n      dup7\n        /* \"#utility.yul\":9400:9422   */\n      add\n        /* \"#utility.yul\":9379:9432   */\n      tag_202\n      jump\t// in\n    tag_350:\n        /* \"#utility.yul\":9369:9432   */\n      swap3\n      pop\n        /* \"#utility.yul\":9325:9442   */\n      pop\n        /* \"#utility.yul\":9481:9483   */\n      0x20\n        /* \"#utility.yul\":9507:9560   */\n      tag_351\n        /* \"#utility.yul\":9552:9559   */\n      dup6\n        /* \"#utility.yul\":9543:9549   */\n      dup3\n        /* \"#utility.yul\":9532:9541   */\n      dup7\n        /* \"#utility.yul\":9528:9550   */\n      add\n        /* \"#utility.yul\":9507:9560   */\n      tag_202\n      jump\t// in\n    tag_351:\n        /* \"#utility.yul\":9497:9560   */\n      swap2\n      pop\n        /* \"#utility.yul\":9452:9570   */\n      pop\n        /* \"#utility.yul\":9103:9577   */\n      swap3\n      pop\n      swap3\n      swap1\n      pop\n      jump\t// out\n        /* \"#utility.yul\":9583:9724   */\n    tag_225:\n        /* \"#utility.yul\":9648:9657   */\n      0x00\n        /* \"#utility.yul\":9681:9718   */\n      tag_353\n        /* \"#utility.yul\":9712:9717   */\n      dup3\n        /* \"#utility.yul\":9681:9718   */\n      tag_222\n      jump\t// in\n    tag_353:\n        /* \"#utility.yul\":9668:9718   */\n      swap1\n      pop\n        /* \"#utility.yul\":9583:9724   */\n      swap2\n      swap1\n      pop\n      jump\t// out\n        /* \"#utility.yul\":9730:9891   */\n    tag_226:\n        /* \"#utility.yul\":9832:9884   */\n      tag_355\n        /* \"#utility.yul\":9878:9883   */\n      dup2\n        /* \"#utility.yul\":9832:9884   */\n      tag_225\n      jump\t// in\n    tag_355:\n        /* \"#utility.yul\":9827:9830   */\n      dup3\n        /* \"#utility.yul\":9820:9885   */\n      mstore\n        /* \"#utility.yul\":9730:9891   */\n      pop\n      pop\n      jump\t// out\n        /* \"#utility.yul\":9897:10149   */\n    tag_56:\n        /* \"#utility.yul\":10005:10009   */\n      0x00\n        /* \"#utility.yul\":10043:10045   */\n      0x20\n        /* \"#utility.yul\":10032:10041   */\n      dup3\n        /* \"#utility.yul\":10028:10046   */\n      add\n        /* \"#utility.yul\":10020:10046   */\n      swap1\n      pop\n        /* \"#utility.yul\":10056:10142   */\n      tag_357\n        /* \"#utility.yul\":10139:10140   */\n      0x00\n        /* \"#utility.yul\":10128:10137   */\n      dup4\n        /* \"#utility.yul\":10124:10141   */\n      add\n        /* \"#utility.yul\":10115:10121   */\n      dup5\n        /* \"#utility.yul\":10056:10142   */\n      tag_226\n      jump\t// in\n    tag_357:\n        /* \"#utility.yul\":9897:10149   */\n      swap3\n      swap2\n      pop\n      pop\n      jump\t// out\n        /* \"#utility.yul\":10155:10245   */\n    tag_227:\n        /* \"#utility.yul\":10189:10196   */\n      0x00\n        /* \"#utility.yul\":10232:10237   */\n      dup2\n        /* \"#utility.yul\":10225:10238   */\n      iszero\n        /* \"#utility.yul\":10218:10239   */\n      iszero\n        /* \"#utility.yul\":10207:10239   */\n      swap1\n      pop\n        /* \"#utility.yul\":10155:10245   */\n      swap2\n      swap1\n      pop\n      jump\t// out\n        /* \"#utility.yul\":10251:10360   */\n    tag_228:\n        /* \"#utility.yul\":10332:10353   */\n      tag_360\n        /* \"#utility.yul\":10347:10352   */\n      dup2\n        /* \"#utility.yul\":10332:10353   */\n      tag_227\n      jump\t// in\n    tag_360:\n        /* \"#utility.yul\":10327:10330   */\n      dup3\n        /* \"#utility.yul\":10320:10354   */\n      mstore\n        /* \"#utility.yul\":10251:10360   */\n      pop\n      pop\n      jump\t// out\n        /* \"#utility.yul\":10366:10576   */\n    tag_71:\n        /* \"#utility.yul\":10453:10457   */\n      0x00\n        /* \"#utility.yul\":10491:10493   */\n      0x20\n        /* \"#utility.yul\":10480:10489   */\n      dup3\n        /* \"#utility.yul\":10476:10494   */\n      add\n        /* \"#utility.yul\":10468:10494   */\n      swap1\n      pop\n        /* \"#utility.yul\":10504:10569   */\n      tag_362\n        /* \"#utility.yul\":10566:10567   */\n      0x00\n        /* \"#utility.yul\":10555:10564   */\n      dup4\n        /* \"#utility.yul\":10551:10568   */\n      add\n        /* \"#utility.yul\":10542:10548   */\n      dup5\n        /* \"#utility.yul\":10504:10569   */\n      tag_228\n      jump\t// in\n    tag_362:\n        /* \"#utility.yul\":10366:10576   */\n      swap3\n      swap2\n      pop\n      pop\n      jump\t// out\n        /* \"#utility.yul\":10582:10751   */\n    tag_229:\n        /* \"#utility.yul\":10666:10677   */\n      0x00\n        /* \"#utility.yul\":10700:10706   */\n      dup3\n        /* \"#utility.yul\":10695:10698   */\n      dup3\n        /* \"#utility.yul\":10688:10707   */\n      mstore\n        /* \"#utility.yul\":10740:10744   */\n      0x20\n        /* \"#utility.yul\":10735:10738   */\n      dup3\n        /* \"#utility.yul\":10731:10745   */\n      add\n        /* \"#utility.yul\":10716:10745   */\n      swap1\n      pop\n        /* \"#utility.yul\":10582:10751   */\n      swap3\n      swap2\n      pop\n      pop\n      jump\t// out\n        /* \"#utility.yul\":10757:10928   */\n    tag_230:\n        /* \"#utility.yul\":10897:10920   */\n      0x4d61726b65743a20496e76616c69642070726963650000000000000000000000\n        /* \"#utility.yul\":10893:10894   */\n      0x00\n        /* \"#utility.yul\":10885:10891   */\n      dup3\n        /* \"#utility.yul\":10881:10895   */\n      add\n        /* \"#utility.yul\":10874:10921   */\n      mstore\n        /* \"#utility.yul\":10757:10928   */\n      pop\n      jump\t// out\n        /* \"#utility.yul\":10934:11300   */\n    tag_231:\n        /* \"#utility.yul\":11076:11079   */\n      0x00\n        /* \"#utility.yul\":11097:11164   */\n      tag_366\n        /* \"#utility.yul\":11161:11163   */\n      0x15\n        /* \"#utility.yul\":11156:11159   */\n      dup4\n        /* \"#utility.yul\":11097:11164   */\n      tag_229\n      jump\t// in\n    tag_366:\n        /* \"#utility.yul\":11090:11164   */\n      swap2\n      pop\n        /* \"#utility.yul\":11173:11266   */\n      tag_367\n        /* \"#utility.yul\":11262:11265   */\n      dup3\n        /* \"#utility.yul\":11173:11266   */\n      tag_230\n      jump\t// in\n    tag_367:\n        /* \"#utility.yul\":11291:11293   */\n      0x20\n        /* \"#utility.yul\":11286:11289   */\n      dup3\n        /* \"#utility.yul\":11282:11294   */\n      add\n        /* \"#utility.yul\":11275:11294   */\n      swap1\n      pop\n        /* \"#utility.yul\":10934:11300   */\n      swap2\n      swap1\n      pop\n      jump\t// out\n        /* \"#utility.yul\":11306:11725   */\n    tag_77:\n        /* \"#utility.yul\":11472:11476   */\n      0x00\n        /* \"#utility.yul\":11510:11512   */\n      0x20\n        /* \"#utility.yul\":11499:11508   */\n      dup3\n        /* \"#utility.yul\":11495:11513   */\n      add\n        /* \"#utility.yul\":11487:11513   */\n      swap1\n      pop\n        /* \"#utility.yul\":11559:11568   */\n      dup2\n        /* \"#utility.yul\":11553:11557   */\n      dup2\n        /* \"#utility.yul\":11549:11569   */\n      sub\n        /* \"#utility.yul\":11545:11546   */\n      0x00\n        /* \"#utility.yul\":11534:11543   */\n      dup4\n        /* \"#utility.yul\":11530:11547   */\n      add\n        /* \"#utility.yul\":11523:11570   */\n      mstore\n        /* \"#utility.yul\":11587:11718   */\n      tag_369\n        /* \"#utility.yul\":11713:11717   */\n      dup2\n        /* \"#utility.yul\":11587:11718   */\n      tag_231\n      jump\t// in\n    tag_369:\n        /* \"#utility.yul\":11579:11718   */\n      swap1\n      pop\n        /* \"#utility.yul\":11306:11725   */\n      swap2\n      swap1\n      pop\n      jump\t// out\n        /* \"#utility.yul\":11731:11903   */\n    tag_232:\n        /* \"#utility.yul\":11871:11895   */\n      0x4d61726b65743a20496e76616c69642073656c6c657200000000000000000000\n        /* \"#utility.yul\":11867:11868   */\n      0x00\n        /* \"#utility.yul\":11859:11865   */\n      dup3\n        /* \"#utility.yul\":11855:11869   */\n      add\n        /* \"#utility.yul\":11848:11896   */\n      mstore\n        /* \"#utility.yul\":11731:11903   */\n      pop\n      jump\t// out\n        /* \"#utility.yul\":11909:12275   */\n    tag_233:\n        /* \"#utility.yul\":12051:12054   */\n      0x00\n        /* \"#utility.yul\":12072:12139   */\n      tag_372\n        /* \"#utility.yul\":12136:12138   */\n      0x16\n        /* \"#utility.yul\":12131:12134   */\n      dup4\n        /* \"#utility.yul\":12072:12139   */\n      tag_229\n      jump\t// in\n    tag_372:\n        /* \"#utility.yul\":12065:12139   */\n      swap2\n      pop\n        /* \"#utility.yul\":12148:12241   */\n      tag_373\n        /* \"#utility.yul\":12237:12240   */\n      dup3\n        /* \"#utility.yul\":12148:12241   */\n      tag_232\n      jump\t// in\n    tag_373:\n        /* \"#utility.yul\":12266:12268   */\n      0x20\n        /* \"#utility.yul\":12261:12264   */\n      dup3\n        /* \"#utility.yul\":12257:12269   */\n      add\n        /* \"#utility.yul\":12250:12269   */\n      swap1\n      pop\n        /* \"#utility.yul\":11909:12275   */\n      swap2\n      swap1\n      pop\n      jump\t// out\n        /* \"#utility.yul\":12281:12700   */\n    tag_80:\n        /* \"#utility.yul\":12447:12451   */\n      0x00\n        /* \"#utility.yul\":12485:12487   */\n      0x20\n        /* \"#utility.yul\":12474:12483   */\n      dup3\n        /* \"#utility.yul\":12470:12488   */\n      add\n        /* \"#utility.yul\":12462:12488   */\n      swap1\n      pop\n        /* \"#utility.yul\":12534:12543   */\n      dup2\n        /* \"#utility.yul\":12528:12532   */\n      dup2\n        /* \"#utility.yul\":12524:12544   */\n      sub\n        /* \"#utility.yul\":12520:12521   */\n      0x00\n        /* \"#utility.yul\":12509:12518   */\n      dup4\n        /* \"#utility.yul\":12505:12522   */\n      add\n        /* \"#utility.yul\":12498:12545   */\n      mstore\n        /* \"#utility.yul\":12562:12693   */\n      tag_375\n        /* \"#utility.yul\":12688:12692   */\n      dup2\n        /* \"#utility.yul\":12562:12693   */\n      tag_233\n      jump\t// in\n    tag_375:\n        /* \"#utility.yul\":12554:12693   */\n      swap1\n      pop\n        /* \"#utility.yul\":12281:12700   */\n      swap2\n      swap1\n      pop\n      jump\t// out\n        /* \"#utility.yul\":12706:12927   */\n    tag_234:\n        /* \"#utility.yul\":12846:12880   */\n      0x4d61726b65743a20546f6b656e20494420697320616c7265616479206c697374\n        /* \"#utility.yul\":12842:12843   */\n      0x00\n        /* \"#utility.yul\":12834:12840   */\n      dup3\n        /* \"#utility.yul\":12830:12844   */\n      add\n        /* \"#utility.yul\":12823:12881   */\n      mstore\n        /* \"#utility.yul\":12915:12919   */\n      0x6564000000000000000000000000000000000000000000000000000000000000\n        /* \"#utility.yul\":12910:12912   */\n      0x20\n        /* \"#utility.yul\":12902:12908   */\n      dup3\n        /* \"#utility.yul\":12898:12913   */\n      add\n        /* \"#utility.yul\":12891:12920   */\n      mstore\n        /* \"#utility.yul\":12706:12927   */\n      pop\n      jump\t// out\n        /* \"#utility.yul\":12933:13299   */\n    tag_235:\n        /* \"#utility.yul\":13075:13078   */\n      0x00\n        /* \"#utility.yul\":13096:13163   */\n      tag_378\n        /* \"#utility.yul\":13160:13162   */\n      0x22\n        /* \"#utility.yul\":13155:13158   */\n      dup4\n        /* \"#utility.yul\":13096:13163   */\n      tag_229\n      jump\t// in\n    tag_378:\n        /* \"#utility.yul\":13089:13163   */\n      swap2\n      pop\n        /* \"#utility.yul\":13172:13265   */\n      tag_379\n        /* \"#utility.yul\":13261:13264   */\n      dup3\n        /* \"#utility.yul\":13172:13265   */\n      tag_234\n      jump\t// in\n    tag_379:\n        /* \"#utility.yul\":13290:13292   */\n      0x40\n        /* \"#utility.yul\":13285:13288   */\n      dup3\n        /* \"#utility.yul\":13281:13293   */\n      add\n        /* \"#utility.yul\":13274:13293   */\n      swap1\n      pop\n        /* \"#utility.yul\":12933:13299   */\n      swap2\n      swap1\n      pop\n      jump\t// out\n        /* \"#utility.yul\":13305:13724   */\n    tag_84:\n        /* \"#utility.yul\":13471:13475   */\n      0x00\n        /* \"#utility.yul\":13509:13511   */\n      0x20\n        /* \"#utility.yul\":13498:13507   */\n      dup3\n        /* \"#utility.yul\":13494:13512   */\n      add\n        /* \"#utility.yul\":13486:13512   */\n      swap1\n      pop\n        /* \"#utility.yul\":13558:13567   */\n      dup2\n        /* \"#utility.yul\":13552:13556   */\n      dup2\n        /* \"#utility.yul\":13548:13568   */\n      sub\n        /* \"#utility.yul\":13544:13545   */\n      0x00\n        /* \"#utility.yul\":13533:13542   */\n      dup4\n        /* \"#utility.yul\":13529:13546   */\n      add\n        /* \"#utility.yul\":13522:13569   */\n      mstore\n        /* \"#utility.yul\":13586:13717   */\n      tag_381\n        /* \"#utility.yul\":13712:13716   */\n      dup2\n        /* \"#utility.yul\":13586:13717   */\n      tag_235\n      jump\t// in\n    tag_381:\n        /* \"#utility.yul\":13578:13717   */\n      swap1\n      pop\n        /* \"#utility.yul\":13305:13724   */\n      swap2\n      swap1\n      pop\n      jump\t// out\n        /* \"#utility.yul\":13730:13910   */\n    tag_236:\n        /* \"#utility.yul\":13778:13855   */\n      0x4e487b7100000000000000000000000000000000000000000000000000000000\n        /* \"#utility.yul\":13775:13776   */\n      0x00\n        /* \"#utility.yul\":13768:13856   */\n      mstore\n        /* \"#utility.yul\":13875:13879   */\n      0x11\n        /* \"#utility.yul\":13872:13873   */\n      0x04\n        /* \"#utility.yul\":13865:13880   */\n      mstore\n        /* \"#utility.yul\":13899:13903   */\n      0x24\n        /* \"#utility.yul\":13896:13897   */\n      0x00\n        /* \"#utility.yul\":13889:13904   */\n      revert\n        /* \"#utility.yul\":13916:14110   */\n    tag_87:\n        /* \"#utility.yul\":13956:13960   */\n      0x00\n        /* \"#utility.yul\":13976:13996   */\n      tag_384\n        /* \"#utility.yul\":13994:13995   */\n      dup3\n        /* \"#utility.yul\":13976:13996   */\n      tag_200\n      jump\t// in\n    tag_384:\n        /* \"#utility.yul\":13971:13996   */\n      swap2\n      pop\n        /* \"#utility.yul\":14010:14030   */\n      tag_385\n        /* \"#utility.yul\":14028:14029   */\n      dup4\n        /* \"#utility.yul\":14010:14030   */\n      tag_200\n      jump\t// in\n    tag_385:\n        /* \"#utility.yul\":14005:14030   */\n      swap3\n      pop\n        /* \"#utility.yul\":14054:14055   */\n      dup3\n        /* \"#utility.yul\":14051:14052   */\n      dup3\n        /* \"#utility.yul\":14047:14056   */\n      sub\n        /* \"#utility.yul\":14039:14056   */\n      swap1\n      pop\n        /* \"#utility.yul\":14078:14079   */\n      dup2\n        /* \"#utility.yul\":14072:14076   */\n      dup2\n        /* \"#utility.yul\":14069:14080   */\n      gt\n        /* \"#utility.yul\":14066:14103   */\n      iszero\n      tag_386\n      jumpi\n        /* \"#utility.yul\":14083:14101   */\n      tag_387\n      tag_236\n      jump\t// in\n    tag_387:\n        /* \"#utility.yul\":14066:14103   */\n    tag_386:\n        /* \"#utility.yul\":13916:14110   */\n      swap3\n      swap2\n      pop\n      pop\n      jump\t// out\n        /* \"#utility.yul\":14116:14448   */\n    tag_89:\n        /* \"#utility.yul\":14237:14241   */\n      0x00\n        /* \"#utility.yul\":14275:14277   */\n      0x40\n        /* \"#utility.yul\":14264:14273   */\n      dup3\n        /* \"#utility.yul\":14260:14278   */\n      add\n        /* \"#utility.yul\":14252:14278   */\n      swap1\n      pop\n        /* \"#utility.yul\":14288:14359   */\n      tag_389\n        /* \"#utility.yul\":14356:14357   */\n      0x00\n        /* \"#utility.yul\":14345:14354   */\n      dup4\n        /* \"#utility.yul\":14341:14358   */\n      add\n        /* \"#utility.yul\":14332:14338   */\n      dup6\n        /* \"#utility.yul\":14288:14359   */\n      tag_210\n      jump\t// in\n    tag_389:\n        /* \"#utility.yul\":14369:14441   */\n      tag_390\n        /* \"#utility.yul\":14437:14439   */\n      0x20\n        /* \"#utility.yul\":14426:14435   */\n      dup4\n        /* \"#utility.yul\":14422:14440   */\n      add\n        /* \"#utility.yul\":14413:14419   */\n      dup5\n        /* \"#utility.yul\":14369:14441   */\n      tag_210\n      jump\t// in\n    tag_390:\n        /* \"#utility.yul\":14116:14448   */\n      swap4\n      swap3\n      pop\n      pop\n      pop\n      jump\t// out\n        /* \"#utility.yul\":14454:14634   */\n    tag_237:\n        /* \"#utility.yul\":14594:14626   */\n      0x4d61726b65743a20546f6b656e204944206973206e6f74206c69737465640000\n        /* \"#utility.yul\":14590:14591   */\n      0x00\n        /* \"#utility.yul\":14582:14588   */\n      dup3\n        /* \"#utility.yul\":14578:14592   */\n      add\n        /* \"#utility.yul\":14571:14627   */\n      mstore\n        /* \"#utility.yul\":14454:14634   */\n      pop\n      jump\t// out\n        /* \"#utility.yul\":14640:15006   */\n    tag_238:\n        /* \"#utility.yul\":14782:14785   */\n      0x00\n        /* \"#utility.yul\":14803:14870   */\n      tag_393\n        /* \"#utility.yul\":14867:14869   */\n      0x1e\n        /* \"#utility.yul\":14862:14865   */\n      dup4\n        /* \"#utility.yul\":14803:14870   */\n      tag_229\n      jump\t// in\n    tag_393:\n        /* \"#utility.yul\":14796:14870   */\n      swap2\n      pop\n        /* \"#utility.yul\":14879:14972   */\n      tag_394\n        /* \"#utility.yul\":14968:14971   */\n      dup3\n        /* \"#utility.yul\":14879:14972   */\n      tag_237\n      jump\t// in\n    tag_394:\n        /* \"#utility.yul\":14997:14999   */\n      0x20\n        /* \"#utility.yul\":14992:14995   */\n      dup3\n        /* \"#utility.yul\":14988:15000   */\n      add\n        /* \"#utility.yul\":14981:15000   */\n      swap1\n      pop\n        /* \"#utility.yul\":14640:15006   */\n      swap2\n      swap1\n      pop\n      jump\t// out\n        /* \"#utility.yul\":15012:15431   */\n    tag_94:\n        /* \"#utility.yul\":15178:15182   */\n      0x00\n        /* \"#utility.yul\":15216:15218   */\n      0x20\n        /* \"#utility.yul\":15205:15214   */\n      dup3\n        /* \"#utility.yul\":15201:15219   */\n      add\n        /* \"#utility.yul\":15193:15219   */\n      swap1\n      pop\n        /* \"#utility.yul\":15265:15274   */\n      dup2\n        /* \"#utility.yul\":15259:15263   */\n      dup2\n        /* \"#utility.yul\":15255:15275   */\n      sub\n        /* \"#utility.yul\":15251:15252   */\n      0x00\n        /* \"#utility.yul\":15240:15249   */\n      dup4\n        /* \"#utility.yul\":15236:15253   */\n      add\n        /* \"#utility.yul\":15229:15276   */\n      mstore\n        /* \"#utility.yul\":15293:15424   */\n      tag_396\n        /* \"#utility.yul\":15419:15423   */\n      dup2\n        /* \"#utility.yul\":15293:15424   */\n      tag_238\n      jump\t// in\n    tag_396:\n        /* \"#utility.yul\":15285:15424   */\n      swap1\n      pop\n        /* \"#utility.yul\":15012:15431   */\n      swap2\n      swap1\n      pop\n      jump\t// out\n        /* \"#utility.yul\":15437:15660   */\n    tag_239:\n        /* \"#utility.yul\":15577:15611   */\n      0x4d61726b65743a204f6e6c792073656c6c65722063616e2063616e63656c206f\n        /* \"#utility.yul\":15573:15574   */\n      0x00\n        /* \"#utility.yul\":15565:15571   */\n      dup3\n        /* \"#utility.yul\":15561:15575   */\n      add\n        /* \"#utility.yul\":15554:15612   */\n      mstore\n        /* \"#utility.yul\":15646:15652   */\n      0x7264657200000000000000000000000000000000000000000000000000000000\n        /* \"#utility.yul\":15641:15643   */\n      0x20\n        /* \"#utility.yul\":15633:15639   */\n      dup3\n        /* \"#utility.yul\":15629:15644   */\n      add\n        /* \"#utility.yul\":15622:15653   */\n      mstore\n        /* \"#utility.yul\":15437:15660   */\n      pop\n      jump\t// out\n        /* \"#utility.yul\":15666:16032   */\n    tag_240:\n        /* \"#utility.yul\":15808:15811   */\n      0x00\n        /* \"#utility.yul\":15829:15896   */\n      tag_399\n        /* \"#utility.yul\":15893:15895   */\n      0x24\n        /* \"#utility.yul\":15888:15891   */\n      dup4\n        /* \"#utility.yul\":15829:15896   */\n      tag_229\n      jump\t// in\n    tag_399:\n        /* \"#utility.yul\":15822:15896   */\n      swap2\n      pop\n        /* \"#utility.yul\":15905:15998   */\n      tag_400\n        /* \"#utility.yul\":15994:15997   */\n      dup3\n        /* \"#utility.yul\":15905:15998   */\n      tag_239\n      jump\t// in\n    tag_400:\n        /* \"#utility.yul\":16023:16025   */\n      0x40\n        /* \"#utility.yul\":16018:16021   */\n      dup3\n        /* \"#utility.yul\":16014:16026   */\n      add\n        /* \"#utility.yul\":16007:16026   */\n      swap1\n      pop\n        /* \"#utility.yul\":15666:16032   */\n      swap2\n      swap1\n      pop\n      jump\t// out\n        /* \"#utility.yul\":16038:16457   */\n    tag_97:\n        /* \"#utility.yul\":16204:16208   */\n      0x00\n        /* \"#utility.yul\":16242:16244   */\n      0x20\n        /* \"#utility.yul\":16231:16240   */\n      dup3\n        /* \"#utility.yul\":16227:16245   */\n      add\n        /* \"#utility.yul\":16219:16245   */\n      swap1\n      pop\n        /* \"#utility.yul\":16291:16300   */\n      dup2\n        /* \"#utility.yul\":16285:16289   */\n      dup2\n        /* \"#utility.yul\":16281:16301   */\n      sub\n        /* \"#utility.yul\":16277:16278   */\n      0x00\n        /* \"#utility.yul\":16266:16275   */\n      dup4\n        /* \"#utility.yul\":16262:16279   */\n      add\n        /* \"#utility.yul\":16255:16302   */\n      mstore\n        /* \"#utility.yul\":16319:16450   */\n      tag_402\n        /* \"#utility.yul\":16445:16449   */\n      dup2\n        /* \"#utility.yul\":16319:16450   */\n      tag_240\n      jump\t// in\n    tag_402:\n        /* \"#utility.yul\":16311:16450   */\n      swap1\n      pop\n        /* \"#utility.yul\":16038:16457   */\n      swap2\n      swap1\n      pop\n      jump\t// out\n        /* \"#utility.yul\":16463:16905   */\n    tag_99:\n        /* \"#utility.yul\":16612:16616   */\n      0x00\n        /* \"#utility.yul\":16650:16652   */\n      0x60\n        /* \"#utility.yul\":16639:16648   */\n      dup3\n        /* \"#utility.yul\":16635:16653   */\n      add\n        /* \"#utility.yul\":16627:16653   */\n      swap1\n      pop\n        /* \"#utility.yul\":16663:16734   */\n      tag_404\n        /* \"#utility.yul\":16731:16732   */\n      0x00\n        /* \"#utility.yul\":16720:16729   */\n      dup4\n        /* \"#utility.yul\":16716:16733   */\n      add\n        /* \"#utility.yul\":16707:16713   */\n      dup7\n        /* \"#utility.yul\":16663:16734   */\n      tag_209\n      jump\t// in\n    tag_404:\n        /* \"#utility.yul\":16744:16816   */\n      tag_405\n        /* \"#utility.yul\":16812:16814   */\n      0x20\n        /* \"#utility.yul\":16801:16810   */\n      dup4\n        /* \"#utility.yul\":16797:16815   */\n      add\n        /* \"#utility.yul\":16788:16794   */\n      dup6\n        /* \"#utility.yul\":16744:16816   */\n      tag_209\n      jump\t// in\n    tag_405:\n        /* \"#utility.yul\":16826:16898   */\n      tag_406\n        /* \"#utility.yul\":16894:16896   */\n      0x40\n        /* \"#utility.yul\":16883:16892   */\n      dup4\n        /* \"#utility.yul\":16879:16897   */\n      add\n        /* \"#utility.yul\":16870:16876   */\n      dup5\n        /* \"#utility.yul\":16826:16898   */\n      tag_210\n      jump\t// in\n    tag_406:\n        /* \"#utility.yul\":16463:16905   */\n      swap5\n      swap4\n      pop\n      pop\n      pop\n      pop\n      jump\t// out\n        /* \"#utility.yul\":16911:17091   */\n    tag_109:\n        /* \"#utility.yul\":16959:17036   */\n      0x4e487b7100000000000000000000000000000000000000000000000000000000\n        /* \"#utility.yul\":16956:16957   */\n      0x00\n        /* \"#utility.yul\":16949:17037   */\n      mstore\n        /* \"#utility.yul\":17056:17060   */\n      0x41\n        /* \"#utility.yul\":17053:17054   */\n      0x04\n        /* \"#utility.yul\":17046:17061   */\n      mstore\n        /* \"#utility.yul\":17080:17084   */\n      0x24\n        /* \"#utility.yul\":17077:17078   */\n      0x00\n        /* \"#utility.yul\":17070:17085   */\n      revert\n        /* \"#utility.yul\":17097:17277   */\n    tag_119:\n        /* \"#utility.yul\":17145:17222   */\n      0x4e487b7100000000000000000000000000000000000000000000000000000000\n        /* \"#utility.yul\":17142:17143   */\n      0x00\n        /* \"#utility.yul\":17135:17223   */\n      mstore\n        /* \"#utility.yul\":17242:17246   */\n      0x32\n        /* \"#utility.yul\":17239:17240   */\n      0x04\n        /* \"#utility.yul\":17232:17247   */\n      mstore\n        /* \"#utility.yul\":17266:17270   */\n      0x24\n        /* \"#utility.yul\":17263:17264   */\n      0x00\n        /* \"#utility.yul\":17256:17271   */\n      revert\n        /* \"#utility.yul\":17283:17516   */\n    tag_128:\n        /* \"#utility.yul\":17322:17325   */\n      0x00\n        /* \"#utility.yul\":17345:17369   */\n      tag_410\n        /* \"#utility.yul\":17363:17368   */\n      dup3\n        /* \"#utility.yul\":17345:17369   */\n      tag_200\n      jump\t// in\n    tag_410:\n        /* \"#utility.yul\":17336:17369   */\n      swap2\n      pop\n        /* \"#utility.yul\":17391:17457   */\n      0xffffffffffffffffffffffffffffffffffffffffffffffffffffffffffffffff\n        /* \"#utility.yul\":17384:17389   */\n      dup3\n        /* \"#utility.yul\":17381:17458   */\n      sub\n        /* \"#utility.yul\":17378:17481   */\n      tag_411\n      jumpi\n        /* \"#utility.yul\":17461:17479   */\n      tag_412\n      tag_236\n      jump\t// in\n    tag_412:\n        /* \"#utility.yul\":17378:17481   */\n    tag_411:\n        /* \"#utility.yul\":17508:17509   */\n      0x01\n        /* \"#utility.yul\":17501:17506   */\n      dup3\n        /* \"#utility.yul\":17497:17510   */\n      add\n        /* \"#utility.yul\":17490:17510   */\n      swap1\n      pop\n        /* \"#utility.yul\":17283:17516   */\n      swap2\n      swap1\n      pop\n      jump\t// out\n        /* \"#utility.yul\":17522:17745   */\n    tag_241:\n        /* \"#utility.yul\":17662:17696   */\n      0x4d61726b65743a204f6e6c792073656c6c65722063616e206368616e67652070\n        /* \"#utility.yul\":17658:17659   */\n      0x00\n        /* \"#utility.yul\":17650:17656   */\n      dup3\n        /* \"#utility.yul\":17646:17660   */\n      add\n        /* \"#utility.yul\":17639:17697   */\n      mstore\n        /* \"#utility.yul\":17731:17737   */\n      0x7269636500000000000000000000000000000000000000000000000000000000\n        /* \"#utility.yul\":17726:17728   */\n      0x20\n        /* \"#utility.yul\":17718:17724   */\n      dup3\n        /* \"#utility.yul\":17714:17729   */\n      add\n        /* \"#utility.yul\":17707:17738   */\n      mstore\n        /* \"#utility.yul\":17522:17745   */\n      pop\n      jump\t// out\n        /* \"#utility.yul\":17751:18117   */\n    tag_242:\n        /* \"#utility.yul\":17893:17896   */\n      0x00\n        /* \"#utility.yul\":17914:17981   */\n      tag_415\n        /* \"#utility.yul\":17978:17980   */\n      0x24\n        /* \"#utility.yul\":17973:17976   */\n      dup4\n        /* \"#utility.yul\":17914:17981   */\n      tag_229\n      jump\t// in\n    tag_415:\n        /* \"#utility.yul\":17907:17981   */\n      swap2\n      pop\n        /* \"#utility.yul\":17990:18083   */\n      tag_416\n        /* \"#utility.yul\":18079:18082   */\n      dup3\n        /* \"#utility.yul\":17990:18083   */\n      tag_241\n      jump\t// in\n    tag_416:\n        /* \"#utility.yul\":18108:18110   */\n      0x40\n        /* \"#utility.yul\":18103:18106   */\n      dup3\n        /* \"#utility.yul\":18099:18111   */\n      add\n        /* \"#utility.yul\":18092:18111   */\n      swap1\n      pop\n        /* \"#utility.yul\":17751:18117   */\n      swap2\n      swap1\n      pop\n      jump\t// out\n        /* \"#utility.yul\":18123:18542   */\n    tag_138:\n        /* \"#utility.yul\":18289:18293   */\n      0x00\n        /* \"#utility.yul\":18327:18329   */\n      0x20\n        /* \"#utility.yul\":18316:18325   */\n      dup3\n        /* \"#utility.yul\":18312:18330   */\n      add\n        /* \"#utility.yul\":18304:18330   */\n      swap1\n      pop\n        /* \"#utility.yul\":18376:18385   */\n      dup2\n        /* \"#utility.yul\":18370:18374   */\n      dup2\n        /* \"#utility.yul\":18366:18386   */\n      sub\n        /* \"#utility.yul\":18362:18363   */\n      0x00\n        /* \"#utility.yul\":18351:18360   */\n      dup4\n        /* \"#utility.yul\":18347:18364   */\n      add\n        /* \"#utility.yul\":18340:18387   */\n      mstore\n        /* \"#utility.yul\":18404:18535   */\n      tag_418\n        /* \"#utility.yul\":18530:18534   */\n      dup2\n        /* \"#utility.yul\":18404:18535   */\n      tag_242\n      jump\t// in\n    tag_418:\n        /* \"#utility.yul\":18396:18535   */\n      swap1\n      pop\n        /* \"#utility.yul\":18123:18542   */\n      swap2\n      swap1\n      pop\n      jump\t// out\n        /* \"#utility.yul\":18548:18990   */\n    tag_143:\n        /* \"#utility.yul\":18697:18701   */\n      0x00\n        /* \"#utility.yul\":18735:18737   */\n      0x60\n        /* \"#utility.yul\":18724:18733   */\n      dup3\n        /* \"#utility.yul\":18720:18738   */\n      add\n        /* \"#utility.yul\":18712:18738   */\n      swap1\n      pop\n        /* \"#utility.yul\":18748:18819   */\n      tag_420\n        /* \"#utility.yul\":18816:18817   */\n      0x00\n        /* \"#utility.yul\":18805:18814   */\n      dup4\n        /* \"#utility.yul\":18801:18818   */\n      add\n        /* \"#utility.yul\":18792:18798   */\n      dup7\n        /* \"#utility.yul\":18748:18819   */\n      tag_210\n      jump\t// in\n    tag_420:\n        /* \"#utility.yul\":18829:18901   */\n      tag_421\n        /* \"#utility.yul\":18897:18899   */\n      0x20\n        /* \"#utility.yul\":18886:18895   */\n      dup4\n        /* \"#utility.yul\":18882:18900   */\n      add\n        /* \"#utility.yul\":18873:18879   */\n      dup6\n        /* \"#utility.yul\":18829:18901   */\n      tag_210\n      jump\t// in\n    tag_421:\n        /* \"#utility.yul\":18911:18983   */\n      tag_422\n        /* \"#utility.yul\":18979:18981   */\n      0x40\n        /* \"#utility.yul\":18968:18977   */\n      dup4\n        /* \"#utility.yul\":18964:18982   */\n      add\n        /* \"#utility.yul\":18955:18961   */\n      dup5\n        /* \"#utility.yul\":18911:18983   */\n      tag_210\n      jump\t// in\n    tag_422:\n        /* \"#utility.yul\":18548:18990   */\n      swap5\n      swap4\n      pop\n      pop\n      pop\n      pop\n      jump\t// out\n        /* \"#utility.yul\":18996:19173   */\n    tag_243:\n        /* \"#utility.yul\":19136:19165   */\n      0x4d61726b65743a205072696365206973206e6f742065686f7567680000000000\n        /* \"#utility.yul\":19132:19133   */\n      0x00\n        /* \"#utility.yul\":19124:19130   */\n      dup3\n        /* \"#utility.yul\":19120:19134   */\n      add\n        /* \"#utility.yul\":19113:19166   */\n      mstore\n        /* \"#utility.yul\":18996:19173   */\n      pop\n      jump\t// out\n        /* \"#utility.yul\":19179:19545   */\n    tag_244:\n        /* \"#utility.yul\":19321:19324   */\n      0x00\n        /* \"#utility.yul\":19342:19409   */\n      tag_425\n        /* \"#utility.yul\":19406:19408   */\n      0x1b\n        /* \"#utility.yul\":19401:19404   */\n      dup4\n        /* \"#utility.yul\":19342:19409   */\n      tag_229\n      jump\t// in\n    tag_425:\n        /* \"#utility.yul\":19335:19409   */\n      swap2\n      pop\n        /* \"#utility.yul\":19418:19511   */\n      tag_426\n        /* \"#utility.yul\":19507:19510   */\n      dup3\n        /* \"#utility.yul\":19418:19511   */\n      tag_243\n      jump\t// in\n    tag_426:\n        /* \"#utility.yul\":19536:19538   */\n      0x20\n        /* \"#utility.yul\":19531:19534   */\n      dup3\n        /* \"#utility.yul\":19527:19539   */\n      add\n        /* \"#utility.yul\":19520:19539   */\n      swap1\n      pop\n        /* \"#utility.yul\":19179:19545   */\n      swap2\n      swap1\n      pop\n      jump\t// out\n        /* \"#utility.yul\":19551:19970   */\n    tag_150:\n        /* \"#utility.yul\":19717:19721   */\n      0x00\n        /* \"#utility.yul\":19755:19757   */\n      0x20\n        /* \"#utility.yul\":19744:19753   */\n      dup3\n        /* \"#utility.yul\":19740:19758   */\n      add\n        /* \"#utility.yul\":19732:19758   */\n      swap1\n      pop\n        /* \"#utility.yul\":19804:19813   */\n      dup2\n        /* \"#utility.yul\":19798:19802   */\n      dup2\n        /* \"#utility.yul\":19794:19814   */\n      sub\n        /* \"#utility.yul\":19790:19791   */\n      0x00\n        /* \"#utility.yul\":19779:19788   */\n      dup4\n        /* \"#utility.yul\":19775:19792   */\n      add\n        /* \"#utility.yul\":19768:19815   */\n      mstore\n        /* \"#utility.yul\":19832:19963   */\n      tag_428\n        /* \"#utility.yul\":19958:19962   */\n      dup2\n        /* \"#utility.yul\":19832:19963   */\n      tag_244\n      jump\t// in\n    tag_428:\n        /* \"#utility.yul\":19824:19963   */\n      swap1\n      pop\n        /* \"#utility.yul\":19551:19970   */\n      swap2\n      swap1\n      pop\n      jump\t// out\n        /* \"#utility.yul\":19976:20092   */\n    tag_245:\n        /* \"#utility.yul\":20046:20067   */\n      tag_430\n        /* \"#utility.yul\":20061:20066   */\n      dup2\n        /* \"#utility.yul\":20046:20067   */\n      tag_227\n      jump\t// in\n    tag_430:\n        /* \"#utility.yul\":20039:20044   */\n      dup2\n        /* \"#utility.yul\":20036:20068   */\n      eq\n        /* \"#utility.yul\":20026:20086   */\n      tag_431\n      jumpi\n        /* \"#utility.yul\":20082:20083   */\n      0x00\n        /* \"#utility.yul\":20079:20080   */\n      dup1\n        /* \"#utility.yul\":20072:20084   */\n      revert\n        /* \"#utility.yul\":20026:20086   */\n    tag_431:\n        /* \"#utility.yul\":19976:20092   */\n      pop\n      jump\t// out\n        /* \"#utility.yul\":20098:20235   */\n    tag_246:\n        /* \"#utility.yul\":20152:20157   */\n      0x00\n        /* \"#utility.yul\":20183:20189   */\n      dup2\n        /* \"#utility.yul\":20177:20190   */\n      mload\n        /* \"#utility.yul\":20168:20190   */\n      swap1\n      pop\n        /* \"#utility.yul\":20199:20229   */\n      tag_433\n        /* \"#utility.yul\":20223:20228   */\n      dup2\n        /* \"#utility.yul\":20199:20229   */\n      tag_245\n      jump\t// in\n    tag_433:\n        /* \"#utility.yul\":20098:20235   */\n      swap3\n      swap2\n      pop\n      pop\n      jump\t// out\n        /* \"#utility.yul\":20241:20586   */\n    tag_155:\n        /* \"#utility.yul\":20308:20314   */\n      0x00\n        /* \"#utility.yul\":20357:20359   */\n      0x20\n        /* \"#utility.yul\":20345:20354   */\n      dup3\n        /* \"#utility.yul\":20336:20343   */\n      dup5\n        /* \"#utility.yul\":20332:20355   */\n      sub\n        /* \"#utility.yul\":20328:20360   */\n      slt\n        /* \"#utility.yul\":20325:20444   */\n      iszero\n      tag_435\n      jumpi\n        /* \"#utility.yul\":20363:20442   */\n      tag_436\n      tag_194\n      jump\t// in\n    tag_436:\n        /* \"#utility.yul\":20325:20444   */\n    tag_435:\n        /* \"#utility.yul\":20483:20484   */\n      0x00\n        /* \"#utility.yul\":20508:20569   */\n      tag_437\n        /* \"#utility.yul\":20561:20568   */\n      dup5\n        /* \"#utility.yul\":20552:20558   */\n      dup3\n        /* \"#utility.yul\":20541:20550   */\n      dup6\n        /* \"#utility.yul\":20537:20559   */\n      add\n        /* \"#utility.yul\":20508:20569   */\n      tag_246\n      jump\t// in\n    tag_437:\n        /* \"#utility.yul\":20498:20569   */\n      swap2\n      pop\n        /* \"#utility.yul\":20454:20579   */\n      pop\n        /* \"#utility.yul\":20241:20586   */\n      swap3\n      swap2\n      pop\n      pop\n      jump\t// out\n        /* \"#utility.yul\":20592:20765   */\n    tag_247:\n        /* \"#utility.yul\":20732:20757   */\n      0x4d61726b65743a205472616e73666572206661696c6564000000000000000000\n        /* \"#utility.yul\":20728:20729   */\n      0x00\n        /* \"#utility.yul\":20720:20726   */\n      dup3\n        /* \"#utility.yul\":20716:20730   */\n      add\n        /* \"#utility.yul\":20709:20758   */\n      mstore\n        /* \"#utility.yul\":20592:20765   */\n      pop\n      jump\t// out\n        /* \"#utility.yul\":20771:21137   */\n    tag_248:\n        /* \"#utility.yul\":20913:20916   */\n      0x00\n        /* \"#utility.yul\":20934:21001   */\n      tag_440\n        /* \"#utility.yul\":20998:21000   */\n      0x17\n        /* \"#utility.yul\":20993:20996   */\n      dup4\n        /* \"#utility.yul\":20934:21001   */\n      tag_229\n      jump\t// in\n    tag_440:\n        /* \"#utility.yul\":20927:21001   */\n      swap2\n      pop\n        /* \"#utility.yul\":21010:21103   */\n      tag_441\n        /* \"#utility.yul\":21099:21102   */\n      dup3\n        /* \"#utility.yul\":21010:21103   */\n      tag_247\n      jump\t// in\n    tag_441:\n        /* \"#utility.yul\":21128:21130   */\n      0x20\n        /* \"#utility.yul\":21123:21126   */\n      dup3\n        /* \"#utility.yul\":21119:21131   */\n      add\n        /* \"#utility.yul\":21112:21131   */\n      swap1\n      pop\n        /* \"#utility.yul\":20771:21137   */\n      swap2\n      swap1\n      pop\n      jump\t// out\n        /* \"#utility.yul\":21143:21562   */\n    tag_158:\n        /* \"#utility.yul\":21309:21313   */\n      0x00\n        /* \"#utility.yul\":21347:21349   */\n      0x20\n        /* \"#utility.yul\":21336:21345   */\n      dup3\n        /* \"#utility.yul\":21332:21350   */\n      add\n        /* \"#utility.yul\":21324:21350   */\n      swap1\n      pop\n        /* \"#utility.yul\":21396:21405   */\n      dup2\n        /* \"#utility.yul\":21390:21394   */\n      dup2\n        /* \"#utility.yul\":21386:21406   */\n      sub\n        /* \"#utility.yul\":21382:21383   */\n      0x00\n        /* \"#utility.yul\":21371:21380   */\n      dup4\n        /* \"#utility.yul\":21367:21384   */\n      add\n        /* \"#utility.yul\":21360:21407   */\n      mstore\n        /* \"#utility.yul\":21424:21555   */\n      tag_443\n        /* \"#utility.yul\":21550:21554   */\n      dup2\n        /* \"#utility.yul\":21424:21555   */\n      tag_248\n      jump\t// in\n    tag_443:\n        /* \"#utility.yul\":21416:21555   */\n      swap1\n      pop\n        /* \"#utility.yul\":21143:21562   */\n      swap2\n      swap1\n      pop\n      jump\t// out\n        /* \"#utility.yul\":21568:21759   */\n    tag_172:\n        /* \"#utility.yul\":21608:21611   */\n      0x00\n        /* \"#utility.yul\":21627:21647   */\n      tag_445\n        /* \"#utility.yul\":21645:21646   */\n      dup3\n        /* \"#utility.yul\":21627:21647   */\n      tag_200\n      jump\t// in\n    tag_445:\n        /* \"#utility.yul\":21622:21647   */\n      swap2\n      pop\n        /* \"#utility.yul\":21661:21681   */\n      tag_446\n        /* \"#utility.yul\":21679:21680   */\n      dup4\n        /* \"#utility.yul\":21661:21681   */\n      tag_200\n      jump\t// in\n    tag_446:\n        /* \"#utility.yul\":21656:21681   */\n      swap3\n      pop\n        /* \"#utility.yul\":21704:21705   */\n      dup3\n        /* \"#utility.yul\":21701:21702   */\n      dup3\n        /* \"#utility.yul\":21697:21706   */\n      add\n        /* \"#utility.yul\":21690:21706   */\n      swap1\n      pop\n        /* \"#utility.yul\":21725:21728   */\n      dup1\n        /* \"#utility.yul\":21722:21723   */\n      dup3\n        /* \"#utility.yul\":21719:21729   */\n      gt\n        /* \"#utility.yul\":21716:21752   */\n      iszero\n      tag_447\n      jumpi\n        /* \"#utility.yul\":21732:21750   */\n      tag_448\n      tag_236\n      jump\t// in\n    tag_448:\n        /* \"#utility.yul\":21716:21752   */\n    tag_447:\n        /* \"#utility.yul\":21568:21759   */\n      swap3\n      swap2\n      pop\n      pop\n      jump\t// out\n        /* \"#utility.yul\":21765:21942   */\n    tag_249:\n        /* \"#utility.yul\":21905:21934   */\n      0x4d61726b65743a20746f55696e74206f7574206f662072616e67650000000000\n        /* \"#utility.yul\":21901:21902   */\n      0x00\n        /* \"#utility.yul\":21893:21899   */\n      dup3\n        /* \"#utility.yul\":21889:21903   */\n      add\n        /* \"#utility.yul\":21882:21935   */\n      mstore\n        /* \"#utility.yul\":21765:21942   */\n      pop\n      jump\t// out\n        /* \"#utility.yul\":21948:22314   */\n    tag_250:\n        /* \"#utility.yul\":22090:22093   */\n      0x00\n        /* \"#utility.yul\":22111:22178   */\n      tag_451\n        /* \"#utility.yul\":22175:22177   */\n      0x1b\n        /* \"#utility.yul\":22170:22173   */\n      dup4\n        /* \"#utility.yul\":22111:22178   */\n      tag_229\n      jump\t// in\n    tag_451:\n        /* \"#utility.yul\":22104:22178   */\n      swap2\n      pop\n        /* \"#utility.yul\":22187:22280   */\n      tag_452\n        /* \"#utility.yul\":22276:22279   */\n      dup3\n        /* \"#utility.yul\":22187:22280   */\n      tag_249\n      jump\t// in\n    tag_452:\n        /* \"#utility.yul\":22305:22307   */\n      0x20\n        /* \"#utility.yul\":22300:22303   */\n      dup3\n        /* \"#utility.yul\":22296:22308   */\n      add\n        /* \"#utility.yul\":22289:22308   */\n      swap1\n      pop\n        /* \"#utility.yul\":21948:22314   */\n      swap2\n      swap1\n      pop\n      jump\t// out\n        /* \"#utility.yul\":22320:22739   */\n    tag_175:\n        /* \"#utility.yul\":22486:22490   */\n      0x00\n        /* \"#utility.yul\":22524:22526   */\n      0x20\n        /* \"#utility.yul\":22513:22522   */\n      dup3\n        /* \"#utility.yul\":22509:22527   */\n      add\n        /* \"#utility.yul\":22501:22527   */\n      swap1\n      pop\n        /* \"#utility.yul\":22573:22582   */\n      dup2\n        /* \"#utility.yul\":22567:22571   */\n      dup2\n        /* \"#utility.yul\":22563:22583   */\n      sub\n        /* \"#utility.yul\":22559:22560   */\n      0x00\n        /* \"#utility.yul\":22548:22557   */\n      dup4\n        /* \"#utility.yul\":22544:22561   */\n      add\n        /* \"#utility.yul\":22537:22584   */\n      mstore\n        /* \"#utility.yul\":22601:22732   */\n      tag_454\n        /* \"#utility.yul\":22727:22731   */\n      dup2\n        /* \"#utility.yul\":22601:22732   */\n      tag_250\n      jump\t// in\n    tag_454:\n        /* \"#utility.yul\":22593:22732   */\n      swap1\n      pop\n        /* \"#utility.yul\":22320:22739   */\n      swap2\n      swap1\n      pop\n      jump\t// out\n        /* \"#utility.yul\":22745:22925   */\n    tag_251:\n        /* \"#utility.yul\":22885:22917   */\n      0x4d61726b65743a20746f55696e74323536206f7574206f662072616e67650000\n        /* \"#utility.yul\":22881:22882   */\n      0x00\n        /* \"#utility.yul\":22873:22879   */\n      dup3\n        /* \"#utility.yul\":22869:22883   */\n      add\n        /* \"#utility.yul\":22862:22918   */\n      mstore\n        /* \"#utility.yul\":22745:22925   */\n      pop\n      jump\t// out\n        /* \"#utility.yul\":22931:23297   */\n    tag_252:\n        /* \"#utility.yul\":23073:23076   */\n      0x00\n        /* \"#utility.yul\":23094:23161   */\n      tag_457\n        /* \"#utility.yul\":23158:23160   */\n      0x1e\n        /* \"#utility.yul\":23153:23156   */\n      dup4\n        /* \"#utility.yul\":23094:23161   */\n      tag_229\n      jump\t// in\n    tag_457:\n        /* \"#utility.yul\":23087:23161   */\n      swap2\n      pop\n        /* \"#utility.yul\":23170:23263   */\n      tag_458\n        /* \"#utility.yul\":23259:23262   */\n      dup3\n        /* \"#utility.yul\":23170:23263   */\n      tag_251\n      jump\t// in\n    tag_458:\n        /* \"#utility.yul\":23288:23290   */\n      0x20\n        /* \"#utility.yul\":23283:23286   */\n      dup3\n        /* \"#utility.yul\":23279:23291   */\n      add\n        /* \"#utility.yul\":23272:23291   */\n      swap1\n      pop\n        /* \"#utility.yul\":22931:23297   */\n      swap2\n      swap1\n      pop\n      jump\t// out\n        /* \"#utility.yul\":23303:23722   */\n    tag_179:\n        /* \"#utility.yul\":23469:23473   */\n      0x00\n        /* \"#utility.yul\":23507:23509   */\n      0x20\n        /* \"#utility.yul\":23496:23505   */\n      dup3\n        /* \"#utility.yul\":23492:23510   */\n      add\n        /* \"#utility.yul\":23484:23510   */\n      swap1\n      pop\n        /* \"#utility.yul\":23556:23565   */\n      dup2\n        /* \"#utility.yul\":23550:23554   */\n      dup2\n        /* \"#utility.yul\":23546:23566   */\n      sub\n        /* \"#utility.yul\":23542:23543   */\n      0x00\n        /* \"#utility.yul\":23531:23540   */\n      dup4\n        /* \"#utility.yul\":23527:23544   */\n      add\n        /* \"#utility.yul\":23520:23567   */\n      mstore\n        /* \"#utility.yul\":23584:23715   */\n      tag_460\n        /* \"#utility.yul\":23710:23714   */\n      dup2\n        /* \"#utility.yul\":23584:23715   */\n      tag_252\n      jump\t// in\n    tag_460:\n        /* \"#utility.yul\":23576:23715   */\n      swap1\n      pop\n        /* \"#utility.yul\":23303:23722   */\n      swap2\n      swap1\n      pop\n      jump\t// out\n        /* \"#utility.yul\":23728:23908   */\n    tag_191:\n        /* \"#utility.yul\":23776:23853   */\n      0x4e487b7100000000000000000000000000000000000000000000000000000000\n        /* \"#utility.yul\":23773:23774   */\n      0x00\n        /* \"#utility.yul\":23766:23854   */\n      mstore\n        /* \"#utility.yul\":23873:23877   */\n      0x31\n        /* \"#utility.yul\":23870:23871   */\n      0x04\n        /* \"#utility.yul\":23863:23878   */\n      mstore\n        /* \"#utility.yul\":23897:23901   */\n      0x24\n        /* \"#utility.yul\":23894:23895   */\n      0x00\n        /* \"#utility.yul\":23887:23902   */\n      revert\n\n    auxdata: 0xa264697066735822122024d63a0b8d0951a0c414d79958f79147f7ab8275628852d643995431aa5d99a664736f6c63430008160033\n}\n",
				"bytecode": {
					"linkReferences": {},
					"object": "608060405234801562000010575f80fd5b50604051620021ee380380620021ee833981810160405281019062000036919062000259565b5f73ffffffffffffffffffffffffffffffffffffffff168273ffffffffffffffffffffffffffffffffffffffff1603620000a7576040517f08c379a00000000000000000000000000000000000000000000000000000000081526004016200009e90620002fc565b60405180910390fd5b5f73ffffffffffffffffffffffffffffffffffffffff168173ffffffffffffffffffffffffffffffffffffffff160362000118576040517f08c379a00000000000000000000000000000000000000000000000000000000081526004016200010f906200036a565b60405180910390fd5b815f806101000a81548173ffffffffffffffffffffffffffffffffffffffff021916908373ffffffffffffffffffffffffffffffffffffffff1602179055508060015f6101000a81548173ffffffffffffffffffffffffffffffffffffffff021916908373ffffffffffffffffffffffffffffffffffffffff16021790555050506200038a565b5f80fd5b5f73ffffffffffffffffffffffffffffffffffffffff82169050919050565b5f620001ce82620001a3565b9050919050565b5f620001e182620001c2565b9050919050565b620001f381620001d5565b8114620001fe575f80fd5b50565b5f815190506200021181620001e8565b92915050565b5f6200022382620001c2565b9050919050565b620002358162000217565b811462000240575f80fd5b50565b5f8151905062000253816200022a565b92915050565b5f80604083850312156200027257620002716200019f565b5b5f620002818582860162000201565b9250506020620002948582860162000243565b9150509250929050565b5f82825260208201905092915050565b7f4d61726b65743a20496e76616c696420455243323020546f6b656e00000000005f82015250565b5f620002e4601b836200029e565b9150620002f182620002ae565b602082019050919050565b5f6020820190508181035f8301526200031581620002d6565b9050919050565b7f4d61726b65743a20496e76616c69642045524337323120546f6b656e000000005f82015250565b5f62000352601c836200029e565b91506200035f826200031c565b602082019050919050565b5f6020820190508181035f830152620003838162000344565b9050919050565b611e5680620003985f395ff3fe608060405234801561000f575f80fd5b50600436106100cd575f3560e01c8063a85c38ef1161008a578063d6febde811610064578063d6febde814610215578063da694df014610231578063e0391b0914610261578063fcce48831461027f576100cd565b8063a85c38ef146101a9578063b3de019c146101db578063bca6ce64146101f7576100cd565b8063150b7a02146100d157806343b7bd8d14610101578063514fcac714610133578063629cb2e41461014f578063785e9e861461016d5780639d4971b71461018b575b5f80fd5b6100eb60048036038101906100e69190611395565b6102af565b6040516100f89190611453565b60405180910390f35b61011b6004803603810190610116919061146c565b6105d4565b60405161012a939291906114b5565b60405180910390f35b61014d6004803603810190610148919061146c565b610619565b005b6101576107e6565b60405161016491906115f0565b60405180910390f35b61017561099e565b604051610182919061166b565b60405180910390f35b6101936109c1565b6040516101a09190611684565b60405180910390f35b6101c360048036038101906101be919061146c565b6109cd565b6040516101d2939291906114b5565b60405180910390f35b6101f560048036038101906101f0919061169d565b610a21565b005b6101ff610bcf565b60405161020c91906116fb565b60405180910390f35b61022f600480360381019061022a919061169d565b610bf4565b005b61024b6004803603810190610246919061146c565b610ead565b6040516102589190611684565b60405180910390f35b610269610ec2565b60405161027691906115f0565b60405180910390f35b6102996004803603810190610294919061146c565b610f86565b6040516102a6919061172e565b60405180910390f35b5f806102fe84848080601f0160208091040260200160405190810160405280939291908181526020018383808284375f81840152601f19601f820116905080830192505050505050505f610ff0565b90505f8111610342576040517f08c379a0000000000000000000000000000000000000000000000000000000008152600401610339906117a1565b60405180910390fd5b5f73ffffffffffffffffffffffffffffffffffffffff168673ffffffffffffffffffffffffffffffffffffffff16036103b0576040517f08c379a00000000000000000000000000000000000000000000000000000000081526004016103a790611809565b60405180910390fd5b6103b985610f86565b156103f9576040517f08c379a00000000000000000000000000000000000000000000000000000000081526004016103f090611897565b60405180910390fd5b600260405180606001604052808873ffffffffffffffffffffffffffffffffffffffff16815260200187815260200183815250908060018154018082558091505060019003905f5260205f2090600302015f909190919091505f820151815f015f6101000a81548173ffffffffffffffffffffffffffffffffffffffff021916908373ffffffffffffffffffffffffffffffffffffffff1602179055506020820151816001015560408201518160020155505060405180606001604052808773ffffffffffffffffffffffffffffffffffffffff1681526020018681526020018281525060035f8781526020019081526020015f205f820151815f015f6101000a81548173ffffffffffffffffffffffffffffffffffffffff021916908373ffffffffffffffffffffffffffffffffffffffff1602179055506020820151816001015560408201518160020155905050600160028054905061055b91906118e2565b60045f8781526020019081526020015f20819055508573ffffffffffffffffffffffffffffffffffffffff167fd5b509e657d5ec37ae4bdcab658b7340c0453bb630516d26623359a34c1cecf386836040516105b8929190611915565b60405180910390a263150b7a0260e01b91505095945050505050565b6003602052805f5260405f205f91509050805f015f9054906101000a900473ffffffffffffffffffffffffffffffffffffffff16908060010154908060020154905083565b61062281610f86565b610661576040517f08c379a000000000000000000000000000000000000000000000000000000000815260040161065890611986565b60405180910390fd5b60035f8281526020019081526020015f205f015f9054906101000a900473ffffffffffffffffffffffffffffffffffffffff1673ffffffffffffffffffffffffffffffffffffffff163373ffffffffffffffffffffffffffffffffffffffff1614610701576040517f08c379a00000000000000000000000000000000000000000000000000000000081526004016106f890611a14565b60405180910390fd5b60015f9054906101000a900473ffffffffffffffffffffffffffffffffffffffff1673ffffffffffffffffffffffffffffffffffffffff166342842e0e3033846040518463ffffffff1660e01b815260040161075f93929190611a32565b5f604051808303815f87803b158015610776575f80fd5b505af1158015610788573d5f803e3d5ffd5b50505050610795816110a4565b3373ffffffffffffffffffffffffffffffffffffffff167fc0e68d6b69f741c21e955cad2ae4d505b6f6735c7e7b278251b3f6283a5f07eb826040516107db9190611684565b60405180910390a250565b60605f60028054905067ffffffffffffffff81111561080857610807611a67565b5b60405190808252806020026020018201604052801561084157816020015b61082e61126b565b8152602001906001900390816108265790505b5090505f805b600280549050811015610995573373ffffffffffffffffffffffffffffffffffffffff166002828154811061087f5761087e611a94565b5b905f5260205f2090600302015f015f9054906101000a900473ffffffffffffffffffffffffffffffffffffffff1673ffffffffffffffffffffffffffffffffffffffff160361098857600281815481106108dc576108db611a94565b5b905f5260205f2090600302016040518060600160405290815f82015f9054906101000a900473ffffffffffffffffffffffffffffffffffffffff1673ffffffffffffffffffffffffffffffffffffffff1673ffffffffffffffffffffffffffffffffffffffff1681526020016001820154815260200160028201548152505083838151811061096e5761096d611a94565b5b6020026020010181905250818061098490611ac1565b9250505b8080600101915050610847565b50819250505090565b5f8054906101000a900473ffffffffffffffffffffffffffffffffffffffff1681565b5f600280549050905090565b600281815481106109dc575f80fd5b905f5260205f2090600302015f91509050805f015f9054906101000a900473ffffffffffffffffffffffffffffffffffffffff16908060010154908060020154905083565b610a2a82610f86565b610a69576040517f08c379a0000000000000000000000000000000000000000000000000000000008152600401610a6090611986565b60405180910390fd5b60035f8381526020019081526020015f205f015f9054906101000a900473ffffffffffffffffffffffffffffffffffffffff1673ffffffffffffffffffffffffffffffffffffffff163373ffffffffffffffffffffffffffffffffffffffff1614610b09576040517f08c379a0000000000000000000000000000000000000000000000000000000008152600401610b0090611b78565b60405180910390fd5b5f60035f8481526020019081526020015f206002015490508160035f8581526020019081526020015f20600201819055505f600260045f8681526020019081526020015f205481548110610b6057610b5f611a94565b5b905f5260205f20906003020190508281600201819055503373ffffffffffffffffffffffffffffffffffffffff167f342a7f6248980b0f191b96eb6b7a439c4da78b2c97b86ca66cc7ee90d4b04cce858486604051610bc193929190611b96565b60405180910390a250505050565b60015f9054906101000a900473ffffffffffffffffffffffffffffffffffffffff1681565b610bfd82610f86565b610c3c576040517f08c379a0000000000000000000000000000000000000000000000000000000008152600401610c3390611986565b60405180910390fd5b5f60035f8481526020019081526020015f205f015f9054906101000a900473ffffffffffffffffffffffffffffffffffffffff1690505f3390505f60035f8681526020019081526020015f20600201549050838114610cd0576040517f08c379a0000000000000000000000000000000000000000000000000000000008152600401610cc790611c15565b60405180910390fd5b5f8054906101000a900473ffffffffffffffffffffffffffffffffffffffff1673ffffffffffffffffffffffffffffffffffffffff166323b872dd8385846040518463ffffffff1660e01b8152600401610d2c93929190611a32565b6020604051808303815f875af1158015610d48573d5f803e3d5ffd5b505050506040513d601f19601f82011682018060405250810190610d6c9190611c5d565b610dab576040517f08c379a0000000000000000000000000000000000000000000000000000000008152600401610da290611cd2565b60405180910390fd5b60015f9054906101000a900473ffffffffffffffffffffffffffffffffffffffff1673ffffffffffffffffffffffffffffffffffffffff166342842e0e3084886040518463ffffffff1660e01b8152600401610e0993929190611a32565b5f604051808303815f87803b158015610e20575f80fd5b505af1158015610e32573d5f803e3d5ffd5b50505050610e3f856110a4565b8273ffffffffffffffffffffffffffffffffffffffff168273ffffffffffffffffffffffffffffffffffffffff167f424d5e5f0192c7dacdbe646ca31b00299146d883d76a95ef5cddbac7cd342eab8787604051610e9e929190611915565b60405180910390a35050505050565b6004602052805f5260405f205f915090505481565b60606002805480602002602001604051908101604052809291908181526020015f905b82821015610f7d578382905f5260205f2090600302016040518060600160405290815f82015f9054906101000a900473ffffffffffffffffffffffffffffffffffffffff1673ffffffffffffffffffffffffffffffffffffffff1673ffffffffffffffffffffffffffffffffffffffff1681526020016001820154815260200160028201548152505081526020019060010190610ee5565b50505050905090565b5f8073ffffffffffffffffffffffffffffffffffffffff1660035f8481526020019081526020015f205f015f9054906101000a900473ffffffffffffffffffffffffffffffffffffffff1673ffffffffffffffffffffffffffffffffffffffff1614159050919050565b5f81602083610fff9190611cf0565b1015611040576040517f08c379a000000000000000000000000000000000000000000000000000000000815260040161103790611d6d565b60405180910390fd5b60208261104d9190611cf0565b83511015611090576040517f08c379a000000000000000000000000000000000000000000000000000000000815260040161108790611dd5565b60405180910390fd5b5f8260208501015190508091505092915050565b5f60016002805490506110b791906118e2565b90505f60045f8481526020019081526020015f205490508181146111af575f600283815481106110ea576110e9611a94565b5b905f5260205f2090600302019050806002838154811061110d5761110c611a94565b5b905f5260205f2090600302015f82015f9054906101000a900473ffffffffffffffffffffffffffffffffffffffff16815f015f6101000a81548173ffffffffffffffffffffffffffffffffffffffff021916908373ffffffffffffffffffffffffffffffffffffffff16021790555060018201548160010155600282015481600201559050508160045f836001015481526020019081526020015f2081905550505b60028054806111c1576111c0611df3565b5b600190038181905f5260205f2090600302015f8082015f6101000a81549073ffffffffffffffffffffffffffffffffffffffff0219169055600182015f9055600282015f90555050905560035f8481526020019081526020015f205f8082015f6101000a81549073ffffffffffffffffffffffffffffffffffffffff0219169055600182015f9055600282015f9055505060045f8481526020019081526020015f205f9055505050565b60405180606001604052805f73ffffffffffffffffffffffffffffffffffffffff1681526020015f81526020015f81525090565b5f80fd5b5f80fd5b5f73ffffffffffffffffffffffffffffffffffffffff82169050919050565b5f6112d0826112a7565b9050919050565b6112e0816112c6565b81146112ea575f80fd5b50565b5f813590506112fb816112d7565b92915050565b5f819050919050565b61131381611301565b811461131d575f80fd5b50565b5f8135905061132e8161130a565b92915050565b5f80fd5b5f80fd5b5f80fd5b5f8083601f84011261135557611354611334565b5b8235905067ffffffffffffffff81111561137257611371611338565b5b60208301915083600182028301111561138e5761138d61133c565b5b9250929050565b5f805f805f608086880312156113ae576113ad61129f565b5b5f6113bb888289016112ed565b95505060206113cc888289016112ed565b94505060406113dd88828901611320565b935050606086013567ffffffffffffffff8111156113fe576113fd6112a3565b5b61140a88828901611340565b92509250509295509295909350565b5f7fffffffff0000000000000000000000000000000000000000000000000000000082169050919050565b61144d81611419565b82525050565b5f6020820190506114665f830184611444565b92915050565b5f602082840312156114815761148061129f565b5b5f61148e84828501611320565b91505092915050565b6114a0816112c6565b82525050565b6114af81611301565b82525050565b5f6060820190506114c85f830186611497565b6114d560208301856114a6565b6114e260408301846114a6565b949350505050565b5f81519050919050565b5f82825260208201905092915050565b5f819050602082019050919050565b61151c816112c6565b82525050565b61152b81611301565b82525050565b606082015f8201516115455f850182611513565b5060208201516115586020850182611522565b50604082015161156b6040850182611522565b50505050565b5f61157c8383611531565b60608301905092915050565b5f602082019050919050565b5f61159e826114ea565b6115a881856114f4565b93506115b383611504565b805f5b838110156115e35781516115ca8882611571565b97506115d583611588565b9250506001810190506115b6565b5085935050505092915050565b5f6020820190508181035f8301526116088184611594565b905092915050565b5f819050919050565b5f61163361162e611629846112a7565b611610565b6112a7565b9050919050565b5f61164482611619565b9050919050565b5f6116558261163a565b9050919050565b6116658161164b565b82525050565b5f60208201905061167e5f83018461165c565b92915050565b5f6020820190506116975f8301846114a6565b92915050565b5f80604083850312156116b3576116b261129f565b5b5f6116c085828601611320565b92505060206116d185828601611320565b9150509250929050565b5f6116e58261163a565b9050919050565b6116f5816116db565b82525050565b5f60208201905061170e5f8301846116ec565b92915050565b5f8115159050919050565b61172881611714565b82525050565b5f6020820190506117415f83018461171f565b92915050565b5f82825260208201905092915050565b7f4d61726b65743a20496e76616c696420707269636500000000000000000000005f82015250565b5f61178b601583611747565b915061179682611757565b602082019050919050565b5f6020820190508181035f8301526117b88161177f565b9050919050565b7f4d61726b65743a20496e76616c69642073656c6c6572000000000000000000005f82015250565b5f6117f3601683611747565b91506117fe826117bf565b602082019050919050565b5f6020820190508181035f830152611820816117e7565b9050919050565b7f4d61726b65743a20546f6b656e20494420697320616c7265616479206c6973745f8201527f6564000000000000000000000000000000000000000000000000000000000000602082015250565b5f611881602283611747565b915061188c82611827565b604082019050919050565b5f6020820190508181035f8301526118ae81611875565b9050919050565b7f4e487b71000000000000000000000000000000000000000000000000000000005f52601160045260245ffd5b5f6118ec82611301565b91506118f783611301565b925082820390508181111561190f5761190e6118b5565b5b92915050565b5f6040820190506119285f8301856114a6565b61193560208301846114a6565b9392505050565b7f4d61726b65743a20546f6b656e204944206973206e6f74206c697374656400005f82015250565b5f611970601e83611747565b915061197b8261193c565b602082019050919050565b5f6020820190508181035f83015261199d81611964565b9050919050565b7f4d61726b65743a204f6e6c792073656c6c65722063616e2063616e63656c206f5f8201527f7264657200000000000000000000000000000000000000000000000000000000602082015250565b5f6119fe602483611747565b9150611a09826119a4565b604082019050919050565b5f6020820190508181035f830152611a2b816119f2565b9050919050565b5f606082019050611a455f830186611497565b611a526020830185611497565b611a5f60408301846114a6565b949350505050565b7f4e487b71000000000000000000000000000000000000000000000000000000005f52604160045260245ffd5b7f4e487b71000000000000000000000000000000000000000000000000000000005f52603260045260245ffd5b5f611acb82611301565b91507fffffffffffffffffffffffffffffffffffffffffffffffffffffffffffffffff8203611afd57611afc6118b5565b5b600182019050919050565b7f4d61726b65743a204f6e6c792073656c6c65722063616e206368616e676520705f8201527f7269636500000000000000000000000000000000000000000000000000000000602082015250565b5f611b62602483611747565b9150611b6d82611b08565b604082019050919050565b5f6020820190508181035f830152611b8f81611b56565b9050919050565b5f606082019050611ba95f8301866114a6565b611bb660208301856114a6565b611bc360408301846114a6565b949350505050565b7f4d61726b65743a205072696365206973206e6f742065686f75676800000000005f82015250565b5f611bff601b83611747565b9150611c0a82611bcb565b602082019050919050565b5f6020820190508181035f830152611c2c81611bf3565b9050919050565b611c3c81611714565b8114611c46575f80fd5b50565b5f81519050611c5781611c33565b92915050565b5f60208284031215611c7257611c7161129f565b5b5f611c7f84828501611c49565b91505092915050565b7f4d61726b65743a205472616e73666572206661696c65640000000000000000005f82015250565b5f611cbc601783611747565b9150611cc782611c88565b602082019050919050565b5f6020820190508181035f830152611ce981611cb0565b9050919050565b5f611cfa82611301565b9150611d0583611301565b9250828201905080821115611d1d57611d1c6118b5565b5b92915050565b7f4d61726b65743a20746f55696e74206f7574206f662072616e676500000000005f82015250565b5f611d57601b83611747565b9150611d6282611d23565b602082019050919050565b5f6020820190508181035f830152611d8481611d4b565b9050919050565b7f4d61726b65743a20746f55696e74323536206f7574206f662072616e676500005f82015250565b5f611dbf601e83611747565b9150611dca82611d8b565b602082019050919050565b5f6020820190508181035f830152611dec81611db3565b9050919050565b7f4e487b71000000000000000000000000000000000000000000000000000000005f52603160045260245ffdfea264697066735822122024d63a0b8d0951a0c414d79958f79147f7ab8275628852d643995431aa5d99a664736f6c63430008160033",
					"opcodes": "PUSH1 0x80 PUSH1 0x40 MSTORE CALLVALUE DUP1 ISZERO PUSH3 0x10 JUMPI PUSH0 DUP1 REVERT JUMPDEST POP PUSH1 0x40 MLOAD PUSH3 0x21EE CODESIZE SUB DUP1 PUSH3 0x21EE DUP4 CODECOPY DUP2 DUP2 ADD PUSH1 0x40 MSTORE DUP2 ADD SWAP1 PUSH3 0x36 SWAP2 SWAP1 PUSH3 0x259 JUMP JUMPDEST PUSH0 PUSH20 0xFFFFFFFFFFFFFFFFFFFFFFFFFFFFFFFFFFFFFFFF AND DUP3 PUSH20 0xFFFFFFFFFFFFFFFFFFFFFFFFFFFFFFFFFFFFFFFF AND SUB PUSH3 0xA7 JUMPI PUSH1 0x40 MLOAD PUSH32 0x8C379A000000000000000000000000000000000000000000000000000000000 DUP2 MSTORE PUSH1 0x4 ADD PUSH3 0x9E SWAP1 PUSH3 0x2FC JUMP JUMPDEST PUSH1 0x40 MLOAD DUP1 SWAP2 SUB SWAP1 REVERT JUMPDEST PUSH0 PUSH20 0xFFFFFFFFFFFFFFFFFFFFFFFFFFFFFFFFFFFFFFFF AND DUP2 PUSH20 0xFFFFFFFFFFFFFFFFFFFFFFFFFFFFFFFFFFFFFFFF AND SUB PUSH3 0x118 JUMPI PUSH1 0x40 MLOAD PUSH32 0x8C379A000000000000000000000000000000000000000000000000000000000 DUP2 MSTORE PUSH1 0x4 ADD PUSH3 0x10F SWAP1 PUSH3 0x36A JUMP JUMPDEST PUSH1 0x40 MLOAD DUP1 SWAP2 SUB SWAP1 REVERT JUMPDEST DUP2 PUSH0 DUP1 PUSH2 0x100 EXP DUP2 SLOAD DUP2 PUSH20 0xFFFFFFFFFFFFFFFFFFFFFFFFFFFFFFFFFFFFFFFF MUL NOT AND SWAP1 DUP4 PUSH20 0xFFFFFFFFFFFFFFFFFFFFFFFFFFFFFFFFFFFFFFFF AND MUL OR SWAP1 SSTORE POP DUP1 PUSH1 0x1 PUSH0 PUSH2 0x100 EXP DUP2 SLOAD DUP2 PUSH20 0xFFFFFFFFFFFFFFFFFFFFFFFFFFFFFFFFFFFFFFFF MUL NOT AND SWAP1 DUP4 PUSH20 0xFFFFFFFFFFFFFFFFFFFFFFFFFFFFFFFFFFFFFFFF AND MUL OR SWAP1 SSTORE POP POP POP PUSH3 0x38A JUMP JUMPDEST PUSH0 DUP1 REVERT JUMPDEST PUSH0 PUSH20 0xFFFFFFFFFFFFFFFFFFFFFFFFFFFFFFFFFFFFFFFF DUP3 AND SWAP1 POP SWAP2 SWAP1 POP JUMP JUMPDEST PUSH0 PUSH3 0x1CE DUP3 PUSH3 0x1A3 JUMP JUMPDEST SWAP1 POP SWAP2 SWAP1 POP JUMP JUMPDEST PUSH0 PUSH3 0x1E1 DUP3 PUSH3 0x1C2 JUMP JUMPDEST SWAP1 POP SWAP2 SWAP1 POP JUMP JUMPDEST PUSH3 0x1F3 DUP2 PUSH3 0x1D5 JUMP JUMPDEST DUP2 EQ PUSH3 0x1FE JUMPI PUSH0 DUP1 REVERT JUMPDEST POP JUMP JUMPDEST PUSH0 DUP2 MLOAD SWAP1 POP PUSH3 0x211 DUP2 PUSH3 0x1E8 JUMP JUMPDEST SWAP3 SWAP2 POP POP JUMP JUMPDEST PUSH0 PUSH3 0x223 DUP3 PUSH3 0x1C2 JUMP JUMPDEST SWAP1 POP SWAP2 SWAP1 POP JUMP JUMPDEST PUSH3 0x235 DUP2 PUSH3 0x217 JUMP JUMPDEST DUP2 EQ PUSH3 0x240 JUMPI PUSH0 DUP1 REVERT JUMPDEST POP JUMP JUMPDEST PUSH0 DUP2 MLOAD SWAP1 POP PUSH3 0x253 DUP2 PUSH3 0x22A JUMP JUMPDEST SWAP3 SWAP2 POP POP JUMP JUMPDEST PUSH0 DUP1 PUSH1 0x40 DUP4 DUP6 SUB SLT ISZERO PUSH3 0x272 JUMPI PUSH3 0x271 PUSH3 0x19F JUMP JUMPDEST JUMPDEST PUSH0 PUSH3 0x281 DUP6 DUP3 DUP7 ADD PUSH3 0x201 JUMP JUMPDEST SWAP3 POP POP PUSH1 0x20 PUSH3 0x294 DUP6 DUP3 DUP7 ADD PUSH3 0x243 JUMP JUMPDEST SWAP2 POP POP SWAP3 POP SWAP3 SWAP1 POP JUMP JUMPDEST PUSH0 DUP3 DUP3 MSTORE PUSH1 0x20 DUP3 ADD SWAP1 POP SWAP3 SWAP2 POP POP JUMP JUMPDEST PUSH32 0x4D61726B65743A20496E76616C696420455243323020546F6B656E0000000000 PUSH0 DUP3 ADD MSTORE POP JUMP JUMPDEST PUSH0 PUSH3 0x2E4 PUSH1 0x1B DUP4 PUSH3 0x29E JUMP JUMPDEST SWAP2 POP PUSH3 0x2F1 DUP3 PUSH3 0x2AE JUMP JUMPDEST PUSH1 0x20 DUP3 ADD SWAP1 POP SWAP2 SWAP1 POP JUMP JUMPDEST PUSH0 PUSH1 0x20 DUP3 ADD SWAP1 POP DUP2 DUP2 SUB PUSH0 DUP4 ADD MSTORE PUSH3 0x315 DUP2 PUSH3 0x2D6 JUMP JUMPDEST SWAP1 POP SWAP2 SWAP1 POP JUMP JUMPDEST PUSH32 0x4D61726B65743A20496E76616C69642045524337323120546F6B656E00000000 PUSH0 DUP3 ADD MSTORE POP JUMP JUMPDEST PUSH0 PUSH3 0x352 PUSH1 0x1C DUP4 PUSH3 0x29E JUMP JUMPDEST SWAP2 POP PUSH3 0x35F DUP3 PUSH3 0x31C JUMP JUMPDEST PUSH1 0x20 DUP3 ADD SWAP1 POP SWAP2 SWAP1 POP JUMP JUMPDEST PUSH0 PUSH1 0x20 DUP3 ADD SWAP1 POP DUP2 DUP2 SUB PUSH0 DUP4 ADD MSTORE PUSH3 0x383 DUP2 PUSH3 0x344 JUMP JUMPDEST SWAP1 POP SWAP2 SWAP1 POP JUMP JUMPDEST PUSH2 0x1E56 DUP1 PUSH3 0x398 PUSH0 CODECOPY PUSH0 RETURN INVALID PUSH1 0x80 PUSH1 0x40 MSTORE CALLVALUE DUP1 ISZERO PUSH2 0xF JUMPI PUSH0 DUP1 REVERT JUMPDEST POP PUSH1 0x4 CALLDATASIZE LT PUSH2 0xCD JUMPI PUSH0 CALLDATALOAD PUSH1 0xE0 SHR DUP1 PUSH4 0xA85C38EF GT PUSH2 0x8A JUMPI DUP1 PUSH4 0xD6FEBDE8 GT PUSH2 0x64 JUMPI DUP1 PUSH4 0xD6FEBDE8 EQ PUSH2 0x215 JUMPI DUP1 PUSH4 0xDA694DF0 EQ PUSH2 0x231 JUMPI DUP1 PUSH4 0xE0391B09 EQ PUSH2 0x261 JUMPI DUP1 PUSH4 0xFCCE4883 EQ PUSH2 0x27F JUMPI PUSH2 0xCD JUMP JUMPDEST DUP1 PUSH4 0xA85C38EF EQ PUSH2 0x1A9 JUMPI DUP1 PUSH4 0xB3DE019C EQ PUSH2 0x1DB JUMPI DUP1 PUSH4 0xBCA6CE64 EQ PUSH2 0x1F7 JUMPI PUSH2 0xCD JUMP JUMPDEST DUP1 PUSH4 0x150B7A02 EQ PUSH2 0xD1 JUMPI DUP1 PUSH4 0x43B7BD8D EQ PUSH2 0x101 JUMPI DUP1 PUSH4 0x514FCAC7 EQ PUSH2 0x133 JUMPI DUP1 PUSH4 0x629CB2E4 EQ PUSH2 0x14F JUMPI DUP1 PUSH4 0x785E9E86 EQ PUSH2 0x16D JUMPI DUP1 PUSH4 0x9D4971B7 EQ PUSH2 0x18B JUMPI JUMPDEST PUSH0 DUP1 REVERT JUMPDEST PUSH2 0xEB PUSH1 0x4 DUP1 CALLDATASIZE SUB DUP2 ADD SWAP1 PUSH2 0xE6 SWAP2 SWAP1 PUSH2 0x1395 JUMP JUMPDEST PUSH2 0x2AF JUMP JUMPDEST PUSH1 0x40 MLOAD PUSH2 0xF8 SWAP2 SWAP1 PUSH2 0x1453 JUMP JUMPDEST PUSH1 0x40 MLOAD DUP1 SWAP2 SUB SWAP1 RETURN JUMPDEST PUSH2 0x11B PUSH1 0x4 DUP1 CALLDATASIZE SUB DUP2 ADD SWAP1 PUSH2 0x116 SWAP2 SWAP1 PUSH2 0x146C JUMP JUMPDEST PUSH2 0x5D4 JUMP JUMPDEST PUSH1 0x40 MLOAD PUSH2 0x12A SWAP4 SWAP3 SWAP2 SWAP1 PUSH2 0x14B5 JUMP JUMPDEST PUSH1 0x40 MLOAD DUP1 SWAP2 SUB SWAP1 RETURN JUMPDEST PUSH2 0x14D PUSH1 0x4 DUP1 CALLDATASIZE SUB DUP2 ADD SWAP1 PUSH2 0x148 SWAP2 SWAP1 PUSH2 0x146C JUMP JUMPDEST PUSH2 0x619 JUMP JUMPDEST STOP JUMPDEST PUSH2 0x157 PUSH2 0x7E6 JUMP JUMPDEST PUSH1 0x40 MLOAD PUSH2 0x164 SWAP2 SWAP1 PUSH2 0x15F0 JUMP JUMPDEST PUSH1 0x40 MLOAD DUP1 SWAP2 SUB SWAP1 RETURN JUMPDEST PUSH2 0x175 PUSH2 0x99E JUMP JUMPDEST PUSH1 0x40 MLOAD PUSH2 0x182 SWAP2 SWAP1 PUSH2 0x166B JUMP JUMPDEST PUSH1 0x40 MLOAD DUP1 SWAP2 SUB SWAP1 RETURN JUMPDEST PUSH2 0x193 PUSH2 0x9C1 JUMP JUMPDEST PUSH1 0x40 MLOAD PUSH2 0x1A0 SWAP2 SWAP1 PUSH2 0x1684 JUMP JUMPDEST PUSH1 0x40 MLOAD DUP1 SWAP2 SUB SWAP1 RETURN JUMPDEST PUSH2 0x1C3 PUSH1 0x4 DUP1 CALLDATASIZE SUB DUP2 ADD SWAP1 PUSH2 0x1BE SWAP2 SWAP1 PUSH2 0x146C JUMP JUMPDEST PUSH2 0x9CD JUMP JUMPDEST PUSH1 0x40 MLOAD PUSH2 0x1D2 SWAP4 SWAP3 SWAP2 SWAP1 PUSH2 0x14B5 JUMP JUMPDEST PUSH1 0x40 MLOAD DUP1 SWAP2 SUB SWAP1 RETURN JUMPDEST PUSH2 0x1F5 PUSH1 0x4 DUP1 CALLDATASIZE SUB DUP2 ADD SWAP1 PUSH2 0x1F0 SWAP2 SWAP1 PUSH2 0x169D JUMP JUMPDEST PUSH2 0xA21 JUMP JUMPDEST STOP JUMPDEST PUSH2 0x1FF PUSH2 0xBCF JUMP JUMPDEST PUSH1 0x40 MLOAD PUSH2 0x20C SWAP2 SWAP1 PUSH2 0x16FB JUMP JUMPDEST PUSH1 0x40 MLOAD DUP1 SWAP2 SUB SWAP1 RETURN JUMPDEST PUSH2 0x22F PUSH1 0x4 DUP1 CALLDATASIZE SUB DUP2 ADD SWAP1 PUSH2 0x22A SWAP2 SWAP1 PUSH2 0x169D JUMP JUMPDEST PUSH2 0xBF4 JUMP JUMPDEST STOP JUMPDEST PUSH2 0x24B PUSH1 0x4 DUP1 CALLDATASIZE SUB DUP2 ADD SWAP1 PUSH2 0x246 SWAP2 SWAP1 PUSH2 0x146C JUMP JUMPDEST PUSH2 0xEAD JUMP JUMPDEST PUSH1 0x40 MLOAD PUSH2 0x258 SWAP2 SWAP1 PUSH2 0x1684 JUMP JUMPDEST PUSH1 0x40 MLOAD DUP1 SWAP2 SUB SWAP1 RETURN JUMPDEST PUSH2 0x269 PUSH2 0xEC2 JUMP JUMPDEST PUSH1 0x40 MLOAD PUSH2 0x276 SWAP2 SWAP1 PUSH2 0x15F0 JUMP JUMPDEST PUSH1 0x40 MLOAD DUP1 SWAP2 SUB SWAP1 RETURN JUMPDEST PUSH2 0x299 PUSH1 0x4 DUP1 CALLDATASIZE SUB DUP2 ADD SWAP1 PUSH2 0x294 SWAP2 SWAP1 PUSH2 0x146C JUMP JUMPDEST PUSH2 0xF86 JUMP JUMPDEST PUSH1 0x40 MLOAD PUSH2 0x2A6 SWAP2 SWAP1 PUSH2 0x172E JUMP JUMPDEST PUSH1 0x40 MLOAD DUP1 SWAP2 SUB SWAP1 RETURN JUMPDEST PUSH0 DUP1 PUSH2 0x2FE DUP5 DUP5 DUP1 DUP1 PUSH1 0x1F ADD PUSH1 0x20 DUP1 SWAP2 DIV MUL PUSH1 0x20 ADD PUSH1 0x40 MLOAD SWAP1 DUP2 ADD PUSH1 0x40 MSTORE DUP1 SWAP4 SWAP3 SWAP2 SWAP1 DUP2 DUP2 MSTORE PUSH1 0x20 ADD DUP4 DUP4 DUP1 DUP3 DUP5 CALLDATACOPY PUSH0 DUP2 DUP5 ADD MSTORE PUSH1 0x1F NOT PUSH1 0x1F DUP3 ADD AND SWAP1 POP DUP1 DUP4 ADD SWAP3 POP POP POP POP POP POP POP PUSH0 PUSH2 0xFF0 JUMP JUMPDEST SWAP1 POP PUSH0 DUP2 GT PUSH2 0x342 JUMPI PUSH1 0x40 MLOAD PUSH32 0x8C379A000000000000000000000000000000000000000000000000000000000 DUP2 MSTORE PUSH1 0x4 ADD PUSH2 0x339 SWAP1 PUSH2 0x17A1 JUMP JUMPDEST PUSH1 0x40 MLOAD DUP1 SWAP2 SUB SWAP1 REVERT JUMPDEST PUSH0 PUSH20 0xFFFFFFFFFFFFFFFFFFFFFFFFFFFFFFFFFFFFFFFF AND DUP7 PUSH20 0xFFFFFFFFFFFFFFFFFFFFFFFFFFFFFFFFFFFFFFFF AND SUB PUSH2 0x3B0 JUMPI PUSH1 0x40 MLOAD PUSH32 0x8C379A000000000000000000000000000000000000000000000000000000000 DUP2 MSTORE PUSH1 0x4 ADD PUSH2 0x3A7 SWAP1 PUSH2 0x1809 JUMP JUMPDEST PUSH1 0x40 MLOAD DUP1 SWAP2 SUB SWAP1 REVERT JUMPDEST PUSH2 0x3B9 DUP6 PUSH2 0xF86 JUMP JUMPDEST ISZERO PUSH2 0x3F9 JUMPI PUSH1 0x40 MLOAD PUSH32 0x8C379A000000000000000000000000000000000000000000000000000000000 DUP2 MSTORE PUSH1 0x4 ADD PUSH2 0x3F0 SWAP1 PUSH2 0x1897 JUMP JUMPDEST PUSH1 0x40 MLOAD DUP1 SWAP2 SUB SWAP1 REVERT JUMPDEST PUSH1 0x2 PUSH1 0x40 MLOAD DUP1 PUSH1 0x60 ADD PUSH1 0x40 MSTORE DUP1 DUP9 PUSH20 0xFFFFFFFFFFFFFFFFFFFFFFFFFFFFFFFFFFFFFFFF AND DUP2 MSTORE PUSH1 0x20 ADD DUP8 DUP2 MSTORE PUSH1 0x20 ADD DUP4 DUP2 MSTORE POP SWAP1 DUP1 PUSH1 0x1 DUP2 SLOAD ADD DUP1 DUP3 SSTORE DUP1 SWAP2 POP POP PUSH1 0x1 SWAP1 SUB SWAP1 PUSH0 MSTORE PUSH1 0x20 PUSH0 KECCAK256 SWAP1 PUSH1 0x3 MUL ADD PUSH0 SWAP1 SWAP2 SWAP1 SWAP2 SWAP1 SWAP2 POP PUSH0 DUP3 ADD MLOAD DUP2 PUSH0 ADD PUSH0 PUSH2 0x100 EXP DUP2 SLOAD DUP2 PUSH20 0xFFFFFFFFFFFFFFFFFFFFFFFFFFFFFFFFFFFFFFFF MUL NOT AND SWAP1 DUP4 PUSH20 0xFFFFFFFFFFFFFFFFFFFFFFFFFFFFFFFFFFFFFFFF AND MUL OR SWAP1 SSTORE POP PUSH1 0x20 DUP3 ADD MLOAD DUP2 PUSH1 0x1 ADD SSTORE PUSH1 0x40 DUP3 ADD MLOAD DUP2 PUSH1 0x2 ADD SSTORE POP POP PUSH1 0x40 MLOAD DUP1 PUSH1 0x60 ADD PUSH1 0x40 MSTORE DUP1 DUP8 PUSH20 0xFFFFFFFFFFFFFFFFFFFFFFFFFFFFFFFFFFFFFFFF AND DUP2 MSTORE PUSH1 0x20 ADD DUP7 DUP2 MSTORE PUSH1 0x20 ADD DUP3 DUP2 MSTORE POP PUSH1 0x3 PUSH0 DUP8 DUP2 MSTORE PUSH1 0x20 ADD SWAP1 DUP2 MSTORE PUSH1 0x20 ADD PUSH0 KECCAK256 PUSH0 DUP3 ADD MLOAD DUP2 PUSH0 ADD PUSH0 PUSH2 0x100 EXP DUP2 SLOAD DUP2 PUSH20 0xFFFFFFFFFFFFFFFFFFFFFFFFFFFFFFFFFFFFFFFF MUL NOT AND SWAP1 DUP4 PUSH20 0xFFFFFFFFFFFFFFFFFFFFFFFFFFFFFFFFFFFFFFFF AND MUL OR SWAP1 SSTORE POP PUSH1 0x20 DUP3 ADD MLOAD DUP2 PUSH1 0x1 ADD SSTORE PUSH1 0x40 DUP3 ADD MLOAD DUP2 PUSH1 0x2 ADD SSTORE SWAP1 POP POP PUSH1 0x1 PUSH1 0x2 DUP1 SLOAD SWAP1 POP PUSH2 0x55B SWAP2 SWAP1 PUSH2 0x18E2 JUMP JUMPDEST PUSH1 0x4 PUSH0 DUP8 DUP2 MSTORE PUSH1 0x20 ADD SWAP1 DUP2 MSTORE PUSH1 0x20 ADD PUSH0 KECCAK256 DUP2 SWAP1 SSTORE POP DUP6 PUSH20 0xFFFFFFFFFFFFFFFFFFFFFFFFFFFFFFFFFFFFFFFF AND PUSH32 0xD5B509E657D5EC37AE4BDCAB658B7340C0453BB630516D26623359A34C1CECF3 DUP7 DUP4 PUSH1 0x40 MLOAD PUSH2 0x5B8 SWAP3 SWAP2 SWAP1 PUSH2 0x1915 JUMP JUMPDEST PUSH1 0x40 MLOAD DUP1 SWAP2 SUB SWAP1 LOG2 PUSH4 0x150B7A02 PUSH1 0xE0 SHL SWAP2 POP POP SWAP6 SWAP5 POP POP POP POP POP JUMP JUMPDEST PUSH1 0x3 PUSH1 0x20 MSTORE DUP1 PUSH0 MSTORE PUSH1 0x40 PUSH0 KECCAK256 PUSH0 SWAP2 POP SWAP1 POP DUP1 PUSH0 ADD PUSH0 SWAP1 SLOAD SWAP1 PUSH2 0x100 EXP SWAP1 DIV PUSH20 0xFFFFFFFFFFFFFFFFFFFFFFFFFFFFFFFFFFFFFFFF AND SWAP1 DUP1 PUSH1 0x1 ADD SLOAD SWAP1 DUP1 PUSH1 0x2 ADD SLOAD SWAP1 POP DUP4 JUMP JUMPDEST PUSH2 0x622 DUP2 PUSH2 0xF86 JUMP JUMPDEST PUSH2 0x661 JUMPI PUSH1 0x40 MLOAD PUSH32 0x8C379A000000000000000000000000000000000000000000000000000000000 DUP2 MSTORE PUSH1 0x4 ADD PUSH2 0x658 SWAP1 PUSH2 0x1986 JUMP JUMPDEST PUSH1 0x40 MLOAD DUP1 SWAP2 SUB SWAP1 REVERT JUMPDEST PUSH1 0x3 PUSH0 DUP3 DUP2 MSTORE PUSH1 0x20 ADD SWAP1 DUP2 MSTORE PUSH1 0x20 ADD PUSH0 KECCAK256 PUSH0 ADD PUSH0 SWAP1 SLOAD SWAP1 PUSH2 0x100 EXP SWAP1 DIV PUSH20 0xFFFFFFFFFFFFFFFFFFFFFFFFFFFFFFFFFFFFFFFF AND PUSH20 0xFFFFFFFFFFFFFFFFFFFFFFFFFFFFFFFFFFFFFFFF AND CALLER PUSH20 0xFFFFFFFFFFFFFFFFFFFFFFFFFFFFFFFFFFFFFFFF AND EQ PUSH2 0x701 JUMPI PUSH1 0x40 MLOAD PUSH32 0x8C379A000000000000000000000000000000000000000000000000000000000 DUP2 MSTORE PUSH1 0x4 ADD PUSH2 0x6F8 SWAP1 PUSH2 0x1A14 JUMP JUMPDEST PUSH1 0x40 MLOAD DUP1 SWAP2 SUB SWAP1 REVERT JUMPDEST PUSH1 0x1 PUSH0 SWAP1 SLOAD SWAP1 PUSH2 0x100 EXP SWAP1 DIV PUSH20 0xFFFFFFFFFFFFFFFFFFFFFFFFFFFFFFFFFFFFFFFF AND PUSH20 0xFFFFFFFFFFFFFFFFFFFFFFFFFFFFFFFFFFFFFFFF AND PUSH4 0x42842E0E ADDRESS CALLER DUP5 PUSH1 0x40 MLOAD DUP5 PUSH4 0xFFFFFFFF AND PUSH1 0xE0 SHL DUP2 MSTORE PUSH1 0x4 ADD PUSH2 0x75F SWAP4 SWAP3 SWAP2 SWAP1 PUSH2 0x1A32 JUMP JUMPDEST PUSH0 PUSH1 0x40 MLOAD DUP1 DUP4 SUB DUP2 PUSH0 DUP8 DUP1 EXTCODESIZE ISZERO DUP1 ISZERO PUSH2 0x776 JUMPI PUSH0 DUP1 REVERT JUMPDEST POP GAS CALL ISZERO DUP1 ISZERO PUSH2 0x788 JUMPI RETURNDATASIZE PUSH0 DUP1 RETURNDATACOPY RETURNDATASIZE PUSH0 REVERT JUMPDEST POP POP POP POP PUSH2 0x795 DUP2 PUSH2 0x10A4 JUMP JUMPDEST CALLER PUSH20 0xFFFFFFFFFFFFFFFFFFFFFFFFFFFFFFFFFFFFFFFF AND PUSH32 0xC0E68D6B69F741C21E955CAD2AE4D505B6F6735C7E7B278251B3F6283A5F07EB DUP3 PUSH1 0x40 MLOAD PUSH2 0x7DB SWAP2 SWAP1 PUSH2 0x1684 JUMP JUMPDEST PUSH1 0x40 MLOAD DUP1 SWAP2 SUB SWAP1 LOG2 POP JUMP JUMPDEST PUSH1 0x60 PUSH0 PUSH1 0x2 DUP1 SLOAD SWAP1 POP PUSH8 0xFFFFFFFFFFFFFFFF DUP2 GT ISZERO PUSH2 0x808 JUMPI PUSH2 0x807 PUSH2 0x1A67 JUMP JUMPDEST JUMPDEST PUSH1 0x40 MLOAD SWAP1 DUP1 DUP3 MSTORE DUP1 PUSH1 0x20 MUL PUSH1 0x20 ADD DUP3 ADD PUSH1 0x40 MSTORE DUP1 ISZERO PUSH2 0x841 JUMPI DUP2 PUSH1 0x20 ADD JUMPDEST PUSH2 0x82E PUSH2 0x126B JUMP JUMPDEST DUP2 MSTORE PUSH1 0x20 ADD SWAP1 PUSH1 0x1 SWAP1 SUB SWAP1 DUP2 PUSH2 0x826 JUMPI SWAP1 POP JUMPDEST POP SWAP1 POP PUSH0 DUP1 JUMPDEST PUSH1 0x2 DUP1 SLOAD SWAP1 POP DUP2 LT ISZERO PUSH2 0x995 JUMPI CALLER PUSH20 0xFFFFFFFFFFFFFFFFFFFFFFFFFFFFFFFFFFFFFFFF AND PUSH1 0x2 DUP3 DUP2 SLOAD DUP2 LT PUSH2 0x87F JUMPI PUSH2 0x87E PUSH2 0x1A94 JUMP JUMPDEST JUMPDEST SWAP1 PUSH0 MSTORE PUSH1 0x20 PUSH0 KECCAK256 SWAP1 PUSH1 0x3 MUL ADD PUSH0 ADD PUSH0 SWAP1 SLOAD SWAP1 PUSH2 0x100 EXP SWAP1 DIV PUSH20 0xFFFFFFFFFFFFFFFFFFFFFFFFFFFFFFFFFFFFFFFF AND PUSH20 0xFFFFFFFFFFFFFFFFFFFFFFFFFFFFFFFFFFFFFFFF AND SUB PUSH2 0x988 JUMPI PUSH1 0x2 DUP2 DUP2 SLOAD DUP2 LT PUSH2 0x8DC JUMPI PUSH2 0x8DB PUSH2 0x1A94 JUMP JUMPDEST JUMPDEST SWAP1 PUSH0 MSTORE PUSH1 0x20 PUSH0 KECCAK256 SWAP1 PUSH1 0x3 MUL ADD PUSH1 0x40 MLOAD DUP1 PUSH1 0x60 ADD PUSH1 0x40 MSTORE SWAP1 DUP2 PUSH0 DUP3 ADD PUSH0 SWAP1 SLOAD SWAP1 PUSH2 0x100 EXP SWAP1 DIV PUSH20 0xFFFFFFFFFFFFFFFFFFFFFFFFFFFFFFFFFFFFFFFF AND PUSH20 0xFFFFFFFFFFFFFFFFFFFFFFFFFFFFFFFFFFFFFFFF AND PUSH20 0xFFFFFFFFFFFFFFFFFFFFFFFFFFFFFFFFFFFFFFFF AND DUP2 MSTORE PUSH1 0x20 ADD PUSH1 0x1 DUP3 ADD SLOAD DUP2 MSTORE PUSH1 0x20 ADD PUSH1 0x2 DUP3 ADD SLOAD DUP2 MSTORE POP POP DUP4 DUP4 DUP2 MLOAD DUP2 LT PUSH2 0x96E JUMPI PUSH2 0x96D PUSH2 0x1A94 JUMP JUMPDEST JUMPDEST PUSH1 0x20 MUL PUSH1 0x20 ADD ADD DUP2 SWAP1 MSTORE POP DUP2 DUP1 PUSH2 0x984 SWAP1 PUSH2 0x1AC1 JUMP JUMPDEST SWAP3 POP POP JUMPDEST DUP1 DUP1 PUSH1 0x1 ADD SWAP2 POP POP PUSH2 0x847 JUMP JUMPDEST POP DUP2 SWAP3 POP POP POP SWAP1 JUMP JUMPDEST PUSH0 DUP1 SLOAD SWAP1 PUSH2 0x100 EXP SWAP1 DIV PUSH20 0xFFFFFFFFFFFFFFFFFFFFFFFFFFFFFFFFFFFFFFFF AND DUP2 JUMP JUMPDEST PUSH0 PUSH1 0x2 DUP1 SLOAD SWAP1 POP SWAP1 POP SWAP1 JUMP JUMPDEST PUSH1 0x2 DUP2 DUP2 SLOAD DUP2 LT PUSH2 0x9DC JUMPI PUSH0 DUP1 REVERT JUMPDEST SWAP1 PUSH0 MSTORE PUSH1 0x20 PUSH0 KECCAK256 SWAP1 PUSH1 0x3 MUL ADD PUSH0 SWAP2 POP SWAP1 POP DUP1 PUSH0 ADD PUSH0 SWAP1 SLOAD SWAP1 PUSH2 0x100 EXP SWAP1 DIV PUSH20 0xFFFFFFFFFFFFFFFFFFFFFFFFFFFFFFFFFFFFFFFF AND SWAP1 DUP1 PUSH1 0x1 ADD SLOAD SWAP1 DUP1 PUSH1 0x2 ADD SLOAD SWAP1 POP DUP4 JUMP JUMPDEST PUSH2 0xA2A DUP3 PUSH2 0xF86 JUMP JUMPDEST PUSH2 0xA69 JUMPI PUSH1 0x40 MLOAD PUSH32 0x8C379A000000000000000000000000000000000000000000000000000000000 DUP2 MSTORE PUSH1 0x4 ADD PUSH2 0xA60 SWAP1 PUSH2 0x1986 JUMP JUMPDEST PUSH1 0x40 MLOAD DUP1 SWAP2 SUB SWAP1 REVERT JUMPDEST PUSH1 0x3 PUSH0 DUP4 DUP2 MSTORE PUSH1 0x20 ADD SWAP1 DUP2 MSTORE PUSH1 0x20 ADD PUSH0 KECCAK256 PUSH0 ADD PUSH0 SWAP1 SLOAD SWAP1 PUSH2 0x100 EXP SWAP1 DIV PUSH20 0xFFFFFFFFFFFFFFFFFFFFFFFFFFFFFFFFFFFFFFFF AND PUSH20 0xFFFFFFFFFFFFFFFFFFFFFFFFFFFFFFFFFFFFFFFF AND CALLER PUSH20 0xFFFFFFFFFFFFFFFFFFFFFFFFFFFFFFFFFFFFFFFF AND EQ PUSH2 0xB09 JUMPI PUSH1 0x40 MLOAD PUSH32 0x8C379A000000000000000000000000000000000000000000000000000000000 DUP2 MSTORE PUSH1 0x4 ADD PUSH2 0xB00 SWAP1 PUSH2 0x1B78 JUMP JUMPDEST PUSH1 0x40 MLOAD DUP1 SWAP2 SUB SWAP1 REVERT JUMPDEST PUSH0 PUSH1 0x3 PUSH0 DUP5 DUP2 MSTORE PUSH1 0x20 ADD SWAP1 DUP2 MSTORE PUSH1 0x20 ADD PUSH0 KECCAK256 PUSH1 0x2 ADD SLOAD SWAP1 POP DUP2 PUSH1 0x3 PUSH0 DUP6 DUP2 MSTORE PUSH1 0x20 ADD SWAP1 DUP2 MSTORE PUSH1 0x20 ADD PUSH0 KECCAK256 PUSH1 0x2 ADD DUP2 SWAP1 SSTORE POP PUSH0 PUSH1 0x2 PUSH1 0x4 PUSH0 DUP7 DUP2 MSTORE PUSH1 0x20 ADD SWAP1 DUP2 MSTORE PUSH1 0x20 ADD PUSH0 KECCAK256 SLOAD DUP2 SLOAD DUP2 LT PUSH2 0xB60 JUMPI PUSH2 0xB5F PUSH2 0x1A94 JUMP JUMPDEST JUMPDEST SWAP1 PUSH0 MSTORE PUSH1 0x20 PUSH0 KECCAK256 SWAP1 PUSH1 0x3 MUL ADD SWAP1 POP DUP3 DUP2 PUSH1 0x2 ADD DUP2 SWAP1 SSTORE POP CALLER PUSH20 0xFFFFFFFFFFFFFFFFFFFFFFFFFFFFFFFFFFFFFFFF AND PUSH32 0x342A7F6248980B0F191B96EB6B7A439C4DA78B2C97B86CA66CC7EE90D4B04CCE DUP6 DUP5 DUP7 PUSH1 0x40 MLOAD PUSH2 0xBC1 SWAP4 SWAP3 SWAP2 SWAP1 PUSH2 0x1B96 JUMP JUMPDEST PUSH1 0x40 MLOAD DUP1 SWAP2 SUB SWAP1 LOG2 POP POP POP POP JUMP JUMPDEST PUSH1 0x1 PUSH0 SWAP1 SLOAD SWAP1 PUSH2 0x100 EXP SWAP1 DIV PUSH20 0xFFFFFFFFFFFFFFFFFFFFFFFFFFFFFFFFFFFFFFFF AND DUP2 JUMP JUMPDEST PUSH2 0xBFD DUP3 PUSH2 0xF86 JUMP JUMPDEST PUSH2 0xC3C JUMPI PUSH1 0x40 MLOAD PUSH32 0x8C379A000000000000000000000000000000000000000000000000000000000 DUP2 MSTORE PUSH1 0x4 ADD PUSH2 0xC33 SWAP1 PUSH2 0x1986 JUMP JUMPDEST PUSH1 0x40 MLOAD DUP1 SWAP2 SUB SWAP1 REVERT JUMPDEST PUSH0 PUSH1 0x3 PUSH0 DUP5 DUP2 MSTORE PUSH1 0x20 ADD SWAP1 DUP2 MSTORE PUSH1 0x20 ADD PUSH0 KECCAK256 PUSH0 ADD PUSH0 SWAP1 SLOAD SWAP1 PUSH2 0x100 EXP SWAP1 DIV PUSH20 0xFFFFFFFFFFFFFFFFFFFFFFFFFFFFFFFFFFFFFFFF AND SWAP1 POP PUSH0 CALLER SWAP1 POP PUSH0 PUSH1 0x3 PUSH0 DUP7 DUP2 MSTORE PUSH1 0x20 ADD SWAP1 DUP2 MSTORE PUSH1 0x20 ADD PUSH0 KECCAK256 PUSH1 0x2 ADD SLOAD SWAP1 POP DUP4 DUP2 EQ PUSH2 0xCD0 JUMPI PUSH1 0x40 MLOAD PUSH32 0x8C379A000000000000000000000000000000000000000000000000000000000 DUP2 MSTORE PUSH1 0x4 ADD PUSH2 0xCC7 SWAP1 PUSH2 0x1C15 JUMP JUMPDEST PUSH1 0x40 MLOAD DUP1 SWAP2 SUB SWAP1 REVERT JUMPDEST PUSH0 DUP1 SLOAD SWAP1 PUSH2 0x100 EXP SWAP1 DIV PUSH20 0xFFFFFFFFFFFFFFFFFFFFFFFFFFFFFFFFFFFFFFFF AND PUSH20 0xFFFFFFFFFFFFFFFFFFFFFFFFFFFFFFFFFFFFFFFF AND PUSH4 0x23B872DD DUP4 DUP6 DUP5 PUSH1 0x40 MLOAD DUP5 PUSH4 0xFFFFFFFF AND PUSH1 0xE0 SHL DUP2 MSTORE PUSH1 0x4 ADD PUSH2 0xD2C SWAP4 SWAP3 SWAP2 SWAP1 PUSH2 0x1A32 JUMP JUMPDEST PUSH1 0x20 PUSH1 0x40 MLOAD DUP1 DUP4 SUB DUP2 PUSH0 DUP8 GAS CALL ISZERO DUP1 ISZERO PUSH2 0xD48 JUMPI RETURNDATASIZE PUSH0 DUP1 RETURNDATACOPY RETURNDATASIZE PUSH0 REVERT JUMPDEST POP POP POP POP PUSH1 0x40 MLOAD RETURNDATASIZE PUSH1 0x1F NOT PUSH1 0x1F DUP3 ADD AND DUP3 ADD DUP1 PUSH1 0x40 MSTORE POP DUP2 ADD SWAP1 PUSH2 0xD6C SWAP2 SWAP1 PUSH2 0x1C5D JUMP JUMPDEST PUSH2 0xDAB JUMPI PUSH1 0x40 MLOAD PUSH32 0x8C379A000000000000000000000000000000000000000000000000000000000 DUP2 MSTORE PUSH1 0x4 ADD PUSH2 0xDA2 SWAP1 PUSH2 0x1CD2 JUMP JUMPDEST PUSH1 0x40 MLOAD DUP1 SWAP2 SUB SWAP1 REVERT JUMPDEST PUSH1 0x1 PUSH0 SWAP1 SLOAD SWAP1 PUSH2 0x100 EXP SWAP1 DIV PUSH20 0xFFFFFFFFFFFFFFFFFFFFFFFFFFFFFFFFFFFFFFFF AND PUSH20 0xFFFFFFFFFFFFFFFFFFFFFFFFFFFFFFFFFFFFFFFF AND PUSH4 0x42842E0E ADDRESS DUP5 DUP9 PUSH1 0x40 MLOAD DUP5 PUSH4 0xFFFFFFFF AND PUSH1 0xE0 SHL DUP2 MSTORE PUSH1 0x4 ADD PUSH2 0xE09 SWAP4 SWAP3 SWAP2 SWAP1 PUSH2 0x1A32 JUMP JUMPDEST PUSH0 PUSH1 0x40 MLOAD DUP1 DUP4 SUB DUP2 PUSH0 DUP8 DUP1 EXTCODESIZE ISZERO DUP1 ISZERO PUSH2 0xE20 JUMPI PUSH0 DUP1 REVERT JUMPDEST POP GAS CALL ISZERO DUP1 ISZERO PUSH2 0xE32 JUMPI RETURNDATASIZE PUSH0 DUP1 RETURNDATACOPY RETURNDATASIZE PUSH0 REVERT JUMPDEST POP POP POP POP PUSH2 0xE3F DUP6 PUSH2 0x10A4 JUMP JUMPDEST DUP3 PUSH20 0xFFFFFFFFFFFFFFFFFFFFFFFFFFFFFFFFFFFFFFFF AND DUP3 PUSH20 0xFFFFFFFFFFFFFFFFFFFFFFFFFFFFFFFFFFFFFFFF AND PUSH32 0x424D5E5F0192C7DACDBE646CA31B00299146D883D76A95EF5CDDBAC7CD342EAB DUP8 DUP8 PUSH1 0x40 MLOAD PUSH2 0xE9E SWAP3 SWAP2 SWAP1 PUSH2 0x1915 JUMP JUMPDEST PUSH1 0x40 MLOAD DUP1 SWAP2 SUB SWAP1 LOG3 POP POP POP POP POP JUMP JUMPDEST PUSH1 0x4 PUSH1 0x20 MSTORE DUP1 PUSH0 MSTORE PUSH1 0x40 PUSH0 KECCAK256 PUSH0 SWAP2 POP SWAP1 POP SLOAD DUP2 JUMP JUMPDEST PUSH1 0x60 PUSH1 0x2 DUP1 SLOAD DUP1 PUSH1 0x20 MUL PUSH1 0x20 ADD PUSH1 0x40 MLOAD SWAP1 DUP2 ADD PUSH1 0x40 MSTORE DUP1 SWAP3 SWAP2 SWAP1 DUP2 DUP2 MSTORE PUSH1 0x20 ADD PUSH0 SWAP1 JUMPDEST DUP3 DUP3 LT ISZERO PUSH2 0xF7D JUMPI DUP4 DUP3 SWAP1 PUSH0 MSTORE PUSH1 0x20 PUSH0 KECCAK256 SWAP1 PUSH1 0x3 MUL ADD PUSH1 0x40 MLOAD DUP1 PUSH1 0x60 ADD PUSH1 0x40 MSTORE SWAP1 DUP2 PUSH0 DUP3 ADD PUSH0 SWAP1 SLOAD SWAP1 PUSH2 0x100 EXP SWAP1 DIV PUSH20 0xFFFFFFFFFFFFFFFFFFFFFFFFFFFFFFFFFFFFFFFF AND PUSH20 0xFFFFFFFFFFFFFFFFFFFFFFFFFFFFFFFFFFFFFFFF AND PUSH20 0xFFFFFFFFFFFFFFFFFFFFFFFFFFFFFFFFFFFFFFFF AND DUP2 MSTORE PUSH1 0x20 ADD PUSH1 0x1 DUP3 ADD SLOAD DUP2 MSTORE PUSH1 0x20 ADD PUSH1 0x2 DUP3 ADD SLOAD DUP2 MSTORE POP POP DUP2 MSTORE PUSH1 0x20 ADD SWAP1 PUSH1 0x1 ADD SWAP1 PUSH2 0xEE5 JUMP JUMPDEST POP POP POP POP SWAP1 POP SWAP1 JUMP JUMPDEST PUSH0 DUP1 PUSH20 0xFFFFFFFFFFFFFFFFFFFFFFFFFFFFFFFFFFFFFFFF AND PUSH1 0x3 PUSH0 DUP5 DUP2 MSTORE PUSH1 0x20 ADD SWAP1 DUP2 MSTORE PUSH1 0x20 ADD PUSH0 KECCAK256 PUSH0 ADD PUSH0 SWAP1 SLOAD SWAP1 PUSH2 0x100 EXP SWAP1 DIV PUSH20 0xFFFFFFFFFFFFFFFFFFFFFFFFFFFFFFFFFFFFFFFF AND PUSH20 0xFFFFFFFFFFFFFFFFFFFFFFFFFFFFFFFFFFFFFFFF AND EQ ISZERO SWAP1 POP SWAP2 SWAP1 POP JUMP JUMPDEST PUSH0 DUP2 PUSH1 0x20 DUP4 PUSH2 0xFFF SWAP2 SWAP1 PUSH2 0x1CF0 JUMP JUMPDEST LT ISZERO PUSH2 0x1040 JUMPI PUSH1 0x40 MLOAD PUSH32 0x8C379A000000000000000000000000000000000000000000000000000000000 DUP2 MSTORE PUSH1 0x4 ADD PUSH2 0x1037 SWAP1 PUSH2 0x1D6D JUMP JUMPDEST PUSH1 0x40 MLOAD DUP1 SWAP2 SUB SWAP1 REVERT JUMPDEST PUSH1 0x20 DUP3 PUSH2 0x104D SWAP2 SWAP1 PUSH2 0x1CF0 JUMP JUMPDEST DUP4 MLOAD LT ISZERO PUSH2 0x1090 JUMPI PUSH1 0x40 MLOAD PUSH32 0x8C379A000000000000000000000000000000000000000000000000000000000 DUP2 MSTORE PUSH1 0x4 ADD PUSH2 0x1087 SWAP1 PUSH2 0x1DD5 JUMP JUMPDEST PUSH1 0x40 MLOAD DUP1 SWAP2 SUB SWAP1 REVERT JUMPDEST PUSH0 DUP3 PUSH1 0x20 DUP6 ADD ADD MLOAD SWAP1 POP DUP1 SWAP2 POP POP SWAP3 SWAP2 POP POP JUMP JUMPDEST PUSH0 PUSH1 0x1 PUSH1 0x2 DUP1 SLOAD SWAP1 POP PUSH2 0x10B7 SWAP2 SWAP1 PUSH2 0x18E2 JUMP JUMPDEST SWAP1 POP PUSH0 PUSH1 0x4 PUSH0 DUP5 DUP2 MSTORE PUSH1 0x20 ADD SWAP1 DUP2 MSTORE PUSH1 0x20 ADD PUSH0 KECCAK256 SLOAD SWAP1 POP DUP2 DUP2 EQ PUSH2 0x11AF JUMPI PUSH0 PUSH1 0x2 DUP4 DUP2 SLOAD DUP2 LT PUSH2 0x10EA JUMPI PUSH2 0x10E9 PUSH2 0x1A94 JUMP JUMPDEST JUMPDEST SWAP1 PUSH0 MSTORE PUSH1 0x20 PUSH0 KECCAK256 SWAP1 PUSH1 0x3 MUL ADD SWAP1 POP DUP1 PUSH1 0x2 DUP4 DUP2 SLOAD DUP2 LT PUSH2 0x110D JUMPI PUSH2 0x110C PUSH2 0x1A94 JUMP JUMPDEST JUMPDEST SWAP1 PUSH0 MSTORE PUSH1 0x20 PUSH0 KECCAK256 SWAP1 PUSH1 0x3 MUL ADD PUSH0 DUP3 ADD PUSH0 SWAP1 SLOAD SWAP1 PUSH2 0x100 EXP SWAP1 DIV PUSH20 0xFFFFFFFFFFFFFFFFFFFFFFFFFFFFFFFFFFFFFFFF AND DUP2 PUSH0 ADD PUSH0 PUSH2 0x100 EXP DUP2 SLOAD DUP2 PUSH20 0xFFFFFFFFFFFFFFFFFFFFFFFFFFFFFFFFFFFFFFFF MUL NOT AND SWAP1 DUP4 PUSH20 0xFFFFFFFFFFFFFFFFFFFFFFFFFFFFFFFFFFFFFFFF AND MUL OR SWAP1 SSTORE POP PUSH1 0x1 DUP3 ADD SLOAD DUP2 PUSH1 0x1 ADD SSTORE PUSH1 0x2 DUP3 ADD SLOAD DUP2 PUSH1 0x2 ADD SSTORE SWAP1 POP POP DUP2 PUSH1 0x4 PUSH0 DUP4 PUSH1 0x1 ADD SLOAD DUP2 MSTORE PUSH1 0x20 ADD SWAP1 DUP2 MSTORE PUSH1 0x20 ADD PUSH0 KECCAK256 DUP2 SWAP1 SSTORE POP POP JUMPDEST PUSH1 0x2 DUP1 SLOAD DUP1 PUSH2 0x11C1 JUMPI PUSH2 0x11C0 PUSH2 0x1DF3 JUMP JUMPDEST JUMPDEST PUSH1 0x1 SWAP1 SUB DUP2 DUP2 SWAP1 PUSH0 MSTORE PUSH1 0x20 PUSH0 KECCAK256 SWAP1 PUSH1 0x3 MUL ADD PUSH0 DUP1 DUP3 ADD PUSH0 PUSH2 0x100 EXP DUP2 SLOAD SWAP1 PUSH20 0xFFFFFFFFFFFFFFFFFFFFFFFFFFFFFFFFFFFFFFFF MUL NOT AND SWAP1 SSTORE PUSH1 0x1 DUP3 ADD PUSH0 SWAP1 SSTORE PUSH1 0x2 DUP3 ADD PUSH0 SWAP1 SSTORE POP POP SWAP1 SSTORE PUSH1 0x3 PUSH0 DUP5 DUP2 MSTORE PUSH1 0x20 ADD SWAP1 DUP2 MSTORE PUSH1 0x20 ADD PUSH0 KECCAK256 PUSH0 DUP1 DUP3 ADD PUSH0 PUSH2 0x100 EXP DUP2 SLOAD SWAP1 PUSH20 0xFFFFFFFFFFFFFFFFFFFFFFFFFFFFFFFFFFFFFFFF MUL NOT AND SWAP1 SSTORE PUSH1 0x1 DUP3 ADD PUSH0 SWAP1 SSTORE PUSH1 0x2 DUP3 ADD PUSH0 SWAP1 SSTORE POP POP PUSH1 0x4 PUSH0 DUP5 DUP2 MSTORE PUSH1 0x20 ADD SWAP1 DUP2 MSTORE PUSH1 0x20 ADD PUSH0 KECCAK256 PUSH0 SWAP1 SSTORE POP POP POP JUMP JUMPDEST PUSH1 0x40 MLOAD DUP1 PUSH1 0x60 ADD PUSH1 0x40 MSTORE DUP1 PUSH0 PUSH20 0xFFFFFFFFFFFFFFFFFFFFFFFFFFFFFFFFFFFFFFFF AND DUP2 MSTORE PUSH1 0x20 ADD PUSH0 DUP2 MSTORE PUSH1 0x20 ADD PUSH0 DUP2 MSTORE POP SWAP1 JUMP JUMPDEST PUSH0 DUP1 REVERT JUMPDEST PUSH0 DUP1 REVERT JUMPDEST PUSH0 PUSH20 0xFFFFFFFFFFFFFFFFFFFFFFFFFFFFFFFFFFFFFFFF DUP3 AND SWAP1 POP SWAP2 SWAP1 POP JUMP JUMPDEST PUSH0 PUSH2 0x12D0 DUP3 PUSH2 0x12A7 JUMP JUMPDEST SWAP1 POP SWAP2 SWAP1 POP JUMP JUMPDEST PUSH2 0x12E0 DUP2 PUSH2 0x12C6 JUMP JUMPDEST DUP2 EQ PUSH2 0x12EA JUMPI PUSH0 DUP1 REVERT JUMPDEST POP JUMP JUMPDEST PUSH0 DUP2 CALLDATALOAD SWAP1 POP PUSH2 0x12FB DUP2 PUSH2 0x12D7 JUMP JUMPDEST SWAP3 SWAP2 POP POP JUMP JUMPDEST PUSH0 DUP2 SWAP1 POP SWAP2 SWAP1 POP JUMP JUMPDEST PUSH2 0x1313 DUP2 PUSH2 0x1301 JUMP JUMPDEST DUP2 EQ PUSH2 0x131D JUMPI PUSH0 DUP1 REVERT JUMPDEST POP JUMP JUMPDEST PUSH0 DUP2 CALLDATALOAD SWAP1 POP PUSH2 0x132E DUP2 PUSH2 0x130A JUMP JUMPDEST SWAP3 SWAP2 POP POP JUMP JUMPDEST PUSH0 DUP1 REVERT JUMPDEST PUSH0 DUP1 REVERT JUMPDEST PUSH0 DUP1 REVERT JUMPDEST PUSH0 DUP1 DUP4 PUSH1 0x1F DUP5 ADD SLT PUSH2 0x1355 JUMPI PUSH2 0x1354 PUSH2 0x1334 JUMP JUMPDEST JUMPDEST DUP3 CALLDATALOAD SWAP1 POP PUSH8 0xFFFFFFFFFFFFFFFF DUP2 GT ISZERO PUSH2 0x1372 JUMPI PUSH2 0x1371 PUSH2 0x1338 JUMP JUMPDEST JUMPDEST PUSH1 0x20 DUP4 ADD SWAP2 POP DUP4 PUSH1 0x1 DUP3 MUL DUP4 ADD GT ISZERO PUSH2 0x138E JUMPI PUSH2 0x138D PUSH2 0x133C JUMP JUMPDEST JUMPDEST SWAP3 POP SWAP3 SWAP1 POP JUMP JUMPDEST PUSH0 DUP1 PUSH0 DUP1 PUSH0 PUSH1 0x80 DUP7 DUP9 SUB SLT ISZERO PUSH2 0x13AE JUMPI PUSH2 0x13AD PUSH2 0x129F JUMP JUMPDEST JUMPDEST PUSH0 PUSH2 0x13BB DUP9 DUP3 DUP10 ADD PUSH2 0x12ED JUMP JUMPDEST SWAP6 POP POP PUSH1 0x20 PUSH2 0x13CC DUP9 DUP3 DUP10 ADD PUSH2 0x12ED JUMP JUMPDEST SWAP5 POP POP PUSH1 0x40 PUSH2 0x13DD DUP9 DUP3 DUP10 ADD PUSH2 0x1320 JUMP JUMPDEST SWAP4 POP POP PUSH1 0x60 DUP7 ADD CALLDATALOAD PUSH8 0xFFFFFFFFFFFFFFFF DUP2 GT ISZERO PUSH2 0x13FE JUMPI PUSH2 0x13FD PUSH2 0x12A3 JUMP JUMPDEST JUMPDEST PUSH2 0x140A DUP9 DUP3 DUP10 ADD PUSH2 0x1340 JUMP JUMPDEST SWAP3 POP SWAP3 POP POP SWAP3 SWAP6 POP SWAP3 SWAP6 SWAP1 SWAP4 POP JUMP JUMPDEST PUSH0 PUSH32 0xFFFFFFFF00000000000000000000000000000000000000000000000000000000 DUP3 AND SWAP1 POP SWAP2 SWAP1 POP JUMP JUMPDEST PUSH2 0x144D DUP2 PUSH2 0x1419 JUMP JUMPDEST DUP3 MSTORE POP POP JUMP JUMPDEST PUSH0 PUSH1 0x20 DUP3 ADD SWAP1 POP PUSH2 0x1466 PUSH0 DUP4 ADD DUP5 PUSH2 0x1444 JUMP JUMPDEST SWAP3 SWAP2 POP POP JUMP JUMPDEST PUSH0 PUSH1 0x20 DUP3 DUP5 SUB SLT ISZERO PUSH2 0x1481 JUMPI PUSH2 0x1480 PUSH2 0x129F JUMP JUMPDEST JUMPDEST PUSH0 PUSH2 0x148E DUP5 DUP3 DUP6 ADD PUSH2 0x1320 JUMP JUMPDEST SWAP2 POP POP SWAP3 SWAP2 POP POP JUMP JUMPDEST PUSH2 0x14A0 DUP2 PUSH2 0x12C6 JUMP JUMPDEST DUP3 MSTORE POP POP JUMP JUMPDEST PUSH2 0x14AF DUP2 PUSH2 0x1301 JUMP JUMPDEST DUP3 MSTORE POP POP JUMP JUMPDEST PUSH0 PUSH1 0x60 DUP3 ADD SWAP1 POP PUSH2 0x14C8 PUSH0 DUP4 ADD DUP7 PUSH2 0x1497 JUMP JUMPDEST PUSH2 0x14D5 PUSH1 0x20 DUP4 ADD DUP6 PUSH2 0x14A6 JUMP JUMPDEST PUSH2 0x14E2 PUSH1 0x40 DUP4 ADD DUP5 PUSH2 0x14A6 JUMP JUMPDEST SWAP5 SWAP4 POP POP POP POP JUMP JUMPDEST PUSH0 DUP2 MLOAD SWAP1 POP SWAP2 SWAP1 POP JUMP JUMPDEST PUSH0 DUP3 DUP3 MSTORE PUSH1 0x20 DUP3 ADD SWAP1 POP SWAP3 SWAP2 POP POP JUMP JUMPDEST PUSH0 DUP2 SWAP1 POP PUSH1 0x20 DUP3 ADD SWAP1 POP SWAP2 SWAP1 POP JUMP JUMPDEST PUSH2 0x151C DUP2 PUSH2 0x12C6 JUMP JUMPDEST DUP3 MSTORE POP POP JUMP JUMPDEST PUSH2 0x152B DUP2 PUSH2 0x1301 JUMP JUMPDEST DUP3 MSTORE POP POP JUMP JUMPDEST PUSH1 0x60 DUP3 ADD PUSH0 DUP3 ADD MLOAD PUSH2 0x1545 PUSH0 DUP6 ADD DUP3 PUSH2 0x1513 JUMP JUMPDEST POP PUSH1 0x20 DUP3 ADD MLOAD PUSH2 0x1558 PUSH1 0x20 DUP6 ADD DUP3 PUSH2 0x1522 JUMP JUMPDEST POP PUSH1 0x40 DUP3 ADD MLOAD PUSH2 0x156B PUSH1 0x40 DUP6 ADD DUP3 PUSH2 0x1522 JUMP JUMPDEST POP POP POP POP JUMP JUMPDEST PUSH0 PUSH2 0x157C DUP4 DUP4 PUSH2 0x1531 JUMP JUMPDEST PUSH1 0x60 DUP4 ADD SWAP1 POP SWAP3 SWAP2 POP POP JUMP JUMPDEST PUSH0 PUSH1 0x20 DUP3 ADD SWAP1 POP SWAP2 SWAP1 POP JUMP JUMPDEST PUSH0 PUSH2 0x159E DUP3 PUSH2 0x14EA JUMP JUMPDEST PUSH2 0x15A8 DUP2 DUP6 PUSH2 0x14F4 JUMP JUMPDEST SWAP4 POP PUSH2 0x15B3 DUP4 PUSH2 0x1504 JUMP JUMPDEST DUP1 PUSH0 JUMPDEST DUP4 DUP2 LT ISZERO PUSH2 0x15E3 JUMPI DUP2 MLOAD PUSH2 0x15CA DUP9 DUP3 PUSH2 0x1571 JUMP JUMPDEST SWAP8 POP PUSH2 0x15D5 DUP4 PUSH2 0x1588 JUMP JUMPDEST SWAP3 POP POP PUSH1 0x1 DUP2 ADD SWAP1 POP PUSH2 0x15B6 JUMP JUMPDEST POP DUP6 SWAP4 POP POP POP POP SWAP3 SWAP2 POP POP JUMP JUMPDEST PUSH0 PUSH1 0x20 DUP3 ADD SWAP1 POP DUP2 DUP2 SUB PUSH0 DUP4 ADD MSTORE PUSH2 0x1608 DUP2 DUP5 PUSH2 0x1594 JUMP JUMPDEST SWAP1 POP SWAP3 SWAP2 POP POP JUMP JUMPDEST PUSH0 DUP2 SWAP1 POP SWAP2 SWAP1 POP JUMP JUMPDEST PUSH0 PUSH2 0x1633 PUSH2 0x162E PUSH2 0x1629 DUP5 PUSH2 0x12A7 JUMP JUMPDEST PUSH2 0x1610 JUMP JUMPDEST PUSH2 0x12A7 JUMP JUMPDEST SWAP1 POP SWAP2 SWAP1 POP JUMP JUMPDEST PUSH0 PUSH2 0x1644 DUP3 PUSH2 0x1619 JUMP JUMPDEST SWAP1 POP SWAP2 SWAP1 POP JUMP JUMPDEST PUSH0 PUSH2 0x1655 DUP3 PUSH2 0x163A JUMP JUMPDEST SWAP1 POP SWAP2 SWAP1 POP JUMP JUMPDEST PUSH2 0x1665 DUP2 PUSH2 0x164B JUMP JUMPDEST DUP3 MSTORE POP POP JUMP JUMPDEST PUSH0 PUSH1 0x20 DUP3 ADD SWAP1 POP PUSH2 0x167E PUSH0 DUP4 ADD DUP5 PUSH2 0x165C JUMP JUMPDEST SWAP3 SWAP2 POP POP JUMP JUMPDEST PUSH0 PUSH1 0x20 DUP3 ADD SWAP1 POP PUSH2 0x1697 PUSH0 DUP4 ADD DUP5 PUSH2 0x14A6 JUMP JUMPDEST SWAP3 SWAP2 POP POP JUMP JUMPDEST PUSH0 DUP1 PUSH1 0x40 DUP4 DUP6 SUB SLT ISZERO PUSH2 0x16B3 JUMPI PUSH2 0x16B2 PUSH2 0x129F JUMP JUMPDEST JUMPDEST PUSH0 PUSH2 0x16C0 DUP6 DUP3 DUP7 ADD PUSH2 0x1320 JUMP JUMPDEST SWAP3 POP POP PUSH1 0x20 PUSH2 0x16D1 DUP6 DUP3 DUP7 ADD PUSH2 0x1320 JUMP JUMPDEST SWAP2 POP POP SWAP3 POP SWAP3 SWAP1 POP JUMP JUMPDEST PUSH0 PUSH2 0x16E5 DUP3 PUSH2 0x163A JUMP JUMPDEST SWAP1 POP SWAP2 SWAP1 POP JUMP JUMPDEST PUSH2 0x16F5 DUP2 PUSH2 0x16DB JUMP JUMPDEST DUP3 MSTORE POP POP JUMP JUMPDEST PUSH0 PUSH1 0x20 DUP3 ADD SWAP1 POP PUSH2 0x170E PUSH0 DUP4 ADD DUP5 PUSH2 0x16EC JUMP JUMPDEST SWAP3 SWAP2 POP POP JUMP JUMPDEST PUSH0 DUP2 ISZERO ISZERO SWAP1 POP SWAP2 SWAP1 POP JUMP JUMPDEST PUSH2 0x1728 DUP2 PUSH2 0x1714 JUMP JUMPDEST DUP3 MSTORE POP POP JUMP JUMPDEST PUSH0 PUSH1 0x20 DUP3 ADD SWAP1 POP PUSH2 0x1741 PUSH0 DUP4 ADD DUP5 PUSH2 0x171F JUMP JUMPDEST SWAP3 SWAP2 POP POP JUMP JUMPDEST PUSH0 DUP3 DUP3 MSTORE PUSH1 0x20 DUP3 ADD SWAP1 POP SWAP3 SWAP2 POP POP JUMP JUMPDEST PUSH32 0x4D61726B65743A20496E76616C69642070726963650000000000000000000000 PUSH0 DUP3 ADD MSTORE POP JUMP JUMPDEST PUSH0 PUSH2 0x178B PUSH1 0x15 DUP4 PUSH2 0x1747 JUMP JUMPDEST SWAP2 POP PUSH2 0x1796 DUP3 PUSH2 0x1757 JUMP JUMPDEST PUSH1 0x20 DUP3 ADD SWAP1 POP SWAP2 SWAP1 POP JUMP JUMPDEST PUSH0 PUSH1 0x20 DUP3 ADD SWAP1 POP DUP2 DUP2 SUB PUSH0 DUP4 ADD MSTORE PUSH2 0x17B8 DUP2 PUSH2 0x177F JUMP JUMPDEST SWAP1 POP SWAP2 SWAP1 POP JUMP JUMPDEST PUSH32 0x4D61726B65743A20496E76616C69642073656C6C657200000000000000000000 PUSH0 DUP3 ADD MSTORE POP JUMP JUMPDEST PUSH0 PUSH2 0x17F3 PUSH1 0x16 DUP4 PUSH2 0x1747 JUMP JUMPDEST SWAP2 POP PUSH2 0x17FE DUP3 PUSH2 0x17BF JUMP JUMPDEST PUSH1 0x20 DUP3 ADD SWAP1 POP SWAP2 SWAP1 POP JUMP JUMPDEST PUSH0 PUSH1 0x20 DUP3 ADD SWAP1 POP DUP2 DUP2 SUB PUSH0 DUP4 ADD MSTORE PUSH2 0x1820 DUP2 PUSH2 0x17E7 JUMP JUMPDEST SWAP1 POP SWAP2 SWAP1 POP JUMP JUMPDEST PUSH32 0x4D61726B65743A20546F6B656E20494420697320616C7265616479206C697374 PUSH0 DUP3 ADD MSTORE PUSH32 0x6564000000000000000000000000000000000000000000000000000000000000 PUSH1 0x20 DUP3 ADD MSTORE POP JUMP JUMPDEST PUSH0 PUSH2 0x1881 PUSH1 0x22 DUP4 PUSH2 0x1747 JUMP JUMPDEST SWAP2 POP PUSH2 0x188C DUP3 PUSH2 0x1827 JUMP JUMPDEST PUSH1 0x40 DUP3 ADD SWAP1 POP SWAP2 SWAP1 POP JUMP JUMPDEST PUSH0 PUSH1 0x20 DUP3 ADD SWAP1 POP DUP2 DUP2 SUB PUSH0 DUP4 ADD MSTORE PUSH2 0x18AE DUP2 PUSH2 0x1875 JUMP JUMPDEST SWAP1 POP SWAP2 SWAP1 POP JUMP JUMPDEST PUSH32 0x4E487B7100000000000000000000000000000000000000000000000000000000 PUSH0 MSTORE PUSH1 0x11 PUSH1 0x4 MSTORE PUSH1 0x24 PUSH0 REVERT JUMPDEST PUSH0 PUSH2 0x18EC DUP3 PUSH2 0x1301 JUMP JUMPDEST SWAP2 POP PUSH2 0x18F7 DUP4 PUSH2 0x1301 JUMP JUMPDEST SWAP3 POP DUP3 DUP3 SUB SWAP1 POP DUP2 DUP2 GT ISZERO PUSH2 0x190F JUMPI PUSH2 0x190E PUSH2 0x18B5 JUMP JUMPDEST JUMPDEST SWAP3 SWAP2 POP POP JUMP JUMPDEST PUSH0 PUSH1 0x40 DUP3 ADD SWAP1 POP PUSH2 0x1928 PUSH0 DUP4 ADD DUP6 PUSH2 0x14A6 JUMP JUMPDEST PUSH2 0x1935 PUSH1 0x20 DUP4 ADD DUP5 PUSH2 0x14A6 JUMP JUMPDEST SWAP4 SWAP3 POP POP POP JUMP JUMPDEST PUSH32 0x4D61726B65743A20546F6B656E204944206973206E6F74206C69737465640000 PUSH0 DUP3 ADD MSTORE POP JUMP JUMPDEST PUSH0 PUSH2 0x1970 PUSH1 0x1E DUP4 PUSH2 0x1747 JUMP JUMPDEST SWAP2 POP PUSH2 0x197B DUP3 PUSH2 0x193C JUMP JUMPDEST PUSH1 0x20 DUP3 ADD SWAP1 POP SWAP2 SWAP1 POP JUMP JUMPDEST PUSH0 PUSH1 0x20 DUP3 ADD SWAP1 POP DUP2 DUP2 SUB PUSH0 DUP4 ADD MSTORE PUSH2 0x199D DUP2 PUSH2 0x1964 JUMP JUMPDEST SWAP1 POP SWAP2 SWAP1 POP JUMP JUMPDEST PUSH32 0x4D61726B65743A204F6E6C792073656C6C65722063616E2063616E63656C206F PUSH0 DUP3 ADD MSTORE PUSH32 0x7264657200000000000000000000000000000000000000000000000000000000 PUSH1 0x20 DUP3 ADD MSTORE POP JUMP JUMPDEST PUSH0 PUSH2 0x19FE PUSH1 0x24 DUP4 PUSH2 0x1747 JUMP JUMPDEST SWAP2 POP PUSH2 0x1A09 DUP3 PUSH2 0x19A4 JUMP JUMPDEST PUSH1 0x40 DUP3 ADD SWAP1 POP SWAP2 SWAP1 POP JUMP JUMPDEST PUSH0 PUSH1 0x20 DUP3 ADD SWAP1 POP DUP2 DUP2 SUB PUSH0 DUP4 ADD MSTORE PUSH2 0x1A2B DUP2 PUSH2 0x19F2 JUMP JUMPDEST SWAP1 POP SWAP2 SWAP1 POP JUMP JUMPDEST PUSH0 PUSH1 0x60 DUP3 ADD SWAP1 POP PUSH2 0x1A45 PUSH0 DUP4 ADD DUP7 PUSH2 0x1497 JUMP JUMPDEST PUSH2 0x1A52 PUSH1 0x20 DUP4 ADD DUP6 PUSH2 0x1497 JUMP JUMPDEST PUSH2 0x1A5F PUSH1 0x40 DUP4 ADD DUP5 PUSH2 0x14A6 JUMP JUMPDEST SWAP5 SWAP4 POP POP POP POP JUMP JUMPDEST PUSH32 0x4E487B7100000000000000000000000000000000000000000000000000000000 PUSH0 MSTORE PUSH1 0x41 PUSH1 0x4 MSTORE PUSH1 0x24 PUSH0 REVERT JUMPDEST PUSH32 0x4E487B7100000000000000000000000000000000000000000000000000000000 PUSH0 MSTORE PUSH1 0x32 PUSH1 0x4 MSTORE PUSH1 0x24 PUSH0 REVERT JUMPDEST PUSH0 PUSH2 0x1ACB DUP3 PUSH2 0x1301 JUMP JUMPDEST SWAP2 POP PUSH32 0xFFFFFFFFFFFFFFFFFFFFFFFFFFFFFFFFFFFFFFFFFFFFFFFFFFFFFFFFFFFFFFFF DUP3 SUB PUSH2 0x1AFD JUMPI PUSH2 0x1AFC PUSH2 0x18B5 JUMP JUMPDEST JUMPDEST PUSH1 0x1 DUP3 ADD SWAP1 POP SWAP2 SWAP1 POP JUMP JUMPDEST PUSH32 0x4D61726B65743A204F6E6C792073656C6C65722063616E206368616E67652070 PUSH0 DUP3 ADD MSTORE PUSH32 0x7269636500000000000000000000000000000000000000000000000000000000 PUSH1 0x20 DUP3 ADD MSTORE POP JUMP JUMPDEST PUSH0 PUSH2 0x1B62 PUSH1 0x24 DUP4 PUSH2 0x1747 JUMP JUMPDEST SWAP2 POP PUSH2 0x1B6D DUP3 PUSH2 0x1B08 JUMP JUMPDEST PUSH1 0x40 DUP3 ADD SWAP1 POP SWAP2 SWAP1 POP JUMP JUMPDEST PUSH0 PUSH1 0x20 DUP3 ADD SWAP1 POP DUP2 DUP2 SUB PUSH0 DUP4 ADD MSTORE PUSH2 0x1B8F DUP2 PUSH2 0x1B56 JUMP JUMPDEST SWAP1 POP SWAP2 SWAP1 POP JUMP JUMPDEST PUSH0 PUSH1 0x60 DUP3 ADD SWAP1 POP PUSH2 0x1BA9 PUSH0 DUP4 ADD DUP7 PUSH2 0x14A6 JUMP JUMPDEST PUSH2 0x1BB6 PUSH1 0x20 DUP4 ADD DUP6 PUSH2 0x14A6 JUMP JUMPDEST PUSH2 0x1BC3 PUSH1 0x40 DUP4 ADD DUP5 PUSH2 0x14A6 JUMP JUMPDEST SWAP5 SWAP4 POP POP POP POP JUMP JUMPDEST PUSH32 0x4D61726B65743A205072696365206973206E6F742065686F7567680000000000 PUSH0 DUP3 ADD MSTORE POP JUMP JUMPDEST PUSH0 PUSH2 0x1BFF PUSH1 0x1B DUP4 PUSH2 0x1747 JUMP JUMPDEST SWAP2 POP PUSH2 0x1C0A DUP3 PUSH2 0x1BCB JUMP JUMPDEST PUSH1 0x20 DUP3 ADD SWAP1 POP SWAP2 SWAP1 POP JUMP JUMPDEST PUSH0 PUSH1 0x20 DUP3 ADD SWAP1 POP DUP2 DUP2 SUB PUSH0 DUP4 ADD MSTORE PUSH2 0x1C2C DUP2 PUSH2 0x1BF3 JUMP JUMPDEST SWAP1 POP SWAP2 SWAP1 POP JUMP JUMPDEST PUSH2 0x1C3C DUP2 PUSH2 0x1714 JUMP JUMPDEST DUP2 EQ PUSH2 0x1C46 JUMPI PUSH0 DUP1 REVERT JUMPDEST POP JUMP JUMPDEST PUSH0 DUP2 MLOAD SWAP1 POP PUSH2 0x1C57 DUP2 PUSH2 0x1C33 JUMP JUMPDEST SWAP3 SWAP2 POP POP JUMP JUMPDEST PUSH0 PUSH1 0x20 DUP3 DUP5 SUB SLT ISZERO PUSH2 0x1C72 JUMPI PUSH2 0x1C71 PUSH2 0x129F JUMP JUMPDEST JUMPDEST PUSH0 PUSH2 0x1C7F DUP5 DUP3 DUP6 ADD PUSH2 0x1C49 JUMP JUMPDEST SWAP2 POP POP SWAP3 SWAP2 POP POP JUMP JUMPDEST PUSH32 0x4D61726B65743A205472616E73666572206661696C6564000000000000000000 PUSH0 DUP3 ADD MSTORE POP JUMP JUMPDEST PUSH0 PUSH2 0x1CBC PUSH1 0x17 DUP4 PUSH2 0x1747 JUMP JUMPDEST SWAP2 POP PUSH2 0x1CC7 DUP3 PUSH2 0x1C88 JUMP JUMPDEST PUSH1 0x20 DUP3 ADD SWAP1 POP SWAP2 SWAP1 POP JUMP JUMPDEST PUSH0 PUSH1 0x20 DUP3 ADD SWAP1 POP DUP2 DUP2 SUB PUSH0 DUP4 ADD MSTORE PUSH2 0x1CE9 DUP2 PUSH2 0x1CB0 JUMP JUMPDEST SWAP1 POP SWAP2 SWAP1 POP JUMP JUMPDEST PUSH0 PUSH2 0x1CFA DUP3 PUSH2 0x1301 JUMP JUMPDEST SWAP2 POP PUSH2 0x1D05 DUP4 PUSH2 0x1301 JUMP JUMPDEST SWAP3 POP DUP3 DUP3 ADD SWAP1 POP DUP1 DUP3 GT ISZERO PUSH2 0x1D1D JUMPI PUSH2 0x1D1C PUSH2 0x18B5 JUMP JUMPDEST JUMPDEST SWAP3 SWAP2 POP POP JUMP JUMPDEST PUSH32 0x4D61726B65743A20746F55696E74206F7574206F662072616E67650000000000 PUSH0 DUP3 ADD MSTORE POP JUMP JUMPDEST PUSH0 PUSH2 0x1D57 PUSH1 0x1B DUP4 PUSH2 0x1747 JUMP JUMPDEST SWAP2 POP PUSH2 0x1D62 DUP3 PUSH2 0x1D23 JUMP JUMPDEST PUSH1 0x20 DUP3 ADD SWAP1 POP SWAP2 SWAP1 POP JUMP JUMPDEST PUSH0 PUSH1 0x20 DUP3 ADD SWAP1 POP DUP2 DUP2 SUB PUSH0 DUP4 ADD MSTORE PUSH2 0x1D84 DUP2 PUSH2 0x1D4B JUMP JUMPDEST SWAP1 POP SWAP2 SWAP1 POP JUMP JUMPDEST PUSH32 0x4D61726B65743A20746F55696E74323536206F7574206F662072616E67650000 PUSH0 DUP3 ADD MSTORE POP JUMP JUMPDEST PUSH0 PUSH2 0x1DBF PUSH1 0x1E DUP4 PUSH2 0x1747 JUMP JUMPDEST SWAP2 POP PUSH2 0x1DCA DUP3 PUSH2 0x1D8B JUMP JUMPDEST PUSH1 0x20 DUP3 ADD SWAP1 POP SWAP2 SWAP1 POP JUMP JUMPDEST PUSH0 PUSH1 0x20 DUP3 ADD SWAP1 POP DUP2 DUP2 SUB PUSH0 DUP4 ADD MSTORE PUSH2 0x1DEC DUP2 PUSH2 0x1DB3 JUMP JUMPDEST SWAP1 POP SWAP2 SWAP1 POP JUMP JUMPDEST PUSH32 0x4E487B7100000000000000000000000000000000000000000000000000000000 PUSH0 MSTORE PUSH1 0x31 PUSH1 0x4 MSTORE PUSH1 0x24 PUSH0 REVERT INVALID LOG2 PUSH5 0x6970667358 0x22 SLT KECCAK256 0x24 0xD6 GASPRICE SIGNEXTEND DUP14 MULMOD MLOAD LOG0 0xC4 EQ 0xD7 SWAP10 PC 0xF7 SWAP2 SELFBALANCE 0xF7 0xAB DUP3 PUSH22 0x628852D643995431AA5D99A664736F6C634300081600 CALLER "
				},
				"gasEstimates": {
					"creation": {
						"codeDepositCost": "1553200",
						"executionCost": "infinite",
						"totalCost": "infinite"
					},
					"external": {
						"OrderOfId(uint256)": "infinite",
						"buy(uint256,uint256)": "infinite",
						"cancelOrder(uint256)": "infinite",
						"changePrice(uint256,uint256)": "infinite",
						"erc20()": "infinite",
						"erc721()": "infinite",
						"getAllNFTs()": "infinite",
						"getMyNFTs()": "infinite",
						"getOrderLength()": "2551",
						"idToOrderIndex(uint256)": "infinite",
						"isListed(uint256)": "2924",
						"onERC721Received(address,address,uint256,bytes)": "infinite",
						"orders(uint256)": "infinite"
					},
					"internal": {
						"removeListing(uint256)": "infinite",
						"toUint256(bytes memory,uint256)": "infinite"
					}
				},
				"methodIdentifiers": {
					"OrderOfId(uint256)": "43b7bd8d",
					"buy(uint256,uint256)": "d6febde8",
					"cancelOrder(uint256)": "514fcac7",
					"changePrice(uint256,uint256)": "b3de019c",
					"erc20()": "785e9e86",
					"erc721()": "bca6ce64",
					"getAllNFTs()": "e0391b09",
					"getMyNFTs()": "629cb2e4",
					"getOrderLength()": "9d4971b7",
					"idToOrderIndex(uint256)": "da694df0",
					"isListed(uint256)": "fcce4883",
					"onERC721Received(address,address,uint256,bytes)": "150b7a02",
					"orders(uint256)": "a85c38ef"
				}
			},
			"storageLayout": {
				"storage": [
					{
						"astId": 227,
						"contract": "contracts/ntf_market.sol:NFTMarket",
						"label": "erc20",
						"offset": 0,
						"slot": "0",
						"type": "t_contract(IERC20)94"
					},
					{
						"astId": 230,
						"contract": "contracts/ntf_market.sol:NFTMarket",
						"label": "erc721",
						"offset": 0,
						"slot": "1",
						"type": "t_contract(IERC721)198"
					},
					{
						"astId": 244,
						"contract": "contracts/ntf_market.sol:NFTMarket",
						"label": "orders",
						"offset": 0,
						"slot": "2",
						"type": "t_array(t_struct(Order)240_storage)dyn_storage"
					},
					{
						"astId": 249,
						"contract": "contracts/ntf_market.sol:NFTMarket",
						"label": "OrderOfId",
						"offset": 0,
						"slot": "3",
						"type": "t_mapping(t_uint256,t_struct(Order)240_storage)"
					},
					{
						"astId": 253,
						"contract": "contracts/ntf_market.sol:NFTMarket",
						"label": "idToOrderIndex",
						"offset": 0,
						"slot": "4",
						"type": "t_mapping(t_uint256,t_uint256)"
					}
				],
				"types": {
					"t_address": {
						"encoding": "inplace",
						"label": "address",
						"numberOfBytes": "20"
					},
					"t_array(t_struct(Order)240_storage)dyn_storage": {
						"base": "t_struct(Order)240_storage",
						"encoding": "dynamic_array",
						"label": "struct NFTMarket.Order[]",
						"numberOfBytes": "32"
					},
					"t_contract(IERC20)94": {
						"encoding": "inplace",
						"label": "contract IERC20",
						"numberOfBytes": "20"
					},
					"t_contract(IERC721)198": {
						"encoding": "inplace",
						"label": "contract IERC721",
						"numberOfBytes": "20"
					},
					"t_mapping(t_uint256,t_struct(Order)240_storage)": {
						"encoding": "mapping",
						"key": "t_uint256",
						"label": "mapping(uint256 => struct NFTMarket.Order)",
						"numberOfBytes": "32",
						"value": "t_struct(Order)240_storage"
					},
					"t_mapping(t_uint256,t_uint256)": {
						"encoding": "mapping",
						"key": "t_uint256",
						"label": "mapping(uint256 => uint256)",
						"numberOfBytes": "32",
						"value": "t_uint256"
					},
					"t_struct(Order)240_storage": {
						"encoding": "inplace",
						"label": "struct NFTMarket.Order",
						"members": [
							{
								"astId": 235,
								"contract": "contracts/ntf_market.sol:NFTMarket",
								"label": "seller",
								"offset": 0,
								"slot": "0",
								"type": "t_address"
							},
							{
								"astId": 237,
								"contract": "contracts/ntf_market.sol:NFTMarket",
								"label": "tokenId",
								"offset": 0,
								"slot": "1",
								"type": "t_uint256"
							},
							{
								"astId": 239,
								"contract": "contracts/ntf_market.sol:NFTMarket",
								"label": "price",
								"offset": 0,
								"slot": "2",
								"type": "t_uint256"
							}
						],
						"numberOfBytes": "96"
					},
					"t_uint256": {
						"encoding": "inplace",
						"label": "uint256",
						"numberOfBytes": "32"
					}
				}
			},
			"userdoc": {
				"kind": "user",
				"methods": {},
				"version": 1
			}
		}
	}
}