{
  "_format": "hh-sol-artifact-1",
  "contractName": "NFTMarket",
  "sourceName": "contracts/ntf_market.sol",
  "abi": [
    {
      "inputs": [
        {
          "internalType": "contract IERC20",
          "name": "_erc20",
          "type": "address"
        },
        {
          "internalType": "contract IERC721",
          "name": "_erc721",
          "type": "address"
        }
      ],
      "stateMutability": "nonpayable",
      "type": "constructor"
    },
    {
      "anonymous": false,
      "inputs": [
        {
          "indexed": true,
          "internalType": "address",
          "name": "seller",
          "type": "address"
        },
        {
          "indexed": false,
          "internalType": "uint256",
          "name": "tokenId",
          "type": "uint256"
        }
      ],
      "name": "CancelOrder",
      "type": "event"
    },
    {
      "anonymous": false,
      "inputs": [
        {
          "indexed": true,
          "internalType": "address",
          "name": "seller",
          "type": "address"
        },
        {
          "indexed": false,
          "internalType": "uint256",
          "name": "tokenId",
          "type": "uint256"
        },
        {
          "indexed": false,
          "internalType": "uint256",
          "name": "previousPrice",
          "type": "uint256"
        },
        {
          "indexed": false,
          "internalType": "uint256",
          "name": "price",
          "type": "uint256"
        }
      ],
      "name": "ChangePrice",
      "type": "event"
    },
    {
      "anonymous": false,
      "inputs": [
        {
          "indexed": true,
          "internalType": "address",
          "name": "seller",
          "type": "address"
        },
        {
          "indexed": true,
          "internalType": "address",
          "name": "buyer",
          "type": "address"
        },
        {
          "indexed": false,
          "internalType": "uint256",
          "name": "tokenId",
          "type": "uint256"
        },
        {
          "indexed": false,
          "internalType": "uint256",
          "name": "price",
          "type": "uint256"
        }
      ],
      "name": "Deal",
      "type": "event"
    },
    {
      "anonymous": false,
      "inputs": [
        {
          "indexed": true,
          "internalType": "address",
          "name": "seller",
          "type": "address"
        },
        {
          "indexed": false,
          "internalType": "uint256",
          "name": "tokenId",
          "type": "uint256"
        },
        {
          "indexed": false,
          "internalType": "uint256",
          "name": "price",
          "type": "uint256"
        }
      ],
      "name": "NewOrder",
      "type": "event"
    },
    {
      "inputs": [
        {
          "internalType": "uint256",
          "name": "",
          "type": "uint256"
        }
      ],
      "name": "OrderOfId",
      "outputs": [
        {
          "internalType": "address",
          "name": "seller",
          "type": "address"
        },
        {
          "internalType": "uint256",
          "name": "tokenId",
          "type": "uint256"
        },
        {
          "internalType": "uint256",
          "name": "price",
          "type": "uint256"
        }
      ],
      "stateMutability": "view",
      "type": "function"
    },
    {
      "inputs": [
        {
          "internalType": "uint256",
          "name": "_tokenId",
          "type": "uint256"
        },
        {
          "internalType": "uint256",
          "name": "_price",
          "type": "uint256"
        }
      ],
      "name": "buy",
      "outputs": [],
      "stateMutability": "nonpayable",
      "type": "function"
    },
    {
      "inputs": [
        {
          "internalType": "uint256",
          "name": "_tokenId",
          "type": "uint256"
        }
      ],
      "name": "cancelOrder",
      "outputs": [],
      "stateMutability": "nonpayable",
      "type": "function"
    },
    {
      "inputs": [
        {
          "internalType": "uint256",
          "name": "_tokenId",
          "type": "uint256"
        },
        {
          "internalType": "uint256",
          "name": "_price",
          "type": "uint256"
        }
      ],
      "name": "changePrice",
      "outputs": [],
      "stateMutability": "nonpayable",
      "type": "function"
    },
    {
      "inputs": [],
      "name": "erc20",
      "outputs": [
        {
          "internalType": "contract IERC20",
          "name": "",
          "type": "address"
        }
      ],
      "stateMutability": "view",
      "type": "function"
    },
    {
      "inputs": [],
      "name": "erc721",
      "outputs": [
        {
          "internalType": "contract IERC721",
          "name": "",
          "type": "address"
        }
      ],
      "stateMutability": "view",
      "type": "function"
    },
    {
      "inputs": [],
      "name": "getAllNFTs",
      "outputs": [
        {
          "components": [
            {
              "internalType": "address",
              "name": "seller",
              "type": "address"
            },
            {
              "internalType": "uint256",
              "name": "tokenId",
              "type": "uint256"
            },
            {
              "internalType": "uint256",
              "name": "price",
              "type": "uint256"
            }
          ],
          "internalType": "struct NFTMarket.Order[]",
          "name": "",
          "type": "tuple[]"
        }
      ],
      "stateMutability": "view",
      "type": "function"
    },
    {
      "inputs": [],
      "name": "getMyNFTs",
      "outputs": [
        {
          "components": [
            {
              "internalType": "address",
              "name": "seller",
              "type": "address"
            },
            {
              "internalType": "uint256",
              "name": "tokenId",
              "type": "uint256"
            },
            {
              "internalType": "uint256",
              "name": "price",
              "type": "uint256"
            }
          ],
          "internalType": "struct NFTMarket.Order[]",
          "name": "",
          "type": "tuple[]"
        }
      ],
      "stateMutability": "view",
      "type": "function"
    },
    {
      "inputs": [],
      "name": "getOrderLength",
      "outputs": [
        {
          "internalType": "uint256",
          "name": "",
          "type": "uint256"
        }
      ],
      "stateMutability": "view",
      "type": "function"
    },
    {
      "inputs": [
        {
          "internalType": "uint256",
          "name": "",
          "type": "uint256"
        }
      ],
      "name": "idToOrderIndex",
      "outputs": [
        {
          "internalType": "uint256",
          "name": "",
          "type": "uint256"
        }
      ],
      "stateMutability": "view",
      "type": "function"
    },
    {
      "inputs": [
        {
          "internalType": "uint256",
          "name": "_tokenId",
          "type": "uint256"
        }
      ],
      "name": "isListed",
      "outputs": [
        {
          "internalType": "bool",
          "name": "",
          "type": "bool"
        }
      ],
      "stateMutability": "view",
      "type": "function"
    },
    {
      "inputs": [
        {
          "internalType": "address",
          "name": "_operator",
          "type": "address"
        },
        {
          "internalType": "address",
          "name": "_seller",
          "type": "address"
        },
        {
          "internalType": "uint256",
          "name": "_tokenId",
          "type": "uint256"
        },
        {
          "internalType": "bytes",
          "name": "_data",
          "type": "bytes"
        }
      ],
      "name": "onERC721Received",
      "outputs": [
        {
          "internalType": "bytes4",
          "name": "",
          "type": "bytes4"
        }
      ],
      "stateMutability": "nonpayable",
      "type": "function"
    },
    {
      "inputs": [
        {
          "internalType": "uint256",
          "name": "",
          "type": "uint256"
        }
      ],
      "name": "orders",
      "outputs": [
        {
          "internalType": "address",
          "name": "seller",
          "type": "address"
        },
        {
          "internalType": "uint256",
          "name": "tokenId",
          "type": "uint256"
        },
        {
          "internalType": "uint256",
          "name": "price",
          "type": "uint256"
        }
      ],
      "stateMutability": "view",
      "type": "function"
    }
  ],
  "bytecode": "0x60806040523480156200001157600080fd5b506040516200230838038062002308833981810160405281019062000037919062000267565b600073ffffffffffffffffffffffffffffffffffffffff168273ffffffffffffffffffffffffffffffffffffffff1603620000a9576040517f08c379a0000000000000000000000000000000000000000000000000000000008152600401620000a0906200030f565b60405180910390fd5b600073ffffffffffffffffffffffffffffffffffffffff168173ffffffffffffffffffffffffffffffffffffffff16036200011b576040517f08c379a0000000000000000000000000000000000000000000000000000000008152600401620001129062000381565b60405180910390fd5b816000806101000a81548173ffffffffffffffffffffffffffffffffffffffff021916908373ffffffffffffffffffffffffffffffffffffffff16021790555080600160006101000a81548173ffffffffffffffffffffffffffffffffffffffff021916908373ffffffffffffffffffffffffffffffffffffffff1602179055505050620003a3565b600080fd5b600073ffffffffffffffffffffffffffffffffffffffff82169050919050565b6000620001d682620001a9565b9050919050565b6000620001ea82620001c9565b9050919050565b620001fc81620001dd565b81146200020857600080fd5b50565b6000815190506200021c81620001f1565b92915050565b60006200022f82620001c9565b9050919050565b620002418162000222565b81146200024d57600080fd5b50565b600081519050620002618162000236565b92915050565b60008060408385031215620002815762000280620001a4565b5b600062000291858286016200020b565b9250506020620002a48582860162000250565b9150509250929050565b600082825260208201905092915050565b7f4d61726b65743a20496e76616c696420455243323020546f6b656e0000000000600082015250565b6000620002f7601b83620002ae565b91506200030482620002bf565b602082019050919050565b600060208201905081810360008301526200032a81620002e8565b9050919050565b7f4d61726b65743a20496e76616c69642045524337323120546f6b656e00000000600082015250565b600062000369601c83620002ae565b9150620003768262000331565b602082019050919050565b600060208201905081810360008301526200039c816200035a565b9050919050565b611f5580620003b36000396000f3fe608060405234801561001057600080fd5b50600436106100cf5760003560e01c8063a85c38ef1161008c578063d6febde811610066578063d6febde814610218578063da694df014610234578063e0391b0914610264578063fcce488314610282576100cf565b8063a85c38ef146101ac578063b3de019c146101de578063bca6ce64146101fa576100cf565b8063150b7a02146100d457806343b7bd8d14610104578063514fcac714610136578063629cb2e414610152578063785e9e86146101705780639d4971b71461018e575b600080fd5b6100ee60048036038101906100e99190611430565b6102b2565b6040516100fb91906114f3565b60405180910390f35b61011e6004803603810190610119919061150e565b6105e9565b60405161012d93929190611559565b60405180910390f35b610150600480360381019061014b919061150e565b610633565b005b61015a61080a565b604051610167919061169f565b60405180910390f35b6101786109d2565b6040516101859190611720565b60405180910390f35b6101966109f6565b6040516101a3919061173b565b60405180910390f35b6101c660048036038101906101c1919061150e565b610a03565b6040516101d593929190611559565b60405180910390f35b6101f860048036038101906101f39190611756565b610a5d565b005b610202610c19565b60405161020f91906117b7565b60405180910390f35b610232600480360381019061022d9190611756565b610c3f565b005b61024e6004803603810190610249919061150e565b610f0b565b60405161025b919061173b565b60405180910390f35b61026c610f23565b604051610279919061169f565b60405180910390f35b61029c6004803603810190610297919061150e565b610fec565b6040516102a991906117ed565b60405180910390f35b60008061030484848080601f016020809104026020016040519081016040528093929190818152602001838380828437600081840152601f19601f82011690508083019250505050505050600061105b565b905060008111610349576040517f08c379a000000000000000000000000000000000000000000000000000000000815260040161034090611865565b60405180910390fd5b600073ffffffffffffffffffffffffffffffffffffffff168673ffffffffffffffffffffffffffffffffffffffff16036103b8576040517f08c379a00000000000000000000000000000000000000000000000000000000081526004016103af906118d1565b60405180910390fd5b6103c185610fec565b15610401576040517f08c379a00000000000000000000000000000000000000000000000000000000081526004016103f890611963565b60405180910390fd5b600260405180606001604052808873ffffffffffffffffffffffffffffffffffffffff16815260200187815260200183815250908060018154018082558091505060019003906000526020600020906003020160009091909190915060008201518160000160006101000a81548173ffffffffffffffffffffffffffffffffffffffff021916908373ffffffffffffffffffffffffffffffffffffffff1602179055506020820151816001015560408201518160020155505060405180606001604052808773ffffffffffffffffffffffffffffffffffffffff168152602001868152602001828152506003600087815260200190815260200160002060008201518160000160006101000a81548173ffffffffffffffffffffffffffffffffffffffff021916908373ffffffffffffffffffffffffffffffffffffffff1602179055506020820151816001015560408201518160020155905050600160028054905061056e91906119b2565b60046000878152602001908152602001600020819055508573ffffffffffffffffffffffffffffffffffffffff167fd5b509e657d5ec37ae4bdcab658b7340c0453bb630516d26623359a34c1cecf386836040516105cd9291906119e6565b60405180910390a263150b7a0260e01b91505095945050505050565b60036020528060005260406000206000915090508060000160009054906101000a900473ffffffffffffffffffffffffffffffffffffffff16908060010154908060020154905083565b61063c81610fec565b61067b576040517f08c379a000000000000000000000000000000000000000000000000000000000815260040161067290611a5b565b60405180910390fd5b6003600082815260200190815260200160002060000160009054906101000a900473ffffffffffffffffffffffffffffffffffffffff1673ffffffffffffffffffffffffffffffffffffffff163373ffffffffffffffffffffffffffffffffffffffff161461071f576040517f08c379a000000000000000000000000000000000000000000000000000000000815260040161071690611aed565b60405180910390fd5b600160009054906101000a900473ffffffffffffffffffffffffffffffffffffffff1673ffffffffffffffffffffffffffffffffffffffff166342842e0e3033846040518463ffffffff1660e01b815260040161077e93929190611b0d565b600060405180830381600087803b15801561079857600080fd5b505af11580156107ac573d6000803e3d6000fd5b505050506107b981611111565b3373ffffffffffffffffffffffffffffffffffffffff167fc0e68d6b69f741c21e955cad2ae4d505b6f6735c7e7b278251b3f6283a5f07eb826040516107ff919061173b565b60405180910390a250565b6060600060028054905067ffffffffffffffff81111561082d5761082c611b44565b5b60405190808252806020026020018201604052801561086657816020015b6108536112f6565b81526020019060019003908161084b5790505b5090506000805b6002805490508110156109c9573373ffffffffffffffffffffffffffffffffffffffff16600282815481106108a5576108a4611b73565b5b906000526020600020906003020160000160009054906101000a900473ffffffffffffffffffffffffffffffffffffffff1673ffffffffffffffffffffffffffffffffffffffff16036109b6576002818154811061090657610905611b73565b5b90600052602060002090600302016040518060600160405290816000820160009054906101000a900473ffffffffffffffffffffffffffffffffffffffff1673ffffffffffffffffffffffffffffffffffffffff1673ffffffffffffffffffffffffffffffffffffffff1681526020016001820154815260200160028201548152505083838151811061099c5761099b611b73565b5b602002602001018190525081806109b290611ba2565b9250505b80806109c190611ba2565b91505061086d565b50819250505090565b60008054906101000a900473ffffffffffffffffffffffffffffffffffffffff1681565b6000600280549050905090565b60028181548110610a1357600080fd5b90600052602060002090600302016000915090508060000160009054906101000a900473ffffffffffffffffffffffffffffffffffffffff16908060010154908060020154905083565b610a6682610fec565b610aa5576040517f08c379a0000000000000000000000000000000000000000000000000000000008152600401610a9c90611a5b565b60405180910390fd5b6003600083815260200190815260200160002060000160009054906101000a900473ffffffffffffffffffffffffffffffffffffffff1673ffffffffffffffffffffffffffffffffffffffff163373ffffffffffffffffffffffffffffffffffffffff1614610b49576040517f08c379a0000000000000000000000000000000000000000000000000000000008152600401610b4090611c5c565b60405180910390fd5b60006003600084815260200190815260200160002060020154905081600360008581526020019081526020016000206002018190555060006002600460008681526020019081526020016000205481548110610ba857610ba7611b73565b5b906000526020600020906003020190508281600201819055503373ffffffffffffffffffffffffffffffffffffffff167f342a7f6248980b0f191b96eb6b7a439c4da78b2c97b86ca66cc7ee90d4b04cce858486604051610c0b93929190611c7c565b60405180910390a250505050565b600160009054906101000a900473ffffffffffffffffffffffffffffffffffffffff1681565b610c4882610fec565b610c87576040517f08c379a0000000000000000000000000000000000000000000000000000000008152600401610c7e90611a5b565b60405180910390fd5b60006003600084815260200190815260200160002060000160009054906101000a900473ffffffffffffffffffffffffffffffffffffffff1690506000339050600060036000868152602001908152602001600020600201549050838114610d24576040517f08c379a0000000000000000000000000000000000000000000000000000000008152600401610d1b90611cff565b60405180910390fd5b60008054906101000a900473ffffffffffffffffffffffffffffffffffffffff1673ffffffffffffffffffffffffffffffffffffffff166323b872dd8385846040518463ffffffff1660e01b8152600401610d8193929190611b0d565b6020604051808303816000875af1158015610da0573d6000803e3d6000fd5b505050506040513d601f19601f82011682018060405250810190610dc49190611d4b565b610e03576040517f08c379a0000000000000000000000000000000000000000000000000000000008152600401610dfa90611dc4565b60405180910390fd5b600160009054906101000a900473ffffffffffffffffffffffffffffffffffffffff1673ffffffffffffffffffffffffffffffffffffffff166342842e0e3084886040518463ffffffff1660e01b8152600401610e6293929190611b0d565b600060405180830381600087803b158015610e7c57600080fd5b505af1158015610e90573d6000803e3d6000fd5b50505050610e9d85611111565b8273ffffffffffffffffffffffffffffffffffffffff168273ffffffffffffffffffffffffffffffffffffffff167f424d5e5f0192c7dacdbe646ca31b00299146d883d76a95ef5cddbac7cd342eab8787604051610efc9291906119e6565b60405180910390a35050505050565b60046020528060005260406000206000915090505481565b60606002805480602002602001604051908101604052809291908181526020016000905b82821015610fe357838290600052602060002090600302016040518060600160405290816000820160009054906101000a900473ffffffffffffffffffffffffffffffffffffffff1673ffffffffffffffffffffffffffffffffffffffff1673ffffffffffffffffffffffffffffffffffffffff1681526020016001820154815260200160028201548152505081526020019060010190610f47565b50505050905090565b60008073ffffffffffffffffffffffffffffffffffffffff166003600084815260200190815260200160002060000160009054906101000a900473ffffffffffffffffffffffffffffffffffffffff1673ffffffffffffffffffffffffffffffffffffffff1614159050919050565b60008160208361106b9190611de4565b10156110ac576040517f08c379a00000000000000000000000000000000000000000000000000000000081526004016110a390611e64565b60405180910390fd5b6020826110b99190611de4565b835110156110fc576040517f08c379a00000000000000000000000000000000000000000000000000000000081526004016110f390611ed0565b60405180910390fd5b60008260208501015190508091505092915050565b6000600160028054905061112591906119b2565b905060006004600084815260200190815260200160002054905081811461122b5760006002838154811061115c5761115b611b73565b5b90600052602060002090600302019050806002838154811061118157611180611b73565b5b90600052602060002090600302016000820160009054906101000a900473ffffffffffffffffffffffffffffffffffffffff168160000160006101000a81548173ffffffffffffffffffffffffffffffffffffffff021916908373ffffffffffffffffffffffffffffffffffffffff160217905550600182015481600101556002820154816002015590505081600460008360010154815260200190815260200160002081905550505b600280548061123d5761123c611ef0565b5b6001900381819060005260206000209060030201600080820160006101000a81549073ffffffffffffffffffffffffffffffffffffffff0219169055600182016000905560028201600090555050905560036000848152602001908152602001600020600080820160006101000a81549073ffffffffffffffffffffffffffffffffffffffff02191690556001820160009055600282016000905550506004600084815260200190815260200160002060009055505050565b6040518060600160405280600073ffffffffffffffffffffffffffffffffffffffff16815260200160008152602001600081525090565b600080fd5b600080fd5b600073ffffffffffffffffffffffffffffffffffffffff82169050919050565b600061136282611337565b9050919050565b61137281611357565b811461137d57600080fd5b50565b60008135905061138f81611369565b92915050565b6000819050919050565b6113a881611395565b81146113b357600080fd5b50565b6000813590506113c58161139f565b92915050565b600080fd5b600080fd5b600080fd5b60008083601f8401126113f0576113ef6113cb565b5b8235905067ffffffffffffffff81111561140d5761140c6113d0565b5b602083019150836001820283011115611429576114286113d5565b5b9250929050565b60008060008060006080868803121561144c5761144b61132d565b5b600061145a88828901611380565b955050602061146b88828901611380565b945050604061147c888289016113b6565b935050606086013567ffffffffffffffff81111561149d5761149c611332565b5b6114a9888289016113da565b92509250509295509295909350565b60007fffffffff0000000000000000000000000000000000000000000000000000000082169050919050565b6114ed816114b8565b82525050565b600060208201905061150860008301846114e4565b92915050565b6000602082840312156115245761152361132d565b5b6000611532848285016113b6565b91505092915050565b61154481611357565b82525050565b61155381611395565b82525050565b600060608201905061156e600083018661153b565b61157b602083018561154a565b611588604083018461154a565b949350505050565b600081519050919050565b600082825260208201905092915050565b6000819050602082019050919050565b6115c581611357565b82525050565b6115d481611395565b82525050565b6060820160008201516115f060008501826115bc565b50602082015161160360208501826115cb565b50604082015161161660408501826115cb565b50505050565b600061162883836115da565b60608301905092915050565b6000602082019050919050565b600061164c82611590565b611656818561159b565b9350611661836115ac565b8060005b83811015611692578151611679888261161c565b975061168483611634565b925050600181019050611665565b5085935050505092915050565b600060208201905081810360008301526116b98184611641565b905092915050565b6000819050919050565b60006116e66116e16116dc84611337565b6116c1565b611337565b9050919050565b60006116f8826116cb565b9050919050565b600061170a826116ed565b9050919050565b61171a816116ff565b82525050565b60006020820190506117356000830184611711565b92915050565b6000602082019050611750600083018461154a565b92915050565b6000806040838503121561176d5761176c61132d565b5b600061177b858286016113b6565b925050602061178c858286016113b6565b9150509250929050565b60006117a1826116ed565b9050919050565b6117b181611796565b82525050565b60006020820190506117cc60008301846117a8565b92915050565b60008115159050919050565b6117e7816117d2565b82525050565b600060208201905061180260008301846117de565b92915050565b600082825260208201905092915050565b7f4d61726b65743a20496e76616c69642070726963650000000000000000000000600082015250565b600061184f601583611808565b915061185a82611819565b602082019050919050565b6000602082019050818103600083015261187e81611842565b9050919050565b7f4d61726b65743a20496e76616c69642073656c6c657200000000000000000000600082015250565b60006118bb601683611808565b91506118c682611885565b602082019050919050565b600060208201905081810360008301526118ea816118ae565b9050919050565b7f4d61726b65743a20546f6b656e20494420697320616c7265616479206c69737460008201527f6564000000000000000000000000000000000000000000000000000000000000602082015250565b600061194d602283611808565b9150611958826118f1565b604082019050919050565b6000602082019050818103600083015261197c81611940565b9050919050565b7f4e487b7100000000000000000000000000000000000000000000000000000000600052601160045260246000fd5b60006119bd82611395565b91506119c883611395565b92508282039050818111156119e0576119df611983565b5b92915050565b60006040820190506119fb600083018561154a565b611a08602083018461154a565b9392505050565b7f4d61726b65743a20546f6b656e204944206973206e6f74206c69737465640000600082015250565b6000611a45601e83611808565b9150611a5082611a0f565b602082019050919050565b60006020820190508181036000830152611a7481611a38565b9050919050565b7f4d61726b65743a204f6e6c792073656c6c65722063616e2063616e63656c206f60008201527f7264657200000000000000000000000000000000000000000000000000000000602082015250565b6000611ad7602483611808565b9150611ae282611a7b565b604082019050919050565b60006020820190508181036000830152611b0681611aca565b9050919050565b6000606082019050611b22600083018661153b565b611b2f602083018561153b565b611b3c604083018461154a565b949350505050565b7f4e487b7100000000000000000000000000000000000000000000000000000000600052604160045260246000fd5b7f4e487b7100000000000000000000000000000000000000000000000000000000600052603260045260246000fd5b6000611bad82611395565b91507fffffffffffffffffffffffffffffffffffffffffffffffffffffffffffffffff8203611bdf57611bde611983565b5b600182019050919050565b7f4d61726b65743a204f6e6c792073656c6c65722063616e206368616e6765207060008201527f7269636500000000000000000000000000000000000000000000000000000000602082015250565b6000611c46602483611808565b9150611c5182611bea565b604082019050919050565b60006020820190508181036000830152611c7581611c39565b9050919050565b6000606082019050611c91600083018661154a565b611c9e602083018561154a565b611cab604083018461154a565b949350505050565b7f4d61726b65743a205072696365206973206e6f742065686f7567680000000000600082015250565b6000611ce9601b83611808565b9150611cf482611cb3565b602082019050919050565b60006020820190508181036000830152611d1881611cdc565b9050919050565b611d28816117d2565b8114611d3357600080fd5b50565b600081519050611d4581611d1f565b92915050565b600060208284031215611d6157611d6061132d565b5b6000611d6f84828501611d36565b91505092915050565b7f4d61726b65743a205472616e73666572206661696c6564000000000000000000600082015250565b6000611dae601783611808565b9150611db982611d78565b602082019050919050565b60006020820190508181036000830152611ddd81611da1565b9050919050565b6000611def82611395565b9150611dfa83611395565b9250828201905080821115611e1257611e11611983565b5b92915050565b7f4d61726b65743a20746f55696e74206f7574206f662072616e67650000000000600082015250565b6000611e4e601b83611808565b9150611e5982611e18565b602082019050919050565b60006020820190508181036000830152611e7d81611e41565b9050919050565b7f4d61726b65743a20746f55696e74323536206f7574206f662072616e67650000600082015250565b6000611eba601e83611808565b9150611ec582611e84565b602082019050919050565b60006020820190508181036000830152611ee981611ead565b9050919050565b7f4e487b7100000000000000000000000000000000000000000000000000000000600052603160045260246000fdfea264697066735822122076f8d138198fae9d9b6885fd494c4bd8f0eec9b7c6a978c22d10ddd00636195964736f6c63430008140033",
  "linkReferences": {},
  "deployedLinkReferences": {}
}